:020000040800F2
:1000000090070020A90100080D3200080F320008F7
:1000100013320008173200081B32000800000000ED
:100020000000000000000000000000002132000875
:100030001F320008000000002332000825320008AB
:10004000C3010008C3010008C3010008913900087A
:10005000C3010008C301000851350008A735000896
:10006000CF350008C3010008C3010008C301000820
:10007000C3010008C3010008C3010008C301000850
:10008000C3010008C3010008C3010008C301000840
:10009000C3010008C3010008C30100087935000846
:1000A000C3010008C3010008C3010008C301000820
:1000B00029370008C3010008793A0008C301000885
:1000C000C3010008C3010008C3010008C301000800
:1000D000C3010008C30100087F3B0008C3010008FA
:1000E000C3010008C3010008C301000800F002F8C2
:1000F00000F04AF80AA090E8000C82448344AAF178
:100100000107DA4501D100F03FF8AFF2090EBAE875
:100110000F0013F0010F18BFFB1A43F0010318473B
:10012000E867000008680000103A24BF78C878C16A
:10013000FAD8520724BF30C830C144BF04680C60ED
:10014000704700000023002400250026103A28BF35
:1001500078C1FBD8520728BF30C148BF0B60704739
:10016000662905F09D82642903F0CE860020704741
:100170001FB504F015FA04000020002104F068FF08
:10018000E0601FBD10B510BD04F00AFB1146FFF77B
:10019000EFFF02F04BFF04F028FB03B4FFF7F2FF80
:1001A00003BC04F06BFB0000094880470948004786
:1001B000FEE7FEE7FEE7FEE7FEE7FEE7FEE7FEE717
:1001C000FEE7FEE704480549054A064B7047000074
:1001D000C7020008ED0000089001002090070020F1
:1001E00090030020900300200CB5002001900090A7
:1001F0006C48006840F480306A49086000BF694874
:10020000006800F4003000900198401C01900098B4
:1002100018B90198B0F5A06FF1D16248006800F4F8
:10022000003010B10120009001E000200090009803
:10023000012843D15C48006840F010005A4908602A
:100240000846006820F0030008600846006840F097
:1002500002000860534840685249486008464068B8
:1002600048600846406840F480604860084640683E
:1002700020F47C1048600846406840F4E81048606C
:100280000846006840F08070086000BF454800687C
:1002900000F000700028F9D04248406820F00300C8
:1002A000404948600846406840F00200486000BF8E
:1002B0003C48406800F00C000828F9D10CBD10B58E
:1002C000FFF792FF10BD10B53648006840F00100FE
:1002D000344908600846406834490840314948605C
:1002E00008460068324908402E4908600846006800
:1002F00020F4802008600846406820F4FE00486032
:100300004FF41F008860FFF7DAFF4FF000602949C3
:10031000086010BD10B5002100200022214B5B6851
:1003200003F00C0121B1042906D0082928D107E0E7
:10033000214B224C236027E01F4B204C236023E0FD
:10034000184B5B6803F47010164B5B6803F4803243
:10035000022303EB904022B9194B4343174C23600F
:100360000DE0104B5B6803F4003323B1144B43439F
:10037000124C236003E0104B4343104C236003E016
:100380000D4B0E4C236000BF00BF064B5B68C3F3F0
:1003900003130C4CE15C094B1B68CB40074C2360FA
:1003A00010BD000000100240002002400000FFF8D5
:1003B000FFFFF6FE08ED00E000127A0000000020CA
:1003C00000093D000400002010B50446CC488442DA
:1003D00008D10121042000F02DFB0021042000F0B1
:1003E00029FB46E0C748844208D10121082000F0DB
:1003F00021FB0021082000F01DFB3AE0C2488442A6
:1004000008D10121102000F015FB0021102000F080
:1004100011FB2EE0BD48844208D10121202000F0CC
:1004200009FB0021202000F005FB22E0B8488442AF
:1004300008D10121402000F0FDFA0021402000F009
:10044000F9FA16E0B348844208D10121802000F077
:10045000F1FA0021802000F0EDFA0AE0AE48844273
:1004600007D10121801500F0E5FA0021A01500F068
:10047000E1FA10BD10B50121084600F0DBFA0021B9
:10048000012000F0D7FA10BD2DE9F0410246002509
:100490000026002000230024002791F803C00CF060
:1004A0000F0591F803C00CF0100CBCF1000F03D045
:1004B00091F802C04CEA050591F800C0BCF1000FAC
:1004C00031D0146800202BE04FF0010C0CFA00F33F
:1004D000B1F800C00CEA03069E4220D183004FF021
:1004E0000F0C0CFA03F7BC4305FA03FC4CEA0404B6
:1004F00091F803C0BCF1280F06D14FF0010C0CFAA3
:1005000000FCC2F814C00AE091F803C0BCF1480F27
:1005100005D14FF0010C0CFA00FCC2F810C0401CD1
:100520000828D1D31460B1F800C0BCF1FF0F34DD4E
:10053000546800202EE000F1080C4FF0010808FA82
:100540000CF3B1F800C00CEA03069E4221D18300EF
:100550004FF00F0C0CFA03F7BC4305FA03FC4CEA0E
:10056000040491F803C0BCF1280F05D100F1080C78
:1005700008FA0CF8C2F8148091F803C0BCF1480FD7
:1005800007D100F1080C4FF0010808FA0CF8C2F886
:100590001080401C0828CED35460BDE8F0814FF68F
:1005A000FF710180022181700421C17070470246F1
:1005B000002093680B400BB1012000E00020704741
:1005C0000146886880B2704702460020D3680B401D
:1005D0000BB1012000E0002070470146C86880B2DE
:1005E000704701617047416170470AB1016100E0E5
:1005F00041617047C16070474FF480320A438261A5
:100600008161826182698269704702460020434BA2
:1006100018684FF68073184040EA021008433F4BB9
:10062000186070473E49C8617047F0B50A4600231C
:1006300000240021002500F00046B6F1004F02D151
:10064000364EF16901E0354E7168C0F3034583B25F
:1006500000F44016B6F5401F08D121F070612F4E0E
:10066000766826F070662D4F7E6012E000F48016EA
:10067000B6F5801F06D1032606FA05F4A14341F022
:10068000706106E0460D360103FA06F6B14341F00B
:10069000706122B1460D360103FA06F6314300F0CF
:1006A0000046B6F1004F02D11C4EF16101E01B4E35
:1006B0007160F0BD30B500228B071C0F0F2303FAC9
:1006C00004F2164B08338C1053F824309343134C28
:1006D00008348D1044F8253023468C1053F824300C
:1006E0008C07240F00FA04F423430C4C08348D10BB
:1006F00044F8253030BD0A49DC31086070470000FD
:1007000000080140000C01400010014000140140AD
:1007100000180140001C0140002001400000014081
:1007200000002042DF48006840F00100DD49086019
:1007300008464068DC490840DA49486008460068D5
:10074000DA490840D74908600846006820F480204C
:1007500008600846406820F4FE0048604FF41F001F
:1007600088607047CF49096821F48031CD4A116013
:100770001146096821F480211160B0F5803F03D053
:10078000B0F5802F0ED106E0C649096841F48031EA
:10079000C44A116007E0C349096841F4A021C14A75
:1007A000116000E000BF00BF704710B50146002295
:1007B000002300204A11012A02D1BA4C236806E026
:1007C000022A02D1B74C236A01E0B64C636A01F0F9
:1007D0001F02012494401C400CB1012000E00020C5
:1007E00010BD38B5002000900024002500BF312046
:1007F000FFF7DBFF05460098401C00900098B0F51D
:10080000A06F01D0002DF2D03120FFF7CEFF08B14C
:10081000012400E00024204638BD01460020A14A02
:10082000106820F0F80040EAC10010607047A0494D
:1008300008607047024600209A4B586820F47C10EC
:1008400042EA01031843974B58607047984908667D
:10085000704701460020934A506820F00300084387
:10086000506070478F48406800F00C0070470146A8
:1008700000208C4A506820F0F00008435060704718
:1008800001460020874A506820F4E0600843506029
:10089000704701460020834A506820F4605040EAC7
:1008A000C1005060704729B17E4A527A02437D4BA5
:1008B0005A7204E07B4A527A82437A4B5A727047EA
:1008C0007B49D8310860704701460020754A50685E
:1008D00020F440400843506070470021714A2032A4
:1008E0001170704A82F82010012802D004280AD121
:1008F00004E001216B4A2032117005E00521694AAC
:100900002032117000E000BF00BF704769490860E5
:1009100070476449096A0143624A11627047654938
:1009200044390860704730B50021002200240023BC
:100930005C4D6D6805F00C0121B1042905D0082932
:1009400023D105E05C4D056022E05B4D05601FE0B2
:10095000544D6D6805F47012524D6D6805F4803485
:10096000022505EB92421CB9544D554305600BE03E
:100970004C4D6D6805F400351DB1504D5543056073
:1009800002E04D4D5543056002E04B4D056000BF50
:1009900000BF444D6D6805F0F0010909484D6B5CDE
:1009A0000568DD4045603F4D6D6805F4E061090A6A
:1009B000434D6B5C4568DD4085603A4D6D6805F4DC
:1009C0006051C90A3E4D6B5C4568DD40C560354DE0
:1009D0006D6805F44041890B3A4D6B5CC568B5FB09
:1009E000F3F5056130BD29B12E4A526902432D4B02
:1009F0005A6104E02B4A526982432A4B5A6170477C
:100A000029B1284A92690243264B9A6104E0254A9B
:100A100092698243234B9A61704729B1214AD26976
:100A20000243204BDA6104E01E4AD26982431D4B27
:100A3000DA61704729B11B4AD2680243194BDA6068
:100A400004E0184AD2688243164BDA60704729B135
:100A5000144A12690243134B1A6104E0114A1269E5
:100A60008243104B1A617047124940390860704741
:100A70000F49C86470470B49C87170470948406AFC
:100A800040F0807007494862704701460020054ADF
:100A900092680A400AB1012000E000207047014935
:100AA00088727047001002400000FFF8FFFFF6FE5A
:100AB000000042428004424200127A0000093D00D8
:100AC000140000202400002031490143314A116004
:100AD000704770B5002100230F22C47804B32D4C59
:100AE000246804F4E064C4F5E064210AC1F104035D
:100AF000CA40447804FA03F1847814402143090180
:100B0000254C0678A155047804F01F050124AC405B
:100B100005786D11AD0005F1E025C5F8004109E04B
:100B2000047804F01F050124AC401C4D06787611B2
:100B300045F8264070BD1A4A0A400243154B1B1F58
:100B40001A60704739B1134A121D12680243114BE3
:100B50001B1D1A6006E00F4A121D126882430D4BDE
:100B60001B1D1A607047042808D14FF0E021096965
:100B700041F004014FF0E022116107E04FF0E02165
:100B8000096921F004014FF0E02211617047000073
:100B90000000FA050CED00E000E400E080E100E078
:100BA00080FFFF1F10B50446FA48844208D1012196
:100BB0004015FFF73FFF00216015FFF73BFF17E0EF
:100BC000F548844208D101210015FFF733FF0021C9
:100BD0002015FFF72FFF0BE0F048844208D10121D8
:100BE000C803FFF727FF00214FF40040FFF722FF63
:100BF00010BD30B50246002000235068E84C20406C
:100C00000D790C6844EA0524204350609068E54C57
:100C10002040D1E902542C434D7944EA4504204355
:100C20009060D06A20F470000C7C641EE4B2234310
:100C300040EA0350D06230BD002101600171417172
:100C40008160C16001210174704721B1826842F066
:100C50000102826003E0826822F001028260704734
:100C600021B1826842F48072826003E0826822F4DB
:100C700080728260704710B50023CBB21AB144680D
:100C80001C43446002E044689C43446010BD81689A
:100C900041F0080181607047014600208A6802F037
:100CA00008020AB1012000E000207047816841F08D
:100CB000040181607047014600208A6802F0040246
:100CC0000AB1012000E00020704721B1826842F49F
:100CD000A002826003E0826822F4A0028260704772
:100CE000014600208A6802F480020AB1012000E077
:100CF0000020704710B50A4600210023416821F406
:100D00006041531E41EA4331416010BD21B1426848
:100D100042F40062426003E0426822F400624260F2
:100D20007047F0B504460D4600200021092D11DD65
:100D3000E068A5F10A0606EB4607072606FA07F162
:100D40008843A5F10A0606EB460603FA06F10843B6
:100D5000E0600CE0206905EB4507072606FA07F17D
:100D6000884305EB450603FA06F108432061072A8C
:100D70000FDA606B561E06EB86071F2606FA07F190
:100D80008843561E06EB860605FA06F108436063A3
:100D900022E00D2A0FDA206BD61F06EB86071F26EE
:100DA00006FA07F18843D61F06EB860605FA06F118
:100DB0000843206310E0E06AA2F10D0606EB860707
:100DC0001F2606FA07F18843A2F10D0606EB8606F8
:100DD00005FA06F10843E062F0BD21B1826842F4F1
:100DE0008012826003E0826822F480128260704781
:100DF0000146C86C80B2704766484C300068704746
:100E000021B1426842F48062426003E0426822F409
:100E100080624260704721B1426842F48052426071
:100E200003E0426822F48052426070470A46002183
:100E3000816821F4E04111438160704721B18268EB
:100E400042F40042826003E0826822F40042826041
:100E5000704721B1826842F40212826003E0826826
:100E600022F4021282607047014600208A6802F470
:100E700000120AB1012000E000207047F0B50446DE
:100E80001546002000220026092911DDE068A1F1A5
:100E90000A0707EB470C072707FA0CF29043A1F16A
:100EA0000A0707EB470703FA07F21043E0600CE07C
:100EB000206901EB410C072707FA0CF2904301EB84
:100EC000410703FA07F210432061A06BC0F30156FB
:100ED000EF1C06F1010CA7EB0C0707EB870C1F2793
:100EE00007FA0CF29043EF1C06F1010CA7EB0C077C
:100EF00007EB870701FA07F21043A063F0BD10B5B6
:100F00000A4600210023816B21F44011531E41EA5F
:100F10000351816310BD08B5002300930090009B2E
:100F20000B440093009B1A6008BD08B502460020E0
:100F30000090009201F12800009B18440090009856
:100F4000006880B208BD0A4600214168164B19406E
:100F50001143416070474162826270470A46002136
:100F6000416821F01F0111434160704740B10949B8
:100F70000831096841F40001064A0832116007E0AF
:100F800004490831096821F40001024A083211605D
:100F9000704700000024014000280140003C01404F
:100FA000FFFEF0FFFDF7F1FFFFFD3FFF02460020CF
:100FB00013680B400BB1012000E000207047CA43CA
:100FC0000260704770B502460020002300240B1217
:100FD0005568CEB205EA060415681D4015B10CB17E
:100FE000012000E0002070BD00220A12D3430360FC
:100FF0007047000010B50120FFF736FD0020FFF715
:1010000033FD10BD2A49086070472949091F08604F
:101010007047274984310860704701460020254AFF
:1010200010884FF67F4210400843224A10807047D4
:10103000014600201F4A10884FF680721040084376
:101040001C4A1080704708B500220092194A2C3AB9
:101050000092009A02440092009A116008BD08B5FF
:1010600001460020009013482C3800900098084456
:1010700000900098008808BD0D489C300068C0B200
:1010800070470C480830008840F0010009490831D9
:10109000088070470648A0300068C0B27047054815
:1010A0000830008840F0020002490831088070478B
:1010B00004860D422C6C0040002044490860091D44
:1010C0000860091D0860091D086041483F49143146
:1010D0000860704700213D498279002A3AD00A46CB
:1010E000126803689A430B461A600A1D1268036867
:1010F0009A430B1D1A60027911440A6803681A4367
:101100000A60324A0832126803689A432F4B083348
:101110001A601A1D126803689A432C4B0C331A602C
:101120004279102A0ED11A1F126803681A43274BFE
:1011300008331A601A1D126803681A43234B0C33D4
:101140001A600DE02149427911440A6803681A4384
:101150000A6005E0027911440A6803689A430A604C
:1011600070470021016001710C21417100218171E2
:1011700070471649103109680143144A1032116052
:10118000704701460020114A143212680A400AB121
:10119000012000E0002070470C49143108607047BE
:1011A000014600200022094B1B6803EA0102074B9D
:1011B00014331B680B4013B10AB1012000E000207A
:1011C0007047024914310860704700000004014074
:1011D000FFFF0F0010B501210807FFF738FC0021C1
:1011E0004FF08050FFF733FC10BD2A49086270476A
:1011F00028490861704701460020274A106820F0FE
:10120000E0000843106070472249A0310860704731
:1012100010B502460020204B186820F00300104350
:1012200018601E4B1B6843F004031C4C236001290B
:1012300001D130BF00E020BF184B1B6823F004032E
:10124000164C236010BD1448006840F00400124999
:1012500008600846006840F0020008600F48006817
:1012600040F004000D49086000BF00BF30BF704768
:1012700001460020084A52680A400AB1012000E0F5
:10128000002070470449096841EA8001024A116060
:101290007047000000000E420070004010ED00E0BA
:1012A00029B1504A128802434E4B1A8004E04D4A3D
:1012B000128882434B4B1A8070474A48001D0088B1
:1012C00040F010004749091D088070474548001D3F
:1012D00000884FF6EF7108404249091D08807047A9
:1012E000002140481C300188001F008841EA00406E
:1012F000704700B50246FFF7E0FF100C394918317E
:101300000880091D0A80FFF7E1FF00BD00B5024615
:10131000FFF7D3FFC2F30340324908310880091DAB
:101320000A80FFF7D3FF00BD00B50246FFF7C5FFF7
:10133000100C2C4920310880091D0A80FFF7C6FFD8
:1013400000BD00202749103109880907080B2549ED
:10135000143109880843704700BF2248001D0088E7
:1013600000F020000028F8D070471E48001D0088BB
:101370004FF6F77108401B49091D088000BF194846
:10138000001D008800F008000028F8D070470146D2
:101390000020144A121D12880A400AB1012000E000
:1013A000002070470F49091D098881430D4A121D0D
:1013B00011807047014600200A4A121D12880A4017
:1013C000D0B2084A12880A4012B108B1012000E0E8
:1013D000002070470349091D09888143014A121DF5
:1013E000118070470028004010B50446FE48844232
:1013F00008D10121C014FFF71DFB0021E014FFF705
:1014000019FBC4E0B4F1804F08D101210846FFF771
:101410001EFB00210120FFF71AFBB8E0F3488442CD
:1014200008D101210220FFF712FB00210220FFF763
:101430000EFBACE0EE48844208D101210420FFF706
:1014400006FB00210420FFF702FBA0E0E9488442EC
:1014500008D101210820FFF7FAFA00210820FFF740
:10146000F6FA94E0E448844208D101211020FFF705
:10147000EEFA00211020FFF7EAFA88E0DF48844204
:1014800008D101212020FFF7E2FA00212020FFF7F8
:10149000DEFA7CE0DA48844208D101214014FFF7EB
:1014A000C9FA00216014FFF7C5FA70E0D5488442FC
:1014B00009D10121C804FFF7BDFA00214FF4002033
:1014C000FFF7B8FA63E0D048844209D1012108054A
:1014D000FFF7B0FA00214FF48010FFF7ABFA56E0A7
:1014E000CA48844209D101214805FFF7A3FA002127
:1014F0004FF40010FFF79EFA49E0C548844208D136
:1015000001214020FFF7A3FA00214020FFF79FFAB6
:101510003DE0C048844208D101218020FFF797FABE
:1015200000218020FFF793FA31E0BB48844208D1C4
:1015300001218015FFF78BFA0021A015FFF787FA2C
:1015400025E0B648844209D101210804FFF772FA68
:1015500000214FF48030FFF76DFA18E0B048844264
:1015600009D101214804FFF765FA00214FF400304A
:10157000FFF760FA0BE0AB48844208D101218804F0
:10158000FFF758FA00214FF48020FFF753FA10BDFF
:1015900000220288944B98420ED0994B98420BD06F
:1015A000B0F1804F08D0914B984205D0904B9842B3
:1015B00002D0904B984204D14FF68F731A404B885B
:1015C0001A438D4B984207D08C4B984204D04FF66B
:1015D000FF431A40CB881A4302808B8883850B888F
:1015E0000385814B98420BD0854B984208D08B4B9A
:1015F000984205D08A4B984202D08A4B984201D13A
:101600000B7A038601238382704770B50024002281
:101610000023058C4FF6FE7635400584028C8388C6
:10162000048B4FF68F752C40B51E2C400D882C4333
:10163000751E2A400D892A434D882A436A4DA842C7
:101640000BD06F4DA84208D0744DA84205D0744D00
:10165000A84202D0734DA84213D14FF6F7752A4025
:101660004D892A434FF6FB752A408D882A434FF651
:10167000FF652B404FF6FF552B408D892B43CD89BD
:101680002B4383800483CD888586028470BD70B52A
:10169000002400220023058C4FF6EF7635400584A8
:1016A000028C8388048B48F6FF752C404FF6FF456B
:1016B0002C400D884FF6FF7606EA05252C434FF6A1
:1016C000DF752A400D8906EA05152A434D8806EA8A
:1016D00005152A43444DA84202D0494DA8421DD1C8
:1016E0004FF67F752A404D894FF6FF7606EA0515BD
:1016F0002A434FF6BF752A408D8806EA05152A430E
:101700004FF6FF352B404FF2FF752B408D8906EACF
:1017100085052B43CD8906EA85052B438380048309
:10172000CD880587028470BD70B500240022002397
:10173000058C4FF6FF6635400584028C8388848BC8
:101740004FF68F752C404FF6FC752C400D882C43BE
:101750004FF6FF552A400D894FF6FF7606EA05251C
:101760002A434D8806EA05252A431F4DA84202D088
:10177000234DA8421DD14FF2FF752A404D894FF6E7
:10178000FF7606EA05252A434FF6FF352A408D8865
:1017900006EA05252A434EF6FF752B404DF6FF75E8
:1017A0002B408D8906EA05152B43CD8906EA0515E0
:1017B0002B4383808483CD888587028470BD70B578
:1017C000002200230024058C4EF6FF763540058468
:1017D000038C8488828B48F6FF752A404FF6FF45BC
:1017E0002A400D8820E00000002C01400004004049
:1017F00000080040000C00400010004000140040B1
:1018000000340140004C01400050014000540140B0
:1018100000180040001C0040002000400040014033
:1018200000440140004801404FF6FF7606EA0525D6
:101830002A434DF6FF752B400D8906EA05352B43EB
:101840004D8806EA05352B43FA4DA84202D0FA4DE1
:10185000A84208D14BF6FF752C408D894FF6FF76D4
:1018600006EA85152C4384808283CD88A0F84050F9
:10187000038470BD828B4FF2FF331A408283828BC8
:101880004FF6FF7303EA01231A4382837047F0B5D2
:101890000C461546002200210026078C4EF6FF7CE0
:1018A00007EA0C070784828B018C4FF6FF7707EA63
:1018B000043640F6FF473A404FF6FF7707EA052720
:1018C0003A434FF6FF7707EA03373A43D94FB84216
:1018D0000ED0D94FB8420BD0B0F1804F08D0D74FBF
:1018E000B84205D0D64FB84202D0D64FB84206D142
:1018F0004DF6FF77394046F48057394305E047F607
:10190000FF57394044F48057394382830184F0BD46
:10191000828B4FF6F3731A408283828B0A43828351
:101920007047F0B50C461546002200210026078CB2
:101930004FF6FF6C07EA0C070784828B018C4FF689
:10194000FF7707EA04264FF60C773A404FF6FF7709
:1019500007EA03172F433A43B64FB8420ED0B64FAB
:10196000B8420BD0B0F1804F08D0B44FB84205D088
:10197000B34FB84202D0B34FB84206D14FF6FF572B
:10198000394046F48077394305E04FF2FF5739403C
:1019900044F48077394382830184F0BD028B4FF297
:1019A000FF331A400283028B4FF6FF7303EA0123D1
:1019B0001A4302837047F0B50C46154600220021F9
:1019C0000026078C4FF6EF7C07EA0C070784028B92
:1019D000018C4FF6FF7707EA041640F6FF473A40BE
:1019E0004FF6FF7707EA03373A434FF6FF7707EAE8
:1019F00005273A438F4FB8420ED08F4FB8420BD0D5
:101A0000B0F1804F08D08D4FB84205D08C4FB8420E
:101A100002D08C4FB84206D14FF6DF77394046F0FE
:101A20001007394305E04FF65F77394044F010075F
:101A3000394302830184F0BD028B4FF6F3731A40E1
:101A40000283028B0A4302837047F0B50C461546A9
:101A500000220021068C4FF6FE773E400684028B62
:101A6000018C4FF60C7632407E1C06EA03162E439C
:101A70003243704EB0420ED06F4EB0420BD0B0F138
:101A8000804F08D06D4EB04205D06D4EB04202D0AE
:101A90006C4EB04206D14FF6FD76314044F001065F
:101AA000314305E04FF6F576314044F0010631430D
:101AB00002830184F0BD70B505460C465D48854241
:101AC0000ED05D4885420BD0B5F1804F08D05B4801
:101AD000854205D05A48854202D05A48854200D1F5
:101AE00000E000BF208850B92389A2886188284679
:101AF000FFF7ABFFE1882846FFF79EFF25E020882F
:101B000004280AD12389A28861882846FFF753FF59
:101B1000E1882846FFF742FF17E0208808280AD10D
:101B20002389A28861882846FFF7FBFEE1882846C2
:101B3000FFF7EEFE09E02389A28861882846FFF7B7
:101B4000A6FEE1882846FFF795FE70BD2DE9F0411D
:101B500005460C4600260127608808B9022600E0E9
:101B60000026A088012801D1022700E00127208853
:101B7000A0B92389A28861882846FFF766FFE1881B
:101B80002846FFF759FF23893A4631462846FFF792
:101B900012FFE1882846FFF701FF13E02389A2889E
:101BA00061882846FFF707FFE1882846FFF7F6FE21
:101BB00023893A4631462846FFF747FFE188284601
:101BC000FFF73AFFBDE8F0810A884B881A438B88FB
:101BD0001A43CB881A430B891A434B891A438B89C2
:101BE0001A43A0F8442070474FF6FF71818000210E
:101BF0000180C180418001727047002101804180D5
:101C00008180C180018141818181C1817047002132
:101C100001804180012181800021C18001817047C4
:101C20000021018041808180C180018141818181C9
:101C300070470000002C01400034014000040040C7
:101C400000080040000C004021B1028842F001026F
:101C5000028004E002884FF6FE731A40028070474B
:101C600031B1B0F8442042F40042A0F8442005E02D
:101C7000B0F84420C2F30E02A0F8442070471AB115
:101C800083890B43838102E083898B43838170477F
:101C90008182704741EA0203A0F8483070471AB1C8
:101CA00083890B43838102E083898B43838170475F
:101CB00001894FF6F8721140018170470A460021F0
:101CC00001894FF68F73194011430181704730B578
:101CD00004460D4629462046FFF7F0FF208940F0D4
:101CE0000700208130BD2DE9F04104460D4616461F
:101CF0001F46602D06D13B46012231462046FFF7A4
:101D00005AFE05E03B46012231462046FFF79DFE84
:101D100029462046FFF7D2FF208940F007002081A6
:101D2000BDE8F08130B50C4600210189C9B24FF6FB
:101D3000FF7505EA0325154325432943018130BD7D
:101D40002DE9F04105460E461746984600244346C5
:101D50003A4631462846FFF7E5FF2C894FF6F870E2
:101D6000044044F007044FF68F70044044F07004C0
:101D70002C81BDE8F081F0B504460D4616461F469D
:101D80003B46324629462046FFF7CCFF208940F4E7
:101D900080402081F0BD0185828270470A46002183
:101DA00001884FF68F731940114301807047F0B5D9
:101DB0000C4615461E460021002200230189028B95
:101DC000038C4FF6F877394021434FF6FC473A40F1
:101DD00040F201173A434FF6DD773B404FF6FF776D
:101DE00007EA06172F433B43018102830384F0BDBA
:101DF0000A460021018B4FF68F731940114301836E
:101E000070470A460021018B48F6FF7319404FF6D0
:101E1000FF7303EA02231943018370470A46002136
:101E2000818B4FF68F7319401143818370470A46A7
:101E30000021818B48F6FF7319404FF6FF7303EAC8
:101E4000022319438183704721B1028842F0800246
:101E5000028004E002884FF67F731A4002807047C8
:101E600021B1828842F00402828004E082884FF629
:101E7000FB731A408280704721B1828842F00802C9
:101E8000828004E082884FF6F7731A4082807047A0
:101E900021B1828842F00102828004E082884FF6FC
:101EA000FE731A40828070470A460021018B4FF66C
:101EB000F77319401143018370470A460021018BD3
:101EC0004FF2FF7319404FF6FF7303EA02231943E1
:101ED000018370470A460021818B4FF6F773194042
:101EE0001143818370470A460021818B4FF2FF73B3
:101EF00019404FF6FF7303EA0223194381837047A9
:101F00000A460021018B4FF6FB73194011430183F0
:101F100070470A460021018B4FF6FF3319404FF6F8
:101F2000FF7303EA02231943018370470A46002125
:101F3000818B4FF6FB7319401143818370470A462A
:101F40000021818B4FF6FF3319404FF6FF7303EAF0
:101F500002231943818370470A460021018B4FF603
:101F60007F7319401143018370470A460021018B9A
:101F7000C1F30E014FF6FF7303EA022319430183F5
:101F800070470A460021818B4FF67F731940114339
:101F9000818370470A460021818BC1F30E014FF601
:101FA000FF7303EA02231943818370470A46002125
:101FB000018C4FF6FD7319401143018470470A46A6
:101FC0000021018C4FF6F7731940114301847047CB
:101FD0000A460021018C4FF6DF7319404FF6FF735C
:101FE00003EA02131943018470470A460021018C59
:101FF0004FF67F7319404FF6FF7303EA021319433C
:10200000018470470A460021018C4FF6FF531940A6
:102010004FF6FF7303EA02231943018470470A460F
:102020000021018C4FF2FF7319404FF6FF7303EA52
:1020300002231943018470470A460021018C4DF6A2
:10204000FF7319404FF6FF7303EA0233194301840B
:10205000704730B5002301248C40A3B2048C9C430C
:102060000484048C02FA01F5ADB22C43048430BD23
:1020700030B5002304248C40A3B2048C9C43048418
:10208000048C02FA01F5ADB22C43048430BD70B566
:102090000346002000241846183001258D40ACB2BC
:1020A0001D8CA5431D8409B1082909D100EB6100ED
:1020B000056825F0700505600568154305600EE0AC
:1020C0000D1FC5F34E052844056825F4E04505605D
:1020D00005684FF6FF7606EA02263543056070BDB7
:1020E00021B1028842F00202028004E002884FF629
:1020F000FD731A400280704721B1028842F0040249
:10210000028004E002884FF6FB731A400280704799
:1021100021B1828842F08002828004E082884FF6FA
:102120007F731A408280704702884FF6F7731A4017
:10213000028002880A430280704782884FF68F73BC
:102140001A40828082880A438280704702894FF653
:10215000F8731A40028102890A430281704702899A
:102160004FF67F731A40028102890A430281704749
:1021700081847047818570478186704701877047E9
:1021800081877047A0F84010704702884FF6FF43E0
:102190001A40028002880A43028070470146888EF6
:1021A00070470146088F70470146888F7047014687
:1021B000B1F8400070470146888C70470146088D91
:1021C000704702460020138A0B400BB1012000E04B
:1021D00000207047CA430282704730B50246002093
:1021E00000230024158A05EA0103958905EA010404
:1021F00013B10CB1012000E0002030BDCA430282BF
:102200007047000010B50446FB48844209D1012103
:102210008803FEF70FFC00214FF48040FEF70AFC14
:1022200032E0F648844209D101214804FEF70FFC50
:1022300000214FF40030FEF70AFC25E0F04884420C
:1022400009D101218804FEF702FC00214FF480200F
:10225000FEF7FDFB18E0EB48844209D10121C804D8
:10226000FEF7F5FB00214FF40020FEF7F0FB0BE03A
:10227000E548844208D101210805FEF7E8FB00216A
:102280004FF48010FEF7E3FB10BD2DE9F04786B058
:1022900005460E460024A24600BFA1460027B0898D
:1022A00000B100BF2F462C8A4CF6FF700440F08826
:1022B00004432C82AC894EF6F3100440B088318977
:1022C0000843718908430443AC81AC8A4FF6FF4050
:1022D0000440B0890443AC8201A8FEF724FBC64841
:1022E000874202D1DDF810A001E0DDF80CA0A8893A
:1022F00000F4004040B10AEBCA0000EB0A1031685C
:102300004900B0FBF1F807E00AEBCA0000EB0A1045
:1023100031688900B0FBF1F86420B8FBF0F00401EB
:102320002009642101FB1089A88900F4004040B114
:10233000322000EBC900B0FBF1F000F007000443CD
:1023400008E0322000EB09106421B0FBF1F000F04E
:102350000F0004432C8106B0BDE8F0874FF41651FE
:10236000016000218180C18001810C214181002117
:102370008181704710B502460020108A4FF2FF039A
:1023800018400B884C8823438C882343CC882343F4
:102390001843108210BD0021018041808180C180DE
:1023A000704721B1828942F40052828104E082891F
:1023B0004DF6FF731A4082817047F0B50346002442
:1023C00000260025002040F66A17B94200D100BF60
:1023D0001846C1F3421401F01F06012707FA06F55B
:1023E000012C01D10C3004E0022C01D1103000E0AE
:1023F00014301AB107682F43076002E00768AF4343
:102400000760F0BD1AB1838A0B43838202E0838A9E
:102410008B4383827047028A4FF6F0731A40028220
:10242000028A0A430282704782894FF2FF731A4080
:10243000828182890A438281704721B1828942F078
:102440000202828104E082894FF6FD731A40828184
:102450007047028A4FF6DF731A400282028A0A43EB
:102460000282704721B1028A42F48042028204E073
:10247000028A4BF6FF731A4002827047C1F30802CA
:102480008280704701468888C0F3080070478189C0
:1024900041F0010181817047028BD2B20283028B2D
:1024A00042EA012202837047028B02F47F420283D8
:1024B000028B0A430283704721B1828A42F02002D4
:1024C000828204E0828A4FF6DF731A40828270476C
:1024D00021B1828A42F01002828204E0828A4FF6A1
:1024E000EF731A408282704721B1828A42F008025B
:1024F000828204E0828A4FF6F7731A408282704724
:1025000021B1828942F40042828103E08289C2F3D0
:102510000E028281704721B1828A42F40062828277
:1025200004E0828A4FF2FF731A4082827047828AE7
:102530004FF6FB731A408282828A0A438282704776
:1025400021B1828A42F00202828204E0828A4FF63E
:10255000FD731A408282704702460020B1F5007F69
:1025600000D100BF13880B400BB1012000E0002018
:10257000704701F40072B2F5007F00D100BFCA437A
:102580000280704770B50246002400230025002019
:1025900040F66A16B14200D100BFC1F3421501F006
:1025A0001F03012606FA03F3012D02D19689334059
:1025B00006E0022D02D1168A334001E0968A3340AC
:1025C0000C12012606FA04F41688344013B10CB13B
:1025D000012000E0002070BD10B50022002340F66D
:1025E0006A14A14200D100BF0A1201249440A3B290
:1025F000DC43048010BD000000380140004400406E
:1026000000480040004C004000500040002109E01C
:10261000002201E0531C9AB240F6B8339A42F9DB2B
:102620004B1C99B28142F3DB70474FF40072FA4BB6
:102630001A6052101A6020221B1F1A60F74AD060DD
:1026400020221B1D1A601B1F1A60D2001A60F34A59
:10265000D16020221B1D1A601B1F1A60D2001A6055
:10266000704700B501210020FFF7DFFF4FF47A70BB
:10267000FFF7CCFF00210120FFF7D7FF41F2907157
:102680001020FFF7D2FF4FF41C516020FFF7CDFF61
:1026900001216120FFF7C9FF02214620FFF7C5FF96
:1026A00048F210011320FFF7C0FF48F2FE0112208C
:1026B000FFF7BBFF4FF4A0610220FFF7B6FF41F226
:1026C00030010320FFF7B1FF40F203313020FFF764
:1026D000ACFF40F203313120FFF7A7FF40F2033196
:1026E0003220FFF7A2FF4FF440713320FFF79DFF28
:1026F00003213420FFF799FF40F203313520FFF723
:1027000094FF14213620FFF790FF40F20331372069
:10271000FFF78BFF40F203313820FFF786FF40F2CE
:1027200003313920FFF781FF4FF440713A20FFF762
:102730007CFF03213B20FFF778FF40F203313C2070
:10274000FFF773FF4FF4A0513D20FFF76EFF4FF4EA
:1027500000719220FFF769FF40F203319320FFF7E9
:1027600064FF40F60D019020FFF75FFF41F2180172
:102770000320FFF75AFF40F273110720FFF755FFC0
:1027800000BD00B543F20801E320FFF74EFF122120
:10279000E720FFF74AFF41F23121EF20FFF745FF25
:1027A00000210120FFF741FF4FF4E0610220FFF715
:1027B0003CFF41F230010320FFF737FF00210420E6
:1027C000FFF733FF40F207210820FFF72EFF00211B
:1027D0000920FFF72AFF00210A20FFF726FF00212A
:1027E0000C20FFF722FF00210D20FFF71EFF002124
:1027F0000F20FFF71AFF00211020FFF716FF072117
:102800001120FFF712FF00211220FFF70EFF002119
:102810001320FFF70AFF4FF47A70FFF7F7FE41F23B
:1028200090611020FFF701FF40F227211120FFF7F0
:10283000FCFE3220FFF7EAFE1D211220FFF7F5FE15
:102840003220FFF7E3FE4FF400611320FFF7EDFEA7
:1028500014212920FFF7E9FE0B212B20FFF7E5FECD
:102860003220FFF7D3FE00212020FFF7DEFE0021FB
:102870002120FFF7DAFE07213020FFF7D6FE40F2D5
:1028800007713120FFF7D1FE06213220FFF7CDFE80
:1028900040F204713520FFF7C8FE41F6047136207E
:1028A000FFF7C3FE04213720FFF7BFFE00213820C9
:1028B000FFF7BBFE40F206713920FFF7B6FE40F28B
:1028C00001713C20FFF7B1FE0F213D20FFF7ADFE67
:1028D00000215020FFF7A9FEEF215120FFF7A5FEB0
:1028E00000215220FFF7A1FE40F23F115320FFF7D5
:1028F0009CFE4FF41C516020FFF797FE01216120E0
:10290000FFF793FE00216A20FFF78FFE0021802051
:10291000FFF78BFE00218120FFF787FE0021822038
:10292000FFF783FE00218320FFF77FFE0021842034
:10293000FFF77BFE00218520FFF777FE1021902016
:10294000FFF773FE00219220FFF76FFE0321932013
:10295000FFF76BFE4FF488719520FFF766FE0021AC
:102960009720FFF762FE00219820FFF75EFE41F2FC
:1029700018010320FFF759FE40F273110720FFF7FB
:1029800054FE00BD08B54FF6FF70ADF800000320FF
:102990008DF8020010208DF8030069461F48FDF7EE
:1029A00073FD08BD08B54FF6FF70ADF800000320B9
:1029B0008DF8020048208DF8030069461748FDF79E
:1029C00063FD08BD70B504464FF4007012490860FD
:1029D000401008602020091F08601048C4602020B3
:1029E000091D0860091F0860C0000860FFF7DAFFD2
:1029F0004FF48060084908600848806885B208156F
:102A0000091F0860FFF7BEFF4FF400700249091F5D
:102A10000860284670BD0000140C01400010014001
:102A200008B501211820FDF7EBFF01212020FDF75B
:102A3000E7FF4FF4E460ADF8000001208DF80200DC
:102A400010208DF803006946F848FDF71DFDFFF7DB
:102A500099FFF6481030006840F4C460F349103123
:102A6000086008BD10B5FFF7DBFF0020FFF7AAFFE5
:102A7000EF4908800846008848F23021884202D198
:102A8000FFF7EFFD01E0FFF77CFE0020FFF79AFF64
:102A9000E749088010BD01B5BDF80000E549088090
:102AA00008BD01B5BDF80000E349088008BD30B598
:102AB00004460D4621462020FFF7B7FD2946212078
:102AC000FFF7B3FD30BD4FF40071D84A14321160E6
:102AD0004910121F116020211160D849C8602021BF
:102AE000121D1160121F1160C900116049001160B0
:102AF00070474FF40070CD491431086040100860F1
:102B00002020091F08602220CC49C8602020C74926
:102B100014310860091F0860C000086040000860A8
:102B200070472DE9F04306468946174600240025E4
:102B3000A046B04649464046FFF7B9FF00BF1EE039
:102B4000FFF7D7FF00250FE037F814000121A94057
:102B5000084020B9B8480088FFF7B5FF03E0B54842
:102B60000088FFF7B0FF6D1C102DEDD308F10100B8
:102B700000F0FF0849464046FFF799FF641C182CF7
:102B8000DED3BDE8F08370B505460E461446A4F1C9
:102B90002000C4B204EB4400A94901EB0012314605
:102BA0002846FFF7BEFF70BDF0B507460C4600256E
:102BB00040F23F1609E0227831463846FFF7E3FF3E
:102BC000A6F1100086B2641C6D1C207808B1142D8B
:102BD000F1D3F0BD10B504469AA12046FFF7E4FFFB
:102BE00010BD30B50546002400210846FFF75FFF01
:102BF000FFF77FFF00BF03E02846FFF764FF641C78
:102C0000B4F5963FF8D330BDF0B504460D461646F0
:102C10001F46B44206DBA01B401C81B25020FFF7C8
:102C200004FD03E000215020FFF7FFFC2146512066
:102C3000FFF7FBFCBD4206DBE81B401C81B25220C3
:102C4000FFF7F3FC03E000215220FFF7EEFC2946DA
:102C50005320FFF7EAFC29462046FFF728FFF0BD86
:102C600000B54FF4A073F022591EEF20FFF7CCFF00
:102C700041F218010320FFF7D8FC00BD2DE9F04117
:102C80000646884615461F46002441463046FFF753
:102C90000EFF5FB9FFF72DFF00BF04E06548008815
:102CA000FFF711FF641CAC42F8D310E000240CE0E5
:102CB000FFF71FFF5F480088FFF705FF701CC6B2D3
:102CC00041463046FFF7F3FE641CAC42F0D3BDE84A
:102CD000F081F0B505460E4617461C4600232246F5
:102CE00031462846FFF7CAFFE919C8B20023224639
:102CF0003146FFF7C3FF01233A4631462846FFF726
:102D0000BDFF301B401C81B201233A462846FFF725
:102D1000B5FFF0BD2DE9F04306460F46904603206F
:102D2000A0EB4809002445466EE07A1991B23219A9
:102D3000D0B2FFF7BCFEFFF7DCFE3E480088FFF78D
:102D4000C2FE7A1B91B23219D0B2FFF7B0FEFFF784
:102D5000D0FE38480088FFF7B6FE7A1991B2321BD0
:102D6000D0B2FFF7A4FEFFF7C4FE32480088FFF799
:102D7000AAFE7A1B91B2321BD0B2FFF798FEFFF782
:102D8000B8FE2C480088FFF79EFE3A1991B27219DE
:102D9000D0B2FFF78CFEFFF7ACFE26480088FFF7A5
:102DA00092FE3A1B91B27219D0B2FFF780FEFFF784
:102DB000A0FE20480088FFF786FE3A1991B2721BE8
:102DC000D0B2FFF774FEFFF794FE1A480088FFF7B1
:102DD0007AFE3A1B91B2721BD0B2FFF768FEFFF782
:102DE00088FE14480088FFF76EFEB9F1000F04DA80
:102DF000062000EB8400814405E0601B0A2101EB02
:102E0000800081446D1E641CAC428ED9BDE8F08305
:102E100070B506460024002540F23F110020FFF760
:102E200046FEFFF766FE00BF2DE00000000C0140EB
:102E30002C000020280000202A0000200010014063
:102E4000A456000820202020202020202020202000
:102E500020202020202020200000000000250FE05E
:102E600056F824000121A940084020B95F48008895
:102E7000FFF729FE03E05E480088FFF724FE6D1C83
:102E8000202DEDD3641CB4F5166FE7D370BD70B57B
:102E90000446002500266688A08846EA0046658923
:102EA000A08945EA0045701B46082C4441F2080100
:102EB0000320FFF7BAFBFFF71CFE002504E0208883
:102EC000FFF701FEA41C6D1CB542F8D341F21801B6
:102ED0000320FFF7AAFB70BD10B54FF40070454901
:102EE0000860401008602020091F08602220424925
:102EF000C86020203F490860091F0860C0000860C2
:102F0000FFF750FD4FF480603A4908603A48806806
:102F100084B20815091F0860FFF734FD4FF40070F4
:102F20003449091F0860204610BD00B5002110205B
:102F3000FFF77BFB00211120FFF777FB0021122018
:102F4000FFF773FB00211320FFF76FFB1420FFF73F
:102F50005DFB41F2B0711020FFF767FB40F23711C3
:102F60001120FFF762FB0520FFF750FB40F23911FB
:102F70001220FFF75AFB0520FFF748FB4FF4E851FA
:102F80001320FFF752FB13212920FFF74EFB0520EA
:102F9000FFF73CFB40F273110720FFF746FB00BD33
:102FA00000B540F273110720FFF73FFB00BD00B5ED
:102FB00000210720FFF739FB00BD30B50546002191
:102FC0000846FFF774FDFFF794FD002409E015F8AB
:102FD00014206100491C695C42EA0120FFF773FD7F
:102FE000641CB4F5963FF2DB30BD00002A000020DF
:102FF00028000020140C01400010014010B50028EA
:1030000007DA0A07140E594A00F00F031B1FD454A5
:1030100003E00A07130E564A135410BD55490860C1
:1030200000BF544909680029FBD17047C2B0002491
:10303000514800684FF47A71B0FBF1F5B5F1807F2B
:1030400000D311E025F07F40401E4FF0E0214861A1
:103050000F214FF0FF30FFF7D1FF00204FF0E021AC
:1030600088610720086100BF4FF4A060FDF72CFDC8
:103070000021481EFFF7C2FFC820FFF7CFFFFFF770
:10308000F1FC1F20FFF7ADFD1F20FFF70AFD4FF6F3
:10309000FF70FFF700FD00F0BBFA00F041F900F00F
:1030A000BDFC00F0C7F800F0A3F900F003FF00F04A
:1030B00011FD00F021FC42F2107000F0B3FB00F0B3
:1030C000DFFA012000F075F90446601CC4B2214605
:1030D000012000F057F9642000F039F945E0274855
:1030E0000078002841D000202449087000F0E3F85F
:1030F0002348006802F04AFA05462A460B4621A1F9
:1031000002A800F0EDFE02A91820FFF74DFD2246AF
:1031100023A102A800F0E4FE02A93020FFF744FD3D
:10312000254800780090254803782548027825A195
:1031300002A800F0D5FE02A94820FFF735FD25487A
:10314000026825A102A800F0CBFE02A96020FFF7CB
:103150002BFD2748026827A102A800F0C1FE02A9A2
:103160007820FFF721FD00F048FDB8E718ED00E0FA
:1031700000E400E030000020000000205C0000209F
:103180003400002041443A252E326656202020206B
:1031900020202020202020202020202000000000AF
:1031A000307830313A256420202020202020202033
:1031B0002020202020202000550000205400002046
:1031C00053000020252E32643A252E32643A252EF3
:1031D000326400004800002054494D324672657147
:1031E0003A2564487A20202020202020200000005A
:1031F0004C000020447574793A2564252520202050
:10320000202020202020202020000000704700BF28
:10321000FEE700BFFEE700BFFEE700BFFEE7704726
:103220007047704702480068401E014908607047B7
:103230003000002000B587B001214FF40270FDF787
:10324000DFFB0120ADF8180000208DF81B0006A957
:103250002E48FDF719F9002001908DF808008DF82F
:1032600009004FF4602003900020049008208DF89E
:10327000140001A92648FDF7BCFC07230122082100
:103280002348FDF74EFD01212148FDF7DEFC2048D3
:10329000FDF7FDFC00BF1E48FDF7FEFC0028FAD13B
:1032A0001B48FDF703FD00BF1948FDF704FD00288A
:1032B000FAD107B000BD2DE9F05F4FF0000A0121FF
:1032C0001348FDF702FD00BF02211148FDF76EFE15
:1032D0000028F9D00E48FDF78BFD8246504602F0DB
:1032E00081F9834602F052F980464FF06632094B6D
:1032F00002F04EF806460022074B01F0F1FE0446AC
:1033000001F0BCFE05490860BDE8F09F000C0140DB
:103310000024014066660A400000B04034000020EE
:1033200008B501210920FDF76BFB01211248FDF7CB
:103330007CF91020ADF8000003208DF80200102069
:103340008DF8030069460D48FDF79EF808BD10B5DD
:103350000446002210210948FDF747F91420B4FB68
:10336000F0F00749087010BD10B501221021034884
:10337000FDF73BF910BD000000013000000C0140DA
:103380003800002070B505460C4600F0A1FCA020D6
:1033900000F038FD00F0D8FC284600F033FD00F0C6
:1033A000D3FC204600F02EFD00F0CEFC00F0AEFC79
:1033B00070BD70B5044600F08BFCA02000F022FD2B
:1033C00000F0C2FC204600F01DFD00F0BDFC00F046
:1033D0007FFCA12000F016FD00F0B6FC00F03EFDE1
:1033E000054600F0F8FC00F091FC284670BD000096
:1033F0001FB501210D20FDF703FB0120ADF80400EE
:1034000004208DF8070001A97B48FDF73DF8002155
:103410000846FDF74FF90120029000208DF80C00BE
:103420000C208DF80D0001208DF80E0002A8FDF78C
:1034300051FE06208DF8000001208DF801000020CB
:103440008DF8020001208DF803006846FDF741FB6E
:103450000120ADF8040004208DF8070001A966489A
:10346000FDF712F808210020FDF724F94FF48070D1
:10347000029000208DF80C000C208DF80D0001202A
:103480008DF80E0002A8FDF725FE17208DF800002C
:1034900001208DF801008DF802008DF803006846C8
:1034A000FDF717FB0220ADF8040004208DF807009B
:1034B00001A95148FCF7E8FF01210846FDF7FAF899
:1034C0000220029000208DF80C000C208DF80D00D9
:1034D00001208DF80E0002A8FDF7FCFD07208DF8F5
:1034E000000001208DF8010002208DF8020001206B
:1034F0008DF803006846FDF7ECFA0420ADF80400EF
:103500008DF8070001A93C48FCF7BEFF022101200D
:10351000FDF7D0F80420029000208DF80C000C205C
:103520008DF80D0001208DF80E0002A8FDF7D2FDE8
:1035300008208DF8000001208DF8010003208DF88F
:10354000020001208DF803006846FDF7C2FA1FBD96
:1035500010B50120FDF724FE68B11420FFF75EFDD1
:1035600001212548FDF730F810B96420FFF7EFFE80
:103570000120FDF726FE10BD10B54FF48070FDF759
:103580000FFE78B11420FFF749FD4FF480711A48FF
:10359000FDF71AF810B96420FFF7D9FE4FF48070D8
:1035A000FDF70FFE10BD10B50220FDF7F9FD68B163
:1035B0001420FFF733FD02211048FDF705F810B97C
:1035C0006420FFF7C4FE0220FDF7FBFD10BD10B51F
:1035D0000420FDF7E5FD68B11420FFF71FFD04216D
:1035E0000648FCF7F1FF10B96420FFF7B0FE042095
:1035F000FDF7E7FD10BD000000080140000C014090
:1036000010B50446224604211B48FCF7EEFF10BD0E
:1036100008B501213020FDF7F3F90420ADF80000D2
:1036200003208DF8020010208DF80300694612482F
:10363000FCF72AFF4FF47F40ADF8000069460F48C1
:10364000FCF722FF0120FFF7DBFF4FF47F410B481F
:10365000FCF7D0FF0020FFF7D3FF08BD10B50446EC
:103660000120FFF7CDFF21460448FCF7C3FF0020EF
:10367000FFF7C6FF10BD000000140140001001401C
:1036800000B589B001210846FDF7C7F901210420E2
:10369000FDF7B6F90220ADF8140004208DF81700EC
:1036A00003208DF8160005A95548FCF7EDFE4820CB
:1036B000ADF804004FF6FF70ADF808000020ADF83B
:1036C0000A00ADF8060001A94FF08040FDF760FF49
:1036D0001C208DF8100000208DF8110001208DF8BD
:1036E00012008DF8130004A8FDF7F3F90420ADF8DB
:1036F00018000020ADF81A000120ADF81C000020D1
:10370000ADF81E00ADF8200006A94FF08040FEF78E
:103710001DFA01218807FEF797FA01220421080704
:10372000FEF7ADFA09B000BD10B504210807FEF799
:1037300054FD012863D104218007FEF75FFD314865
:10374000008868B94FF08040FEF72BFD2E490880B5
:1037500001202C49088002218007FEF739FC4EE049
:103760002848008801280DD18007FEF71AFD274957
:10377000088000214FF08040FEF72AFC02202149FA
:1037800008803CE01F480088022838D14007FEF737
:1037900008FD1F490880084600881B49098888429F
:1037A00007DD1B48008818490988401A1949086034
:1037B00009E0154800884FF6FF71081A1449098876
:1037C000084414490860134800681349B1FBF0F03D
:1037D000124908600D4800880B490988401A642185
:1037E00048430C490968B0FBF1F00D49086000211D
:1037F0004FF08040FEF7BCFC00200249088010BD5D
:1038000000080140420000203C0000204000002051
:103810003E0000204400002040420F0048000020ED
:103820004C00002010B588B0044601210220FDF7AD
:10383000F4F801210520FDF7E3F8C020ADF81C00E5
:1038400018208DF81F0003208DF81E0007A92748B7
:10385000FCF71AFE0020ADF810002548B0FBF4F08C
:1038600080B2ADF814000020ADF81600ADF81200DB
:1038700004A92048FDF78CFE6020ADF8000001206F
:10388000ADF802001A48B0FBF4F00A21B0FBF1F0E9
:1038900080B2ADF806000020ADF808006946154872
:1038A000FDF7B3FE08211348FEF7FEFA0120ADF83C
:1038B00002000F48B0FBF4F00A21B0FBF1F000EB7E
:1038C000C00080B2ADF8060069460A48FDF7DFFE89
:1038D00008210848FEF7F1FA01210648FEF7B4FA7C
:1038E00001210448FEF7B0F908B010BD00080140FE
:1038F00000A24A040004004008B503208DF800002F
:1039000000208DF801008DF8020001208DF80300E1
:103910006846FDF7DEF801214FF0C050FDF77DF855
:103920000120FDF762FCFDF765FB0120FCF7EEFFCF
:1039300000BF6120FCF739FF0028FAD04FF4007077
:10394000FCF7E7FF0120FCF7EAFFFDF70EFDFDF7AE
:1039500003FD01210846FDF7A3FCFDF7FDFC49F638
:103960004040FDF7D3FCFDF7F7FC244909784FF4FC
:1039700061625143224A1278C2EB021201EB8201CA
:10398000204A12788818FDF7B4FCFDF7E5FC08BD65
:1039900010B50120FDF70EFD70B3FDF7A1FC1A492B
:1039A0000860084600681949884204D10020FDF7E4
:1039B000A0FCFDF7D1FC144800684FF46161B0FB36
:1039C000F1F013490870104800684FF46161B0FBD2
:1039D000F1F201FB12003C21B0FBF1F00D4908703F
:1039E000094800683C21B0FBF1F201FB12000A49D2
:1039F00008700120FDF7EEFC10BD00005000002013
:103A00005100002052000020580000207F5101008A
:103A10005300002054000020550000201FB5012154
:103A20000420FCF7FAFF1E208DF8000002208DF81C
:103A3000010000208DF8020001208DF80300684687
:103A4000FDF747F84720ADF8080044F61F60ADF8D1
:103A500004000020ADF80A00ADF8060001A91948DD
:103A6000FDF796FD01211748FEF7EEF801221146F9
:103A70001448FEF704F91FBD10B501211148FEF7E7
:103A8000ACFBE8B101210F48FEF7B8FB0E48007807
:103A9000401C0D490870084600780A2805DB012003
:103AA0000A4908700020084908700948007810B9D0
:103AB000FFF75AFC04E006480078401E04490870ED
:103AC00010BD0000000800405D0000205C000020E8
:103AD0003800002000B587B001214804FCF79DFFA5
:103AE00001210520FCF78CFF0820ADF8040004201C
:103AF0008DF8070001A94B48FCF7C6FC0420ADF87F
:103B0000040003208DF8060018208DF8070001A995
:103B10004448FCF7B9FC26208DF8180000208DF8E9
:103B2000190002208DF81A0001208DF81B0006A84C
:103B3000FCF7CFFF4FF4165002900020ADF80C00B8
:103B4000ADF80E00ADF81000ADF814000C20ADF883
:103B5000120002A93448FEF798FB012240F22551D9
:103B60003148FEF72AFC002240F227712E48FEF76A
:103B700024FC01212C48FEF714FC07B000BD10B551
:103B800040F225512848FEF7FDFCB0B12648FEF76B
:103B900079FCC1B225480478601C244A107024487E
:103BA00001551046007823490978884205D1002242
:103BB00040F225511C48FEF700FC40F227711A48DC
:103BC000FEF7E0FCC0B11C480478601C1A4A107073
:103BD0001A48015D1448FEF751FC1748007818494F
:103BE0000978884208D1002240F227710E48FEF77A
:103BF000E4FB01201349087010BD10B500BF114847
:103C000000780028FBD063200D49087000200A4985
:103C100008700C490870012240F227710248FEF733
:103C2000CCFB10BD0008014000440040C300002050
:103C3000C8000020C5000020C20000205E00002057
:103C4000C4000020C600002008B58020ADF80000A8
:103C500002208DF8020028208DF8030069469F4855
:103C6000FCF712FC08BD08B58020ADF8000002206A
:103C70008DF8020010208DF8030069469748FCF784
:103C800003FC08BD10B5044624B180219348FCF71D
:103C9000A8FC03E080219148FCF7A5FC10BD10B5FD
:103CA000044624B140218D48FCF79BFC03E04021F1
:103CB0008A48FCF798FC10BD10B580218748FCF7B6
:103CC00076FC10BD002100E0491C8142FCD3704706
:103CD00010B50120FFF7D6FF4FF4FA70FFF7F2FF9F
:103CE0000120FFF7DCFF4FF4FA70FFF7EBFF002035
:103CF000FFF7C8FF4FF4FA70FFF7E4FF0020FFF76B
:103D0000CEFF4FF4FA70FFF7DDFF10BD10B50020B5
:103D1000FFF7C5FF4FF4FA70FFF7D4FF0020FFF75D
:103D2000B1FF4FF4FA70FFF7CDFF0120FFF7B7FFA7
:103D30004FF4FA70FFF7C6FF0120FFF7A3FF4FF41F
:103D4000FA70FFF7BFFF10BD10B50524FFF77CFF29
:103D50004FF4FA70FFF7B6FF0120FFF7A0FF4FF412
:103D6000FA70FFF7AFFF0CE0601E84B24FF4FA70F8
:103D7000FFF7A8FF2CB9FFF776FFFFF7C7FF00207A
:103D800010BDFFF799FF0028EED1FFF76CFF002070
:103D9000FFF785FF4FF4FA70FFF794FF0120EFE77C
:103DA00010B50020FFF76EFF4FF4FA70FFF78AFF9F
:103DB0004FF4FA70FFF786FF0120FFF770FF4FF412
:103DC000FA70FFF77FFF0020FFF769FF4FF4FA70EA
:103DD000FFF778FF10BD10B50120FFF753FF4FF438
:103DE000FA70FFF76FFF0120FFF759FF4FF4FA70E9
:103DF000FFF768FF0020FFF752FF4FF4FA70FFF75C
:103E000061FF10BD70B5044608251BE00020FFF7D8
:103E100046FF4FF4FA70FFF755FF04F08000FFF7FC
:103E200031FF4FF4FA70FFF74DFF6006040E4FF4B8
:103E3000FA70FFF747FF0120FFF731FF4FF4FA70E8
:103E4000FFF740FF281EA5F10101CDB2DED1FFF73B
:103E500026FF4FF4FA70FFF735FF70BD70B50825E7
:103E60000024FFF7F1FE16E06006040E0020FFF7C5
:103E700016FF4FF4FA70FFF725FF4FF4FA70FFF7C3
:103E800021FF0120FFF70BFF4FF4FA70FFF71AFF35
:103E9000FFF712FF0443281EA5F10101CDB2E3D1C3
:103EA000FFF7FDFE4FF4FA70FFF70CFFFFF7DBFEA4
:103EB000204670BD08B501210820FCF7A1FDC020F7
:103EC000ADF8000002208DF8020010208DF80300EC
:103ED00069460248FCF7D8FA08BD0000000C014012
:103EE0000FB41CB5074B06AA7B44694600900598A1
:103EF00000F03DFB0020694600F04CFB1CBC5DF867
:103F000014FB0000A90600002DE9F041064600243C
:103F100010687529314616A510D0AFF3008000282F
:103F200002DA404213A507E031688A0701D512A5DD
:103F300002E0490704D511A5012401E0AFF3008098
:103F400000210A2206F1240709E0B0FBF2FCB0FBD5
:103F5000F2F302FB1C00303078541846491C00284C
:103F6000F3D123462A463046BDE8F04100F092B82E
:103F7000000000002D0000002B00000020000000C9
:103F80002DE9F0474FF0000A89460446C0F820A00A
:103F90002046E1688847002876D0252806D0D4E955
:103FA00001219047206A401C2062F1E7E168204629
:103FB00000258847C4F81CA006460027C4F818A0AE
:103FC0002A2E09D0304601F03CF838B304EB8708BC
:103FD000303EC8F8186019E059F8041B204604EB7D
:103FE00087029161E1688847012F064618D1E06990
:103FF000002820DA25F020051DE0D8F8180000EB95
:10400000800006EB40003038C8F818002046E16810
:104010008847064601F015F80028EED1012F0AD096
:104020002E2E08D12046E16888477F1C0646022FC5
:1040300045F02005C4DBA069002803DA404245F0C2
:104040000105A061E80701D025F01005B6B1A6F181
:104050004100192802D8203645F400654A46314609
:10406000204625604D46FCF77BF858B1012806D064
:10407000ED1D25F0070000F1080989E704E005F1CE
:10408000040985E730468AE7206ABDE8F087704773
:10409000704770472DE9F0470D4699469246044611
:1040A00000F124080168880604D5E06921F01001B8
:1040B000216000E00120A84201DD471B00E000274D
:1040C000A1697A1902EB0900081AA0612078C006DC
:1040D00002D42046AFF30080002608E0D4E9012195
:1040E0001AF806009047206A401C761C20624E4554
:1040F000F4DB2078C0060AD52046AFF3008006E046
:10410000D4E9012130209047206A401C2062381EEB
:10411000A7F10107F4DC07E0D4E9012118F8050054
:104120009047206A401C2062281EA5F10105F3DC9F
:104130002046AFF300802078000602D50220BDE8BB
:10414000F0870120FBE770472DE9FF4F0C461E4624
:104150004FF0FF378BB0D2E90001DDF860800A90A4
:104160008A46C1F30A5505B93D46002108464FF07D
:104170000000BAF1000F00F4400005DA00EB800007
:104180004FF4400101EA50004FEA9059B9F1010F94
:1041900000DDB9460A9850EA4A000ED044F61050A5
:1041A000A5F2FF3545432F14B8F1000F1ED075421C
:1041B000291E1EDDC9F100021CE0B8F1010F4FF00D
:1041C000000001D0302103E0F24305E02154401CFF
:1041D000B042FBDB30460022002121540B99C1F88C
:1041E0000880C1E900200FB0BDE8F08FBD1B6D1C39
:1041F000DEE74A4600DA694206A800F05BFA06AB41
:1042000093E8070003AB83E8070050460A9900F0E3
:104210003CFB8DE80700A0F500501F380090039884
:10422000002D0ADD42F21F014A460844002303A97B
:104230000390684600F0A5FD09E0A0F500504A464D
:104240001F38002303A90390684600F0AFFD8DE8F6
:1042500007000004000C03D04FF0FF30410800E0DD
:104260001046B8F1000F03D00022009215461EE060
:10427000751E05D400F098F9303262556D1EF9D5DF
:10428000B3460122084302D000227F1C04E02078BC
:10429000302801D100227F1E002A099784D01DE01A
:1042A000112D07DA00F080F9303262556D1C50EAAA
:1042B0000102F5D1084302D00098C8B10EE00021F8
:1042C000681E05E0235C625C63542254401E491C56
:1042D0008142F7DBAB46A81B401E0990002004F882
:1042E0000B000B98099AC0F80880C0E9002B7AE708
:1042F00011264FF0000857E72DE9F04F8846044695
:10430000D21D22F0070191B0D1E90001CDE90A01E7
:1043100000F083FE02460B98C00F01D02D2007E06D
:104320002068810701D52B2002E0202101EAC0008E
:10433000032A099001D0072A05DB0346414620469F
:1043400000F078F90BE12078800601D5E06900E003
:104350000620B8F1650F814606D0B8F1660F18D077
:10436000B8F1670F70D131E00020B9F1110F009062
:1043700001DB112301E009F101030AAA01A90CA83C
:10438000FFF7E2FEDDE90C70002609F10105834626
:1043900047E001204B4600904FF000470AAA01A9D0
:1043A0000CA8FFF7D1FEDDE90DB00C995D460026A3
:1043B00010B909F101000D18B9EB050003D4C0F1E3
:1043C000FF3609F10105A5EB09002BE0B9F1010F5A
:1043D00001DA4FF001090020B9F1110F00904846B1
:1043E00001DD112300E003460AAA01A90CA8FFF78A
:1043F000ABFEDDE90C704D460026834620780007B1
:104400000AD4AB4500DA5D4601A8012D04DD41194F
:1044100011F8011C302907D04F4502DA17F1040FBB
:1044200004DA012082460FE06D1EEEE7002F02DC69
:10443000ED1B3E4403E0781CA84200DD7D1CB81B48
:1044400000F1010A4FF000472078000703D4AA4585
:1044500001DB4FF0FF3A0021B7F1004F0DF14308A7
:104460008DF8431024D002202B23002F01DA7F4245
:104470002D230A21021EA0F1010000DC5FB197FB91
:10448000F1FC97FBF1F201FB1C7C17460CF1300CA0
:1044900008F801CDEEE7A8F10100037021880905B5
:1044A00001D5452100E06521A0F1010800F8011CBB
:1044B00009980FA9A1EB0807FF1D00B101204119C0
:1044C00001EBEA70A1693844081A401EA061207807
:1044D000C00602D42046AFF30080099828B1D4E981
:1044E00001219047206A401C20622078C00622D516
:1044F0002046AFF300801EE0002E04DBB34502DD52
:1045000001A8805D00E03020D4E901219047206AB5
:10451000401C2062761CAAF101005FEA000A0AD161
:1045200000F03EF8C0680168405CD4E90121904782
:10453000206A401C2062281EA5F10105DCDC07E092
:10454000D4E9012118F8010B9047206A401C206231
:10455000381EA7F10107F3DC2046AFF300800320EB
:1045600011B041E601694A1C02610878704700B544
:104570008FB0CDE901310021059105497944CDE99C
:10458000031011466846FFF7FBFC0FB000BD0000AA
:10459000E5FFFFFF0A6802F8010B0A6070470000A0
:1045A000004870474C01002030B5B0F10A024FEAD4
:1045B000900E71F100034EEA817EB0EB0E0061EBCC
:1045C00091014FEA101E4EEA017E10EB0E0041EB06
:1045D00011114FEA102E4EEA016E10EB0E0041EB66
:1045E00011214FEA104E4EEA014E10EB0E0041EB46
:1045F0001141401841F100014FEAD00040EA4170FA
:104600004FEAD10110EB80054FEA810444EA90742F
:1046100044EB01046D1944EB0404521BA3414FF019
:10462000000348BF0A3200D530BD401C41F10001F3
:1046300030BD00002DE9F0411F4604460326016805
:10464000072A01F4006004DB08B116A505E016A5F1
:1046500003E008B115A500E015A521F010002060C9
:10466000A069C01EA0610FB1401EA0612046AFF33B
:1046700000804FB1D4E9012138469047206A401CA0
:104680002062C01C206206E0206AFAE7D4E901211A
:1046900015F8010B9047761EF8D22046AFF3008044
:1046A000BDE8F0814E414E006E616E00494E4600FD
:1046B000696E66002DE9F047814616468AB0354896
:1046C00078440DC88DE80D0032487844801C03AC56
:1046D0000DC884E80D0041F69B300844372190FB5B
:1046E000F1F290FBF1F5A5F1800501FB12041B3CF2
:1046F00002D56442012000E00020DFF898A0804647
:104700000027FA44AAF1BE0A0EE0E0070AD03246BA
:10471000684607EB470101230AEB810100F046FBE5
:104720008DE8070064107F1C002CEED1194F7F44E8
:10473000AE3F19E0E80715D007EB04100DF1180A99
:1047400090E80E008AE80E00C068F04201D1981986
:1047500008903246012306A903A800F027FB03AB0B
:1047600083E807006D10641C002DE3D14FF00103B6
:1047700032466946B8F1000F03A802D000F001FBF1
:1047800001E000F013FBC9E90001C9F808200AB0F4
:10479000BDE8F0872C220000004870472C01002063
:1047A0007546FFF7F9FFAE4605006946534620F00F
:1047B0000700854618B020B5FBF704FDBDE8204092
:1047C0004FF000064FF000074FF000084FF0000BCD
:1047D00021F00701AC46ACE8C009ACE8C009ACE880
:1047E000C009ACE8C0098D46704710B50446AFF368
:1047F00000802046BDE81040FBF7CFBC4FF0013CE5
:1048000050F8042B51F8043B9A4221D1A2EB0C033F
:10481000934313EACC1317D150F8042B51F8043BFF
:104820009A4215D1A2EB0C03934313EACC130BD19C
:1048300050F8042B51F8043B9A4209D1A2EB0C0327
:10484000934313EACC13DBD04FF00000704700BF56
:10485000D01A01BAB1FA81F101F0180122FA01F07F
:10486000CB40C1F12001DBB2C0B2C01A2CFA01F377
:10487000D11A914311EAC311E6D1704701491820BA
:10488000ABBEFEE72600020070475FEA400C08BF9F
:1048900091F0000F4FEA8C234FEAC12243EA5151B5
:1048A0004FEA1C5018BF00F5F0404FEA300018BF27
:1048B00041F000415FEA6C5C00F02980BCF1FF3FF1
:1048C00008BF40F080407047130C06BF12044FF041
:1048D000100C4FF0000C130E04BF12020CF1080C68
:1048E000130F04BF12010CF1040C930F04BF9200CC
:1048F0000CF1020CD30F04BF52000CF1010C114655
:104900004FF00002A0F11F00A0EB0C00704711F067
:10491000004F08BF704731F000413FF4D5AF0B0C9A
:1049200006BF09044FF0100C4FF0000C0B0E04BF33
:1049300009020CF1080C0B0F04BF09010CF1040C67
:104940008B0F04BF89000CF1020CCB0F04BF490090
:104950000CF1010CCCF12003A0EB0C0022FA03F3C4
:1049600002FA0CF241EA030100F10100704720F065
:104970007F4C80EA030023F07F47ACEB070303F58D
:104980007C5300F0004003F1FF032DE980494FEA1A
:10499000154B09B44FEA144325EA0B4E24EA0348A9
:1049A0000FF2042606EB132749083E785FEA32022D
:1049B00003FB0667C7F5000707FB06F64FEA543707
:1049C0004FEAD64606F1020607FB066CCCF1005C06
:1049D0004FEA1C472CEA074C07FB06F40CFB06F5D4
:1049E00004EB15464FEA961634BF00204FF0004006
:1049F0004FEAD13706FB07FC4FEA1C4C0CFB0BF7C8
:104A0000D21B03FB0CF761EB07010CFB0EF7B0EBBD
:104A1000074072EB17420CFB08F734BFA2EB0742CA
:104A2000B2EB074261EB17414FEA0C444FEA9107A2
:104A300006FB07FC4FEA1C4C0CFB0BF7B0EBC74026
:104A400072EB573203FB0CF734BFA2EBC742B2EB59
:104A5000C74261EB57310CFB0EF7B0EBC70072EBAE
:104A600057720CFB08F734BFA2EBC702B2EBC702C8
:104A700061EB5771039F4FEA816141EA921104EBA8
:104A8000CC044FEAD1374FEA826206FB07FC42EAC8
:104A900090124FEA80604FEA1C4C0CFB0BF7D21BC4
:104AA00003FB0CF761EB07010CFB0EF7B0EB0740C3
:104AB00072EB17420CFB08F734BFA2EB0742B2EBD4
:104AC000074261EB17414FEA8C554FEA910704EB1F
:104AD0009C2406FB07FC4FEA1C4C0CFB0BF7B0EBCD
:104AE000C74072EB573203FB0CF734BFA2EBC7424F
:104AF000B2EBC74261EB57310CFB0EF7B0EBC700CE
:104B000072EB57720CFB08F734BFA2EBC702B2EB93
:104B1000C70261EB577115EB4C254FEA816141EA01
:104B200092114FEA82624FEAD13742EA901206FBB5
:104B300007FC44F100044FEA80604FEA1C4C0CFB78
:104B40000BF7D21B03FB0CF761EB07010CFB0EF715
:104B5000B0EB074072EB17420CFB08F734BFA2EB37
:104B60000742B2EB074261EB174115EB1C154FEA08
:104B7000813141EA92414FEA823242EA90424FEA61
:104B800080304FEA0C7644F1000448EA03434EEAD1
:104B90000B484FF0000EB2EB080C71EB030724BF7B
:104BA000624639464EEB0E0E4FF0000B0018524194
:104BB00049414BEB0B0BB2EB080C71EB03077BF19C
:104BC000000B24BF624639464EEB0E0E4FF0000B31
:104BD0000018524149414BEB0B0BB2EB080C71EB47
:104BE00003077BF1000B24BF624639464EEB0E0EE5
:104BF00051EA020718BF46F0010616EB0E7655F192
:104C0000000254F1000103D5BDE88901BDE8008828
:104C1000BDE88901BDE80048B619524141EB0101E8
:104C2000A3F10103704780807F7E7D7C7B7A797859
:104C3000777676757473727171706F6E6E6D6C6C61
:104C40006B6A6A6968686766666564646363626103
:104C50006160605F5F5E5E5D5D5C5C5B5B5A5A5984
:104C600059585857575656555555545453535252F0
:104C70005251515050504F4F4F4E4E4D4D4D4C4C48
:104C80004C4B4B4B4A4A4A49494948484847474791
:104C900047464646454545444444444343434342CE
:104CA000424242414141002B9C4630D477002BD0F8
:104CB0001CB54FEA370703B44FF010004FF0100156
:104CC000BAF1000F06D0BCF1000FDCBF40F00800C5
:104CD00040F008014FF000000FBCBDE810400BF1A0
:104CE000010BBBF1010F08BF5FEA170722BF12F1EA
:104CF000010211F101014FF0004143F1000300F006
:104D0000004043EA00007047F9D35708D0E746EA6D
:104D1000064613F1400F4FEA16461FDD13F1200F30
:104D2000DFBF16430A46002120335B42BED0C3F1E9
:104D3000200746EA064602FA07F74FEA164646EA11
:104D40000706C3F1200722FA03F201FA07F721FA56
:104D500003F14FF0000342EA0702A7E746EA020622
:104D600046EA06464FEA164646EA0106BCBF46EA50
:104D70000646360C4FF000034FF000024FF00001E2
:104D800094E72DE9804C9A46934670B491E8380038
:104D900007C831EA400C48BF34EA430C03D5FFF79B
:104DA000E6FDFFF780FFF0BCBDE8008C2DE9804CEC
:104DB0009A46934670B491E8380007C810F0804FC7
:104DC00008BF13F0804F03D100F005F8FFF76BFF29
:104DD000F0BCBDE8008C20F07F4780EA030023F0A0
:104DE0007F4C07EB0C03A3F57C5300F00040A3F1CC
:104DF000FE0392F0000F00F0B38095F0000F00F07A
:104E000077802DE901494FEA11404FEA144621EA23
:104E1000004800FB06FC24EA064708FB06F607FBF1
:104E200008F800FB07F718EB06484CEB164C4FEA66
:104E3000124B18EB07484FEA15464CEB174022EA95
:104E40000B4E0BFB06FC25EA06470EFB06F607FB9E
:104E50000EFE0BFB07F71EEB064E4CEB164C4FF00D
:104E600000061EEB074E4CEB174B18EB0B0840F1FE
:104E7000000018EB0E0B58EB000840F100008F1AF1
:104E80004FF000013CBFC943661B14BFB5EB040CD7
:104E900000213CBFC943F61B4FEA17444EEA8E0E71
:104EA00027EA04454FEA1C4704FB07622CEA074C3B
:104EB00005FB07F70CFB05F604FB0CFC16EB07469D
:104EC00042EB174216EB0C4642EB1C421BEB06066C
:104ED00058EB0202414146EA9E0601D5BDE8018930
:104EE000B619524141EB0101A3F10103BDE801896B
:104EF0004FEA14454FEA114724EA054621EA074CD8
:104F000005FB07F406FB07F70CFB06F105FB0CFCA1
:104F100011EB074144EB17444FEA124711EB0C41E8
:104F200044EB1C4422EA074C05FB07F206FB07F79B
:104F30000CFB06F605FB0CFC16EB074642EB174292
:104F400016EB0C4642EB1C456A1854F1000148BFB1
:104F50007047B619524141EB0101A3F101037047BB
:104F600095F0000F37D04FEA11424FEA144721EA7B
:104F7000024624EA074C02FB07F106FB07F70CFB8D
:104F800006F402FB0CFC14EB074441EB17414FEA1B
:104F9000154714EB0C4441EB1C4125EA074C02FB7E
:104FA00007F506FB07F70CFB06F602FB0CFC16EBFD
:104FB000074645EB174516EB0C4645EB1C4212190C
:104FC00051F1000148BF7047B619524141EB010150
:104FD000A3F1010370474FEA14454FEA114724EA51
:104FE000054621EA074C05FB07F106FB07F70CFB1A
:104FF00006F24FF0000605FB0CFC12EB074241EBFA
:10500000174112EB0C4251EB1C4148BF70479218FC
:1050100041EB0101A3F101037047490050EAC120AF
:1050200018BF04204A0D18BF40F0010040F2FF7283
:10503000B2EB515F08BF40F00200012808BF052015
:10504000704730380A2801D201207047002070478D
:1050500010B500290AD00878002807D00548784400
:10506000FFF7CCFB002801D0002010BD0248784497
:1050700010BD0000CA180000C218000021F0004254
:10508000A2F16052B2F5801F01F0004328BFD2F1B7
:105090007F6C0BD95FEA001C43EAC20242EB5070FE
:1050A00018BF704728BF20F001007047B2F5801F7D
:1050B000BCBF184670474FEA410C1CF5001F02D2D6
:1050C000084600F0E8BA70B500F00CFA000000895C
:1050D000FFF7F6BF4FF00040A0F5800070470000DA
:1050E0002DE9C04130B4DFF8A0C23CEA111418BF6A
:1050F0003CEA131400F0EC8081EA03051CEA111469
:1051000044EAD57418BF1CEA131500F0C780A4EB5D
:1051100005044FF0004545EAC12145EAC32341EAB1
:10512000505143EA525304F17F74994204F500341C
:105130004FEAC0204FEAC22208BF904200F09C8094
:105140004FEA13650FF24016765D4FEA134506FBF2
:1051500005F7C7F1807706FB07F74FEAD737A7FBBC
:1051600003687642C8F58038A7FB06CE38BFA8F1A1
:10517000010807FB08E64FF0000EA6FB028CE6FBD9
:1051800003CEDCF1000CCEF1004E38BFAEF1010EC3
:10519000A6FB0C584FF000074FF00005E6FB0E870A
:1051A000A1FB08C6A0FB07CE16EB0E0645F10005D5
:1051B000E1FB076515F1E04E7EBFA4F580345FEAA0
:1051C00046066D4116F1800745F100054FEA1727A5
:1051D0004FEA066647EA0567A6F1DE46B6F1805F4C
:1051E0004FEA15251FD9384624F0010C05EBC47190
:1051F000BCF1FE6F01EB0C1102D8F0BCBDE80081E0
:1052000024425CBF01F5801E9EEAC47F02D4F0BC3C
:10521000BDE80081244238D4F0BCA1F1C041BDE812
:10522000004100F0ADB94FEAD22242EA43524FEAC0
:10523000D323A7FB02864FEAD02040EA415007FB68
:1052400003661EEA0E0F4FEAD12105FB026658BF26
:10525000A6EB0056B6EB00564FEA520E4EEAC37E5E
:1052600018EB0E0E56EB530EBDD518EB02085E413F
:105270007F1C55F10005B6E74FF480154FF000078D
:105280004FF000064FF00008ADE7F0BC4FF0000013
:1052900001F1C04101F00041BDE8008111EA0C1F9D
:1052A0000CEA131500D00CE013EA0C1F00F0258067
:1052B0004FF00000F0BC81EA030101F00041BDE8BD
:1052C0000081F0BCBDE8004181EA030100F058B95B
:1052D000F0BCBDE8004170B500F004F9097EFC3E69
:1052E00000F007B881EA03014FF0000001F000412F
:1052F000704781EA030100F043B9F0BCBDE800410A
:105300004FF0000021497047FFFDFBF9F7F5F4F27B
:10531000F0EEEDEBE9E8E6E4E3E1E0DEDDDBDAD850
:10532000D7D5D4D3D1D0CFCDCCCBCAC8C7C6C5C4AE
:10533000C2C1C0BFBEBDBCBBBAB9B8B7B6B5B4B3C5
:10534000B2B1B0AFAEADACABAAA9A8A8A7A6A5A4B0
:10535000A3A3A2A1A09F9F9E9D9C9C9B9A99999874
:105360009797969595949393929191908F8F8E8E17
:105370008D8C8C8B8B8A89898888878786858584A4
:1053800084838382828181800000FF070000F87F90
:10539000DFF848C170B51CEA111E1EBF1CEA1315C8
:1053A0009EEA0C0F95EA0C0F00F06F8081EA03046F
:1053B00023EA4C134EEAD47E21EA4C1141F48011C9
:1053C00043F48013AE44A1FB024CA0FB0365AEF195
:1053D0007F7E361955EB0C05A1FB034C4CF1000305
:1053E000A0FB021C16EB0C06654153F100030942B9
:1053F00018BF46F0010613F4007F0BD14FEA0331CA
:105400004FEA0530340341EA155140EA16506FF077
:1054100003020AE04FEAC3214FEAC520F40241EA41
:10542000555140EA56506FF0020202EB2E4201EB5A
:10543000025585EACE710AD05FEA440C18BF24F009
:10544000004450F1000041F1000120EAD47040F224
:10545000FE7C624500D270BDA84214BF4FF080446C
:105460004FF04044002E08BF0024BEF1806FA8BF5B
:10547000A1F1C041BDE8704080F282804FF0000091
:1054800001F1C04101F0004170479EEA0C0F0CEAA7
:10549000131518BF95EA0C0F06D04FF0000081EAF3
:1054A000030E0EF0004170BD00F01CF88900013EB3
:1054B00000F007B800F009B84FEA430C5FEA5C5C03
:1054C00008D081EA030100F05BB84FEA410C5FEAC3
:1054D0005C5CF6D14FF00000014970470000FF0707
:1054E0000000F87F0EF1020E2EF0030E5EF8046B42
:1054F000364205D4012A43EB030515F5001F12D8E7
:10550000012841EB010C1CF5001F0CD80ED14FEA0D
:10551000D17C15F5001F0CEB4C0C0CF1020C08BFF4
:105520004CEBD37C04E04FF0080C01E04FEAD37C55
:105530000CEB4C0526FA05F606F00706B6F1040C4E
:1055400006D20EEB860CBDE870404CF0010C6047B3
:10555000DFE80CF0090B02024FF000414FF00000B1
:10556000A1F5002170BD19461046012851EB010438
:1055700018BFD4F5001484BF002001F0004170BDB5
:105580000808A0F500114FEA3101704743004FEAC7
:10559000D30C4FEA3C0C43401FBF40070CF1605155
:1055A00013F0FE4F70471CF0006F03D100200CF089
:1055B000004170470CF0004343EA507010B540EAD8
:1055C000CC0000F022F800BF000000924FEA00017A
:1055D000FFF7D6BF4FF000414FF00000A1F50021CA
:1055E00070470000B0FA80F310FA03F2C3F19D0394
:1055F0000AD0D90501EB1220530638BF704700F1DD
:10560000010008BF20F0010070470EF1020E2EF0DD
:10561000030E5EF8044B244204D44FEA4102B2F177
:105620007F4F11D84FEA4003B3F17F4F0CD80ED112
:105630004FEAD07CB2F17F4F0CEB4C0C0CF1020C1A
:1056400008BF4CEBD17C04E04FF0080C01E04FEABE
:10565000D17C0CEB4C0324FA03F404F00704B4F1FE
:10566000040C06D20EEB840CBDE810404CF0010C8B
:105670006047DFE80CF0070802024FF00040A0F599
:10568000800010BD0846420018BFD2F1807288BF6A
:1056900000F0004010BDFF2141EAD050C005704726
:1056A000FEF72ABE0000000000000000000000001D
:1056B00000000000000000000000000000000000EA
:1056C00000000000000000000000000000000000DA
:1056D0000000000000008001800180018001800145
:1056E00080018001800180018001800180018001B2
:1056F00000000000800180010000000000000000A8
:105700000000000000000000CC00CC00CC00CC0069
:10571000CC00CC00000000000000000000000000F1
:105720000000000000000000000000000000000079
:105730000000000000000000000000000000000069
:10574000600C600C600C30063006FE1FFE1F300639
:1057500038071803FE1FFE1F180318038C018C0165
:105760008C01000000008000E003F80F9C0E8C1CF0
:105770008C188C009800F801E007800E801C8C18B3
:105780008C189C18B80CF00FE0038000800000001B
:10579000000000000000000000000E181B0C110C9F
:1057A00011061106110311039B018E01C038C06C54
:1057B00060446044304430441844186C0C38000095
:1057C000000000000000E001F0033807180618068A
:1057D0003003F001F000F8009C310E33061E061C69
:1057E000061C063FFC73F0210000000000000000D2
:1057F00000000000000000000C000C000C000C0079
:105800000C000C0000000000000000000000000080
:105810000000000000000000000000000000000088
:10582000000000000000000200038001C000C00072
:105830006000600030003000300030003000300088
:105840003000300060006000C000C0008001000334
:1058500000020000000020006000C0008001800104
:10586000000300030006000600060006000600060E
:10587000000600060003000380018001C0006000F4
:1058800020000000000000000000000000000000F8
:10589000C000C000D806F807E00130033807000058
:1058A00000000000000000000000000000000000F8
:1058B00000000000000000000000000000000000E8
:1058C00080018001800180018001FC3FFC3F80015C
:1058D00080018001800180010000000000000000C4
:1058E00000000000000000000000000000000000B8
:1058F00000000000000000000000000000000000A8
:105900000000000000008001800100010001800013
:105910000000000000000000000000000000000087
:10592000000000000000000000000000E007E007A9
:105930000000000000000000000000000000000067
:105940000000000000000000000000000000000057
:105950000000000000000000000000000000000047
:10596000000000000000C000C000000000000000B7
:10597000000000000000000C000C000600060006FD
:105980000003000300038003800180018001C00048
:10599000C000C000600060000000000000000000C7
:1059A000000000000000E003F007380E180C0C188F
:1059B0000C180C180C180C180C180C180C180C18C7
:1059C000180C380EF007E003000000000000000093
:1059D00000000000000000018001C001F0019801FA
:1059E00088018001800180018001800180018001A7
:1059F00080018001800180010000000000000000A3
:105A0000000000000000E003F80F180C0C180C1840
:105A100000180018000C000600038001C0006000A0
:105A200030001800FC1FFC1F0000000000000000F8
:105A3000000000000000E001F807180E0C0C0C0C30
:105A4000000C0006C003C007000C001800180C185A
:105A50000C18180CF807E00300000000000000001C
:105A6000000000000000000C000E000F000F800D71
:105A7000C00C600C600C300C180C0C0CFC3FFC3F94
:105A8000000C000C000C000C0000000000000000E6
:105A9000000000000000F80FF80F180018000C00BC
:105AA000EC03FC071C0E001C0018001800180C1852
:105AB0001C0C180EF807E0030000000000000000B6
:105AC000000000000000C007F00F381C1818180074
:105AD0000C00CC03EC0F3C0E1C1C0C180C180C1802
