:020000040800F2
:100000004804002001010008F51A0008F71A00084A
:10001000FB1A0008FF1A0008031B0008000000007C
:10002000000000000000000000000000091B0008A4
:10003000071B0008000000000B1B00080D1B000838
:100040001B0100081B0100081B0100081B01000820
:100050001B0100081B0100081B0100081B01000810
:100060001B0100081B0100081B0100081B01000800
:100070001B0100081B0100081B0100081B010008F0
:100080001B0100081B0100081B0100081B010008E0
:100090001B0100081B0100081B0100081B010008D0
:1000A0001B0100081B0100081B0100081B010008C0
:1000B0001B0100081B0100081B0100081B010008B0
:1000C0001B0100081B0100081B0100081B010008A0
:1000D0001B0100081B0100081B0100081B01000890
:1000E0001B0100081B0100081B010008DFF80CD0F1
:1000F00001F0E8FF00480047AD190008480400205F
:100100000648804706480047FEE7FEE7FEE7FEE7B1
:10011000FEE7FEE7FEE7FEE7FEE7FEE70302000874
:10012000ED0000080CB50020019000906C480068BC
:1001300040F480306A49086000BF6948006800F4F4
:10014000003000900198401C0190009818B9019867
:10015000B0F5A06FF1D16248006800F4003010B132
:100160000120009001E0002000900098012843D178
:100170005C48006840F010005A4908600846006872
:1001800020F0030008600846006840F002000860A4
:1001900053484068524948600846406848600846ED
:1001A000406840F4806048600846406820F47C1055
:1001B00048600846406840F4E81048600846006817
:1001C00040F08070086000BF4548006800F0007093
:1001D0000028F9D04248406820F0030040494860B8
:1001E0000846406840F00200486000BF3C48406854
:1001F00000F00C000828F9D10CBD10B5FFF792FFF4
:1002000010BD10B53648006840F001003449086060
:10021000084640683449084031494860084600684B
:10022000324908402E4908600846006820F48020C2
:1002300008600846406820F4FE0048604FF41F0044
:100240008860FFF7DAFF4FF000602949086010BDB1
:1002500010B5002100200022214B5B6803F00C0147
:1002600021B1042906D0082928D107E0214B224CCE
:10027000236027E01F4B204C236023E0184B5B6872
:1002800003F47010164B5B6803F48032022303EB17
:10029000904022B9194B4343174C23600DE0104B9B
:1002A0005B6803F4003323B1144B4343124C2360C7
:1002B00003E0104B4343104C236003E00D4B0E4C06
:1002C000236000BF00BF064B5B68C3F303130C4CF5
:1002D000E15C094B1B68CB40074C236010BD00005C
:1002E00000100240002002400000FFF8FFFFF6FE71
:1002F00008ED00E000127A000000002000093D0037
:100300000400002010B50446CC48844208D10121E5
:10031000042000F02DFB0021042000F029FB46E022
:10032000C748844208D10121082000F021FB0021A8
:10033000082000F01DFB3AE0C248844208D10121A8
:10034000102000F015FB0021102000F011FB2EE022
:10035000BD48844208D10121202000F009FB002182
:10036000202000F005FB22E0B848844208D101219A
:10037000402000F0FDFA0021402000F0F9FA16E0DC
:10038000B348844208D10121802000F0F1FA002115
:10039000802000F0EDFA0AE0AE48844207D1012146
:1003A000801500F0E5FA0021A01500F0E1FA10BD7B
:1003B00010B50121084600F0DBFA0021012000F011
:1003C000D7FA10BD2DE9F041024600250026002095
:1003D00000230024002791F803C00CF00F0591F8CA
:1003E00003C00CF0100CBCF1000F03D091F802C058
:1003F0004CEA050591F800C0BCF1000F31D014683B
:1004000000202BE04FF0010C0CFA00F3B1F800C013
:100410000CEA03069E4220D183004FF00F0C0CFA29
:1004200003F7BC4305FA03FC4CEA040491F803C04B
:10043000BCF1280F06D14FF0010C0CFA00FCC2F8F9
:1004400014C00AE091F803C0BCF1480F05D14FF089
:10045000010C0CFA00FCC2F810C0401C0828D1D3D3
:100460001460B1F800C0BCF1FF0F34DD5468002007
:100470002EE000F1080C4FF0010808FA0CF3B1F877
:1004800000C00CEA03069E4221D183004FF00F0CFE
:100490000CFA03F7BC4305FA03FC4CEA040491F898
:1004A00003C0BCF1280F05D100F1080C08FA0CF8C4
:1004B000C2F8148091F803C0BCF1480F07D100F1D5
:1004C000080C4FF0010808FA0CF8C2F81080401C24
:1004D0000828CED35460BDE8F0814FF6FF7101804B
:1004E000022181700421C170704702460020936888
:1004F0000B400BB1012000E00020704701468868E6
:1005000080B2704702460020D3680B400BB1012037
:1005100000E0002070470146C86880B27047016162
:100520007047416170470AB1016100E04161704765
:10053000C16070474FF480320A43826181618261F9
:1005400082698269704702460020434B18684FF663
:100550008073184040EA021008433F4B1860704710
:100560003E49C8617047F0B50A46002300240021C7
:10057000002500F00046B6F1004F02D1364EF16979
:1005800001E0354E7168C0F3034583B200F44016B4
:10059000B6F5401F08D121F070612F4E766826F025
:1005A00070662D4F7E6012E000F48016B6F5801F55
:1005B00006D1032606FA05F4A14341F0706106E076
:1005C000460D360103FA06F6B14341F0706122B1DF
:1005D000460D360103FA06F6314300F00046B6F147
:1005E000004F02D11C4EF16101E01B4E7160F0BD65
:1005F00030B500228B071C0F0F2303FA04F2164BB1
:1006000008338C1053F824309343134C08348D1066
:1006100044F8253023468C1053F824308C07240FDF
:1006200000FA04F423430C4C08348D1044F82530B0
:1006300030BD0A49DC310860704700000008014005
:10064000000C01400010014000140140001801405E
:10065000001C014000200140000001400000204239
:10066000DF48006840F00100DD4908600846406846
:10067000DC490840DA49486008460068DA49084021
:10068000D74908600846006820F4802008600846C2
:10069000406820F4FE0048604FF41F0088607047F7
:1006A000CF49096821F48031CD4A116011460968AB
:1006B00021F480211160B0F5803F03D0B0F5802F88
:1006C0000ED106E0C649096841F48031C44A116080
:1006D00007E0C349096841F4A021C14A116000E064
:1006E00000BF00BF704710B5014600220023002064
:1006F0004A11012A02D1BA4C236806E0022A02D12B
:10070000B74C236A01E0B64C636A01F01F02012472
:1007100094401C400CB1012000E0002010BD38B511
:10072000002000900024002500BF3120FFF7DBFFF0
:1007300005460098401C00900098B0F5A06F01D0CD
:10074000002DF2D03120FFF7CEFF08B1012400E0E8
:100750000024204638BD01460020A14A106820F040
:10076000F80040EAC10010607047A0490860704777
:10077000024600209A4B586820F47C1042EA01039C
:100780001843974B58607047984908667047014670
:100790000020934A506820F00300084350607047DF
:1007A0008F48406800F00C007047014600208C4ADA
:1007B000506820F0F0000843506070470146002068
:1007C000874A506820F4E060084350607047014653
:1007D0000020834A506820F4605040EAC100506015
:1007E000704729B17E4A527A02437D4B5A7204E027
:1007F0007B4A527A82437A4B5A7270477B49D8318E
:100800000860704701460020754A506820F4404057
:100810000843506070470021714A20321170704ABD
:1008200082F82010012802D004280AD104E0012116
:100830006B4A2032117005E00521694A203211709F
:1008400000E000BF00BF7047694908607047644915
:10085000096A0143624A1162704765494439086078
:10086000704730B500210022002400235C4D6D68E4
:1008700005F00C0121B1042905D0082923D105E098
:100880005C4D056022E05B4D05601FE0544D6D68D6
:1008900005F47012524D6D6805F48034022505EBA5
:1008A00092421CB9544D554305600BE04C4D6D68A8
:1008B00005F400351DB1504D5543056002E04D4D26
:1008C0005543056002E04B4D056000BF00BF444D3D
:1008D0006D6805F0F0010909484D6B5C0568DD4065
:1008E00045603F4D6D6805F4E061090A434D6B5C5E
:1008F0004568DD4085603A4D6D6805F46051C90A70
:100900003E4D6B5C4568DD40C560354D6D6805F456
:100910004041890B3A4D6B5CC568B5FBF3F5056149
:1009200030BD29B12E4A526902432D4B5A6104E071
:100930002B4A526982432A4B5A61704729B1284A8F
:1009400092690243264B9A6104E0254A92698243E8
:10095000234B9A61704729B1214AD2690243204B47
:10096000DA6104E01E4AD26982431D4BDA617047A6
:1009700029B11B4AD2680243194BDA6004E0184AD5
:10098000D2688243164BDA60704729B1144A126963
:100990000243134B1A6104E0114A12698243104B5F
:1009A0001A61704712494039086070470F49C8649E
:1009B00070470B49C87170470948406A40F0807021
:1009C00007494862704701460020054A92680A407C
:1009D0000AB1012000E00020704701498872704789
:1009E000001002400000FFF8FFFFF6FE0000424248
:1009F0008004424200127A0000093D0014000020E9
:100A00002400002031490143314A1160704770B51C
:100A1000002100230F22C47804B32D4C246804F471
:100A2000E064C4F5E064210AC1F10403CA404478DB
:100A300004FA03F18478144021430901254C067817
:100A4000A155047804F01F050124AC4005786D1110
:100A5000AD0005F1E025C5F8004109E0047804F097
:100A60001F050124AC401C4D0678761145F8264040
:100A700070BD1A4A0A400243154B1B1F1A6070478B
:100A800039B1134A121D12680243114B1B1D1A6023
:100A900006E00F4A121D126882430D4B1B1D1A609F
:100AA0007047042808D14FF0E021096941F00401A2
:100AB0004FF0E022116107E04FF0E021096921F0D9
:100AC00004014FF0E0221161704700000000FA05B8
:100AD0000CED00E000E400E080E100E080FFFF1F9B
:100AE000002109E0002201E0531C9AB240F6B8331D
:100AF0009A42F9DB4B1C99B28142F3DB70474FF409
:100B00000072FA4B1A6052101A6020221B1F1A60E2
:100B1000F74AD06020221B1D1A601B1F1A60D200EA
:100B20001A60F34AD16020221B1D1A601B1F1A6035
:100B3000D2001A60704700B501210020FFF7DFFFE7
:100B40004FF47A70FFF7CCFF00210120FFF7D7FFA9
:100B500041F290711020FFF7D2FF4FF41C5160203A
:100B6000FFF7CDFF01216120FFF7C9FF02214620D9
:100B7000FFF7C5FF48F210011320FFF7C0FF48F24E
:100B8000FE011220FFF7BBFF4FF4A0610220FFF728
:100B9000B6FF41F230010320FFF7B1FF40F203310D
:100BA0003020FFF7ACFF40F203313120FFF7A7FF01
:100BB00040F203313220FFF7A2FF4FF4407133209F
:100BC000FFF79DFF03213420FFF799FF40F2033127
:100BD0003520FFF794FF14213620FFF790FF40F2F5
:100BE00003313720FFF78BFF40F203313820FFF746
:100BF00086FF40F203313920FFF781FF4FF4407147
:100C00003A20FFF77CFF03213B20FFF778FF40F2FB
:100C100003313C20FFF773FF4FF4A0513D20FFF755
:100C20006EFF4FF400719220FFF769FF40F203312D
:100C30009320FFF764FF40F60D019020FFF75FFF60
:100C400041F218010320FFF75AFF40F27311072009
:100C5000FFF755FF00BD00B543F20801E320FFF7A1
:100C60004EFF1221E720FFF74AFF41F23121EF202A
:100C7000FFF745FF00210120FFF741FF4FF4E0613E
:100C80000220FFF73CFF41F230010320FFF737FF5E
:100C900000210420FFF733FF40F207210820FFF76F
:100CA0002EFF00210920FFF72AFF00210A20FFF76D
:100CB00026FF00210C20FFF722FF00210D20FFF767
:100CC0001EFF00210F20FFF71AFF00211020FFF761
:100CD00016FF07211120FFF712FF00211220FFF756
:100CE0000EFF00211320FFF70AFF4FF47A70FFF781
:100CF000F7FE41F290611020FFF701FF40F227213B
:100D00001120FFF7FCFE3220FFF7EAFE1D21122022
:100D1000FFF7F5FE3220FFF7E3FE4FF400611320EA
:100D2000FFF7EDFE14212920FFF7E9FE0B212B2010
:100D3000FFF7E5FE3220FFF7D3FE00212020FFF76A
:100D4000DEFE00212120FFF7DAFE07213020FFF729
:100D5000D6FE40F207713120FFF7D1FE0621322086
:100D6000FFF7CDFE40F204713520FFF7C8FE41F6D3
:100D700004713620FFF7C3FE04213720FFF7BFFEC2
:100D800000213820FFF7BBFE40F206713920FFF743
:100D9000B6FE40F201713C20FFF7B1FE0F213D206D
:100DA000FFF7ADFE00215020FFF7A9FEEF215120F3
:100DB000FFF7A5FE00215220FFF7A1FE40F23F11F0
:100DC0005320FFF79CFE4FF41C516020FFF797FE65
:100DD00001216120FFF793FE00216A20FFF78FFEBB
:100DE00000218020FFF78BFE00218120FFF787FE86
:100DF00000218220FFF783FE00218320FFF77FFE82
:100E000000218420FFF77BFE00218520FFF777FE7D
:100E100010219020FFF773FE00219220FFF76FFE54
:100E200003219320FFF76BFE4FF488719520FFF7A5
:100E300066FE00219720FFF762FE00219820FFF751
:100E40005EFE41F218010320FFF759FE40F27311D4
:100E50000720FFF754FE00BD08B54FF6FF70ADF850
:100E6000000003208DF8020010208DF80300694671
:100E70001F48FFF7A7FA08BD08B54FF6FF70ADF899
:100E8000000003208DF8020048208DF80300694619
:100E90001748FFF797FA08BD70B504464FF4007085
:100EA00012490860401008602020091F086010489F
:100EB000C4602020091D0860091F0860C000086088
:100EC000FFF7DAFF4FF4806008490860084880683F
:100ED00085B20815091F0860FFF7BEFF4FF40070C8
:100EE0000249091F0860284670BD0000140C01402B
:100EF0000010014008B501211820FFF71FFD012156
:100F00002020FFF71BFD4FF4E460ADF80000012046
:100F10008DF8020010208DF803006946F848FFF7AD
:100F200051FAFFF799FFF6481030006840F4C460AA
:100F3000F3491031086008BD10B5FFF7DBFF002052
:100F4000FFF7AAFFEF4908800846008848F23021E1
:100F5000884202D1FFF7EFFD01E0FFF77CFE0020A1
:100F6000FFF79AFFE749088010BD01B5BDF8000002
:100F7000E549088008BD01B5BDF80000E3490880D7
:100F800008BD30B504460D4621462020FFF7B7FDC9
:100F900029462120FFF7B3FD30BD4FF40071D84A38
:100FA000143211604910121F116020211160D849BC
:100FB000C8602021121D1160121F1160C90011604C
:100FC0004900116070474FF40070CD49143108603A
:100FD000401008602020091F08602220CC49C8600A
:100FE0002020C74914310860091F0860C00008604C
:100FF0004000086070472DE9F043064689461746D1
:1010000000240025A046B04649464046FFF7B9FFF8
:1010100000BF1EE0FFF7D7FF00250FE037F81400F0
:101020000121A940084020B9B8480088FFF7B5FF62
:1010300003E0B5480088FFF7B0FF6D1C102DEDD31D
:1010400008F1010000F0FF0849464046FFF799FF0C
:10105000641C182CDED3BDE8F08370B505460E463F
:101060001446A4F12000C4B204EB4400A94901EBEA
:10107000001231462846FFF7BEFF70BDF0B50746A7
:101080000C46002540F23F1609E0227831463846EA
:10109000FFF7E3FFA6F1100086B2641C6D1C2078F8
:1010A00008B1142DF1D3F0BD10B504469AA1204625
:1010B000FFF7E4FF10BD30B50546002400210846C7
:1010C000FFF75FFFFFF77FFF00BF03E02846FFF752
:1010D00064FF641CB4F5963FF8D330BDF0B5044608
:1010E0000D4616461F46B44206DBA01B401C81B2CB
:1010F0005020FFF704FD03E000215020FFF7FFFC24
:1011000021465120FFF7FBFCBD4206DBE81B401CDB
:1011100081B25220FFF7F3FC03E000215220FFF7D9
:10112000EEFC29465320FFF7EAFC29462046FFF74C
:1011300028FFF0BD00B54FF4A073F022591EEF2038
:10114000FFF7CCFF41F218010320FFF7D8FC00BDE8
:101150002DE9F0410646884615461F4600244146C3
:101160003046FFF70EFF5FB9FFF72DFF00BF04E029
:1011700065480088FFF711FF641CAC42F8D310E00B
:1011800000240CE0FFF71FFF5F480088FFF705FF12
:10119000701CC6B241463046FFF7F3FE641CAC42F9
:1011A000F0D3BDE8F081F0B505460E4617461C4663
:1011B0000023224631462846FFF7CAFFE919C8B284
:1011C000002322463146FFF7C3FF01233A4631464A
:1011D0002846FFF7BDFF301B401C81B201233A4671
:1011E0002846FFF7B5FFF0BD2DE9F04306460F4650
:1011F00090460320A0EB4809002445466EE07A198A
:1012000091B23219D0B2FFF7BCFEFFF7DCFE3E48C8
:101210000088FFF7C2FE7A1B91B23219D0B2FFF7F5
:10122000B0FEFFF7D0FE38480088FFF7B6FE7A1907
:1012300091B2321BD0B2FFF7A4FEFFF7C4FE3248D2
:101240000088FFF7AAFE7A1B91B2321BD0B2FFF7DB
:1012500098FEFFF7B8FE2C480088FFF79EFE3A196B
:1012600091B27219D0B2FFF78CFEFFF7ACFE2648A0
:101270000088FFF792FE3A1B91B27219D0B2FFF7C5
:1012800080FEFFF7A0FE20480088FFF786FE3A198F
:1012900091B2721BD0B2FFF774FEFFF794FE1A48AA
:1012A0000088FFF77AFE3A1B91B2721BD0B2FFF7AB
:1012B00068FEFFF788FE14480088FFF76EFEB9F15C
:1012C000000F04DA062000EB8400814405E0601B77
:1012D0000A2101EB800081446D1E641CAC428ED952
:1012E000BDE8F08370B506460024002540F23F11AA
:1012F0000020FFF746FEFFF766FE00BF2DE000006E
:10130000000C01402C000020280000202A000020B2
:1013100000100140502A00082020202020202020FA
:10132000202020202020202020202020000000003D
:1013300000250FE056F824000121A940084020B9FB
:101340005F480088FFF729FE03E05E480088FFF74A
:1013500024FE6D1C202DEDD3641CB4F5166FE7D36D
:1013600070BD70B50446002500266688A08846EA50
:1013700000466589A08945EA0045701B46082C4453
:1013800041F208010320FFF7BAFBFFF71CFE00251E
:1013900004E02088FFF701FEA41C6D1CB542F8D3C1
:1013A00041F218010320FFF7AAFB70BD10B54FF4FE
:1013B000007045490860401008602020091F08603F
:1013C00022204249C86020203F490860091F086068
:1013D000C0000860FFF750FD4FF480603A49086094
:1013E0003A48806884B20815091F0860FFF734FD89
:1013F0004FF400703449091F0860204610BD00B545
:1014000000211020FFF77BFB00211120FFF777FB65
:1014100000211220FFF773FB00211320FFF76FFB61
:101420001420FFF75DFB41F2B0711020FFF767FB5E
:1014300040F237111120FFF762FB0520FFF750FB48
:1014400040F239111220FFF75AFB0520FFF748FB45
:101450004FF4E8511320FFF752FB13212920FFF727
:101460004EFB0520FFF73CFB40F273110720FFF70E
:1014700046FB00BD00B540F273110720FFF73FFBAC
:1014800000BD00B500210720FFF739FB00BD30B5D6
:10149000054600210846FFF774FDFFF794FD002480
:1014A00009E015F814206100491C695C42EA01203A
:1014B000FFF773FD641CB4F5963FF2DB30BD00000E
:1014C0002A00002028000020140C014000100140D8
:1014D00000BF011EA0F10100FBD1704708B501213A
:1014E0000420FFF72BFA8020ADF8000010208DF8C3
:1014F000030002208DF8020069465348FEF762FFA0
:1015000080215148FFF70BF808BD08B58020ADF8E1
:10151000000048208DF8030002208DF80200694683
:101520004948FEF74FFF08BD08B58020ADF8000020
:1015300010208DF8030002208DF802006946424811
:10154000FEF740FF08BD2DE9F04180213E48FEF73F
:10155000E8FF3E48FFF7BCFF80213B48FEF7DFFF76
:101560004FF49070FFF7B4FFFFF7CFFF41F28836DA
:1015700000E0761E80213448FEF7B7FF08B9002E40
:10158000F7DC41F2883600E0761E80212E48FEF717
:10159000ACFF08B1002EF7DC002728E041F28836C6
:1015A00000E0761E80212848FEF79FFF08B9002E34
:1015B000F7DC40F29310FFF78BFF80212248FEF703
:1015C00094FF30B1221945EB0500541C40F1000591
:1015D00001E024196D4141F2883600E0761E802139
:1015E0001948FEF782FF08B1002EF7DC7F1C282F78
:1015F000D4DBFFF799FF80211348FEF790FFE9172E
:10160000200E40EA05202A1841EB25614FEA1440DC
:1016100040EA0540121841EB25414FEA142040EA08
:101620000560121841EB2520131B60EB0501D8B2B1
:10163000002148404940084302D00020BDE8F08125
:10164000200A40EA0560F9E70008014080F4030041
:1016500000BF011EA0F10100FBD1704708B50121B8
:101660000420FFF76BF94020ADF8000048208DF80A
:10167000030002208DF8020069465348FEF7A2FEDF
:1016800008BD08B54020ADF8000048208DF80300E3
:1016900002208DF8020069464B48FEF793FE08BD14
:1016A00008B54020ADF8000010208DF8030002209E
:1016B0008DF8020069464448FEF784FE08BD10B567
:1016C000FFF7EEFF40214048FEF72BFF4FF4B450E8
:1016D000FFF7BEFFFFF7D5FF40F2B630FFF7B8FFC8
:1016E00040213948FEF701FF044641F24970FFF7F7
:1016F000AFFF40213448FEF7F8FE00B90124204630
:1017000010BD10B50446FFF7CBFF40212E48FEF771
:1017100008FF0E20FFF79CFF0CB1FFF7B2FF8120FE
:10172000FFF796FF40212848FEF7DFFE00B90024AE
:101730004FF42270FFF78CFFFFF7A3FF204610BD88
:1017400070B50446082600BF04F00100FFF7D9FF7A
:10175000054664100DB144F08004701EC0B2061E30
:10176000F2D1204670BD10B5FF20FFF7E9FF10BD94
:1017700038B50025002472B6FFF7A1FFCC20FFF793
:10178000DFFF4420FFF7DCFF1048FFF761FFFFF7A2
:1017900096FFCC20FFF7D4FFBE20FFF7D1FF002536
:1017A00005E0FFF7E0FF0DF80500681CC5B2022D4B
:1017B000F7DB62B69DF80140200204B29DF80000FC
:1017C0000443204638BD00000008014080CBA4003F
:1017D00010B50446224604212048FEF7A4FE10BDA1
:1017E00008B501212020FFF7A9F801211020FFF7FB
:1017F000A5F80420ADF8000003208DF802001020A9
:101800008DF8030069461548FEF7DCFD4FF47F4074
:10181000ADF8000003208DF8020010208DF80300C1
:1018200069460F48FEF7CEFD0120FFF7D1FF4FF6C6
:10183000FF710B48FEF77CFE0020FFF7C9FF08BDD3
:1018400010B504460120FFF7C3FF21460448FEF708
:101850006FFE0020FFF7BCFF10BD00000014014028
:10186000001001402DE9F04106460F469046002445
:10187000002508213F48FEF754FE3F4810F8085065
:1018800000BF17E005F0800020B102213948FEF7C3
:1018900046FE03E002213748FEF743FE08213548A3
:1018A000FEF73DFE6806050E08213248FEF739FEB8
:1018B000601CC4B2082CE5DB2F48C55D002417E08E
:1018C00005F0800020B102212A48FEF728FE03E03F
:1018D00002212848FEF725FE08212648FEF71FFEB4
:1018E0006806050E08212348FEF71BFE601CC4B2E3
:1018F000082CE5DB2048855D002417E005F080001A
:1019000020B102211B48FEF70AFE03E0022119481C
:10191000FEF707FE08211748FEF701FE6806050ED0
:1019200008211448FEF7FDFD601CC4B2082CE5DB5D
:1019300004211048FEF7F3FD04210E48FEF7F1FDE7
:10194000BDE8F08108B501210420FEF7F7FF0E2065
:10195000ADF8000002208DF8020010208DF8030081
:1019600069460448FEF72EFD112211461046FFF786
:1019700079FF08BD000801402E00002010B50028A6
:1019800007DA0A07140E464A00F00F031B1FD4544F
:1019900003E00A07130E434A135410BD424908607E
:1019A00000BF414909680029FBD1704786B000BFDC
:1019B0004FF0000A00BF00BF00253C4800684FF40C
:1019C0007A71B0FBF1F4B4F1807F00D311E024F020
:1019D0007F40401E4FF0E02148610F214FF0FF3063
:1019E000FFF7CCFF00204FF0E0218861072008615D
:1019F00000BF4FF4A060FFF705F80021481EFFF775
:101A0000BDFFC820FFF7CAFFFFF796FA1F20FFF7B8
:101A100052FB1F20FFF7AFFA4FF6FF70FFF7A5FA52
:101A2000FFF7DEFEFFF78EFFFFF718FEFFF756FD0C
:101A300035E0FFF79DFE044600F0E2F88046002204
:101A40001B4B00F06BF8064600F0FEF8824650464D
:101A500000F0E7F8064632460B4616A101A800F052
:101A600075FB01A94820FFF709FBFFF76CFD054650
:101A70002A0E16A101A800F069FB01A96020FFF75A
:101A8000FDFAC5F3072216A101A800F05FFB01A92A
:101A90007820FFF7F3FA4FF4FA60FFF77FFFC8E70B
:101AA00018ED00E000E400E040000020000000200D
:101AB0000000B03F54656D3A252E3266202020206C
:101AC0002020202020202020000000002048756DCC
:101AD00069646974793A2025326425250000000084
:101AE0002054656D70657261747572653A20253297
:101AF00064430000704700BFFEE700BFFEE700BF81
:101B0000FEE700BFFEE77047704770470248006875
:101B1000401E014908607047400000202DE9FE4F3B
:101B200081EA030404F0004421F0004100944FF0E6
:101B3000000B23F0004350EA01045ED052EA030494
:101B40005BD0C3F30A54C1F30A552C44A4F2F33416
:101B50000194A0FB0254C1F3130141F48011C3F3BB
:101B6000130343F4801301FB024400FB034E840A79
:101B7000970A44EA815447EA8357A4FB0768029511
:101B80008D0A05FB07854FEA932C04FB0C542705AF
:101B9000029D4FEA065847EA1637B5EB08056EEB8B
:101BA000070C870E920E47EA811742EA8312A7FBC1
:101BB0000201B6EB0B0164EB00042B0D43EA0C337E
:101BC0005E1844EB1C50DA465146E7FB0201C5F3B0
:101BD00013044FEA0B3343EA14534FEA0432019CD7
:101BE00043EA0603A4F10C040294009CCDE900B47E
:101BF00000F0D3F803B0BDE8F08F00200146F9E70C
:101C00000EB5C10F80EAE0700844CA07002140F217
:101C100033438DE80E000A460B4600F0BEF803B0D1
:101C200000BD00F0004230F000400AD0C10D01F5C7
:101C30006071C0F3160042EA0151C2084007114327
:101C4000704700200146704701F0004330B421F096
:101C5000004150EA010206D00A0DA2F56072C1F3FC
:101C60001301002A02DC30BC00207047440F44EA14
:101C7000C104C100E01830BC00EBC25000F047B80E
:101C800030B50B46014600202022012409E021FA4C
:101C900002F59D4205D303FA02F5491B04FA02F549
:101CA0002844151EA2F10102F1DC30BD2DE9F05FE0
:101CB0000546002092469B468846064681464024BB
:101CC0001BE0284641464746224600F01CFA534690
:101CD0005A46C01A914110D311461846224600F0C8
:101CE00003FA2D1A67EB01084F4622460120002116
:101CF00000F0FAF917EB00094E41201EA4F101048F
:101D0000DFDC484631462A464346BDE8F09F0029BD
:101D1000A8BF7047401C490008BF20F00100704771
:101D200010B4B0FA80FC00FA0CF050EA010404BFD1
:101D300010BC704749B1CCF1200421FA04F411FA27
:101D40000CF118BF012121430843A3EB0C01CB1D6B
:101D50004FEA00614FEA102042BF002010BC7047DC
:101D600000EBC35010440029A4BF10BC7047401CB6
:101D7000490008BF20F0010010BC704710B5141EC8
:101D800073F1000408DA401C41F1000192185B4134
:101D90001A4301D120F0010010BD2DE9F04D92460B
:101DA0009B4611B1B1FA81F202E0B0FA80F2203222
:101DB000904600F099F904460F4640EA0A0041EACD
:101DC0000B0153465A46084313D0114653EA01000B
:101DD00019D0C8F14002504600F095F905460E466C
:101DE00050465946424600F07FF9084305D001208D
:101DF00004E020463946BDE8F08D0020054346EA60
:101E0000E0762C4337430A986305E40AA0EB080008
:101E10000022FD0A44EA47540A3002D50020014658
:101E2000E9E7010510196941DDE908450019694133
:101E3000BDE8F04DA2E72DE9FE4F804681EA0300A0
:101E4000C00F0C46009021F0004123F00045B8EB94
:101E50000200A94105D24046214690461C460B4649
:101E6000024623F00040104347D0270DC7F30A0075
:101E7000C3F30A510290401A019040286BDAC3F371
:101E8000130040F4801B0098924620B10023D2EB4F
:101E9000030A63EB0B0B01985946C0F14002504610
:101EA00000F022F906460D4650465946019A00F0C8
:101EB0003AF910EB08006141002487EA115284EAE4
:101EC000E7731A4340D0009A62B3019A012A4FEA9D
:101ED000075215DC001B61EB02014FF0004202EAE1
:101EE0000752CDE90042001C41F5801132462B46D5
:101EF000FFF753FF03B0BDE8F08F40462146F9E7F6
:101F0000001B61EB0201001C41F5801300185B41CE
:101F10002018A2F5001747EB030140EAD570B61967
:101F20006D4111E06D084FEA360645EAC0754FEA8B
:101F30000752001B61EB0201001C41F580114908AA
:101F40004FEA30000019514132462B4603B0BDE83C
:101F5000F04FFFF713BF0098012240000023D0EBA1
:101F6000020263EBE073009821464FEAE074B8EB9D
:101F7000000061EB0401E9E783F000435BE781F0D7
:101F8000004158E72DE9F04D81EA030404F0004BCD
:101F900021F0004514464FF0000A23F0004150EABA
:101FA000050220D054EA01021DD0C5F30A570246AB
:101FB000C5F31303C1F31300C1F30A5640F48015AF
:101FC00043F48013A7EB0608101BD64608F2FD3831
:101FD00073EB050002D308F1010801E092185B41A0
:101FE000B8F1000F03DA00200146BDE8F08D0020B3
:101FF0004FF48011064684460EE0171B73EB05076D
:1020000005D3121B63EB050306434CEA010C490898
:102010004FEA300092185B4150EA0107EDD152EAD5
:10202000030012D082EA040083EA0501084305D0C8
:10203000101BAB4106D20122002306E000224FF024
:10204000004302E06FF0010253101AEB06004CEB64
:10205000085110EB0A0041EB0B01BDE8F04DFFF712
:102060008DBEC1F30A52C1F3130140F2FF3341F4B4
:1020700080119A4202DA00200146704740F2334351
:102080009A42A2F2334202DC524200F03CB800F025
:102090002BB8000030B5041E71F1000404DB4FF0D2
:1020A0000044404264EB0101141E73F1000405DB9F
:1020B0001C464FF00043524263EB0403994208BFB1
:1020C000904230BD064C074D06E0E06840F0010349
:1020D00094E8070098471034AC42F6D3FEF70AF8AC
:1020E000203C0008403C0008202A04DB203A00FA8B
:1020F00002F1002070479140C2F1200320FA03F35F
:10210000194390407047202A04DB203A21FA02F05C
:102110000021704721FA02F3D040C2F12002914021
:10212000084319467047202A06DBCB17203A41FAAC
:1021300002F043EAE07306E041FA02F3D040C2F154
:102140002002914008431946704700000FB4084B25
:1021500010B504A902AA039800F0DEF8044602A90B
:10216000002000F070FC204610BC5DF814FB00005D
:10217000472A000802E008C8121F08C1002AFAD145
:1021800070477047002001E001C1121F002AFBD1F7
:10219000704700002DE9FF5F82B00021DDE90430C7
:1021A000020DDDF840B0034318D044F61050A2F2FF
:1021B000FF3242431514119801281FD0A5EB0B00E4
:1021C000401C5FEA000A4FF000064E4FDFF83891DE
:1021D000B046504615D5CAF1000413E01198012409
:1021E0004AA3012801D16FEA0B010298119AC0E9B4
:1021F0000031C0E9024206B0BDE8F09FCBF100001B
:10220000DFE704460021404A491842EB0450CDE97B
:10221000001012E0E00707D032463B4640464946F0
:10222000FFF77CFC8046894632463B4610461946FD
:10223000FFF774FC06460F466410002CEAD1DDE976
:102240000401DDE90023BAF1000F06DAFFF766FCAE
:1022500042464B46FFF762FC05E0FFF793FE42461D
:102260004B46FFF78FFE04460E460022284BFFF731
:1022700011FF03D84FF0FF30014607E00022254B45
:1022800020463146FFF7D7FDFFF7EBFE102409E0AB
:10229000002C0ADB0A220023FFF708FD039B3032E3
:1022A0001A55641E50EA0102F2D1641C039AC4F16B
:1022B00011031444119A012A03D0012208430DD1BD
:1022C0000AE0084304D000204FF0110B119072E790
:1022D000A3EB0B056D1E0DE05B4504DD4FF0000226
:1022E00005F1010504E003DA4FF00002A5F1010554
:1022F000002AECD002981199C0E90231C0E90045EA
:1023000079E70000000014400000F03F30000000BA
:102310000000F0430000E03F2DE9FF4F95B09B46E1
:102320008946064600250FE2252877D10024274656
:10233000F84A0121059400E0044316F8013F203BD0
:1023400001FA03F01042F7D130782A2811D06FF04B
:102350002F033078A0F13002092A16D8059A44F0EC
:10236000020402EB820203EB42021044761C059049
:10237000EFE759F8042B0592002A03DA504244F49F
:102380000054059044F00204761C30782E2816D1B3
:1023900016F8010F44F004042A280DD06FF02F0224
:1023A0003078A0F13003092B09D807EB870302EB43
:1023B0004303C718761CF3E759F8047B761C307882
:1023C0006C280FD006DC4C2817D068280DD06A285E
:1023D00014D104E0742810D07A280FD10DE044F411
:1023E00000140AE044F4801401E044F440147278CC
:1023F000824202D104F58014761C761C307866285F
:102400000BD013DC582877D009DC002875D045287C
:10241000F6D04628F4D047281AD19DE118E0632869
:1024200035D0642879D0652812D195E1702873D011
:1024300008DC6728F1D069286FD06E280DD06F288E
:1024400006D1B5E073282CD0752875D0782874D0C3
:102450005A46179990476D1C75E1C4F30250022843
:1024600009D003280DD0D9F8001004280DD00D6034
:1024700009F1040967E1D9F80010EA17C1E900522F
:10248000F6E7D9F800100D80F2E70D70F0E719F8C3
:10249000041B8DF8001000208DF80100EA46012091
:1024A00003E059F804AB4FF0FF3061074FF0000133
:1024B00002D40DE008F101018846B9420FDA8045E7
:1024C000F8DB1AF808100029F4D108E008F101013E
:1024D00088468142FADB1AF808100029F6D10598DF
:1024E0005B46A0EB080721463846179A00F094FA9D
:1024F000284400EB080507E04DE029E10DE01AF85B
:10250000010B5A4617999047B8F10108F7D25B467C
:1025100021463846179A13E142E00A220092C4F39A
:1025200002524FF0000A022A08D059F804CB032ABD
:102530004FEAEC710AD00DE029E02AE009F1070129
:1025400021F00702F2E802C1914609E00FFA8CFC83
:102550004FEAEC71042A03D14FFA8CFC4FEAEC717C
:10256000002907DA0A460021DCF1000C61EB0201C8
:102570002D2202E0220504D52B228DF80420012211
:1025800003E0E20701D02022F7E7904659E00A2154
:1025900002E010220DE010214FF0000A00910BE044
:1025A00010224FF0000A44F004040827009203E0D0
:1025B00008224FF0000A0092C4F30252022A05D00A
:1025C00059F804CB0021032A08D009E009F10701DA
:1025D00021F00702F2E802C1914605E01FFA8CFCE7
:1025E000042A01D10CF0FF0C4FF00008220728D577
:1025F000702806D0009B83F0100353EA0A0305D02D
:102600000EE040228DF80420012208E05CEA01027D
:1026100006D030228DF804208DF805000222904665
:10262000009B83F0080353EA0A030AD15CEA010223
:1026300001D1620705D530228DF804204FF0010842
:102640007F1E582804D034A003900EA802900DE0FD
:1026500036A0F9E753466046009AFFF727FB844609
:102660000398825C0298401E029002705CEA0100AE
:10267000F0D1029806A9081A00F1200A600702D5D5
:1026800024F4803400E00127574502DDA7EB0A005F
:1026900000E0002000EB0A01009005984144401A38
:1026A0000590E00306D45B462146179A059800F092
:1026B000B3F90544002706E001A85A46C05D179902
:1026C00090476D1C7F1C4745F6DBE0030CD55B464D
:1026D0002146179A059800F09FF9054404E0302040
:1026E0005A46179990476D1C0099481E0090002982
:1026F000F5DC08E0029802995A460078491C0291DC
:10270000179990476D1CBAF10001AAF1010AF1DC9A
:1027100065E10000092801003031323334353637A5
:10272000383961626364656600000000303132331D
:1027300034353637383941424344454600000000BD
:1027400000F058F90544761C307800287FF4ECAD91
:1027500019B02846BDE8F08F620700D4062709F1BA
:10276000070222F0070CFCE80223E14603F00048D0
:102770005FEA080C02D00FF2702C0DE05FEA045CF7
:1027800002D50FF2682C07E05FEAC47C02D00FF29A
:10279000602C01E0AFF2700C4FF0FF3823F00043E3
:1027A000CDF850C065280CD006DC452809D0462855
:1027B0001DD047283DD13DE0662818D067287ED13E
:1027C00038E00021112F01DB112000E0781CCDE959
:1027D000000106A90EA8FFF7DDFCDDE90F010E9A46
:1027E00003910021009207F1010A04914DE04FF09E
:1027F00000400097CDE9011006A90EA8FFF7CAFC1A
:10280000DDE90F0203920E9B11990022DDF80CA066
:102810000093049211B9791C00EB010AB7EB0A008E
:1028200004D4C0F1FF3007F1010A0490AAEB0700BD
:10283000019044E0012F00DA01270021112F01DD72
:10284000112000E03846CDE9000106A90EA8FFF7E7
:10285000A1FCDDE90F010E9A039100210491009281
:10286000BA4621070CD40399514500DA8A46BAF1D9
:10287000010F05DD009AAAF10101515C302908D051
:10288000B84202DA10F1040F06DA0121CDE9011095
:1028900015E0AAF10101E9E7002805DC04990144EB
:1028A0000491AAEB000102E0411C514500DD8A467B
:1028B0000499401A401C01904FF0004002902007FC
:1028C00004D40198504501DBCDF8048000208DF838
:1028D0004F0002980DF14F07B0F1004F25D02B208B
:1028E0000E9002984FF0020800280CDA4042029045
:1028F0002D200E9007E00A210298FFF7C1F9303130
:10290000029007F8011DB8F10001A8F10108F2DCFE
:1029100002980028EFD1791E0E980870307800F0E8
:10292000200040F0450007F8020D12A8C01B00F17E
:1029300007081498007800B1012000EB0A01019803
:1029400001EBE07105984144401A401E0590E003F8
:1029500006D45B462146179A059800F05DF80544B9
:102960001498007818B15A46179990476D1CE003E7
:1029700024D55B462146179A059800F04DF805448A
:102980001CE00498002807DBDDE90301884203DD31
:102990000098405C179901E0179930205A469047FB
:1029A000049805F10105401C04900198401E019017
:1029B00004D12E205A46179990476D1CBAF1000198
:1029C000AAF1010ADDDC05E017F8010B5A46179958
:1029D00090476D1CB8F10001A8F10108F4DC5B46DA
:1029E0002146179A0598ABE62D0000002B00000049
:1029F000200000002DE9F041044600251E46174640
:102A0000880404D405E039462020B0476D1C641EBC
:102A1000F9D52846BDE8F0812DE9F04104460025AE
:102A20001E469046C80301D5302700E020278804C1
:102A300004D505E041463846B0476D1C641EF9D503
:102A40002846BDE8F0810A68531C0B60107070477F
:102A50000000000000000000000000000000000076
:102A60000000000000000000000000000000000066
:102A70000000000000000000000000000000000056
:102A800000008001800180018001800180018001BF
:102A90008001800180018001800180010000000030
:102AA0008001800100000000000000000000000024
:102AB00000000000CC00CC00CC00CC00CC00CC004E
:102AC0000000000000000000000000000000000006
:102AD00000000000000000000000000000000000F6
:102AE000000000000000000000000000600C600C0E
:102AF000600C30063006FE1FFE1F30063807180334
:102B0000FE1FFE1F180318038C018C018C010000AE
:102B100000008000E003F80F9C0E8C1C8C188C00C9
:102B20009800F801E007800E801C8C188C189C1807
:102B3000B80CF00FE00380008000000000000000EF
:102B40000000000000000E181B0C110C11061106ED
:102B5000110311039B018E01C038C06C60446044B6
:102B6000304430441844186C0C3800000000000059
:102B70000000E001F0033807180618063003F001E2
:102B8000F000F8009C310E33061E061C061C063FA2
:102B9000FC73F021000000000000000000000000B5
:102BA000000000000C000C000C000C000C000C00DD
:102BB0000000000000000000000000000000000015
:102BC0000000000000000000000000000000000005
:102BD0000000000200038001C000C000600060002F
:102BE0003000300030003000300030003000300065
:102BF00060006000C000C00080010003000200000F
:102C0000000020006000C00080018001000300037C
:102C10000006000600060006000600060006000684
:102C20000003000380018001C0006000200000005C
:102C3000000000000000000000000000C000C00014
:102C4000D806F807E0013003380700000000000054
:102C50000000000000000000000000000000000074
:102C60000000000000000000000000008001800162
:102C7000800180018001FC3FFC3F800180018001D8
:102C80008001800100000000000000000000000042
:102C90000000000000000000000000000000000034
:102CA0000000000000000000000000000000000024
:102CB0000000800180010001000180000000000090
:102CC0000000000000000000000000000000000004
:102CD0000000000000000000E007E0070000000026
:102CE00000000000000000000000000000000000E4
:102CF00000000000000000000000000000000000D4
:102D000000000000000000000000000000000000C3
:102D10000000C000C0000000000000000000000033
:102D20000000000C000C0006000600060003000373
:102D300000038003800180018001C000C000C0004A
:102D400060006000000000000000000000000000C3
:102D50000000E003F007380E180C0C180C180C18C3
:102D60000C180C180C180C180C180C18180C380E21
:102D7000F007E00300000000000000000000000079
:102D8000000000018001C001F0019801880180016C
:102D9000800180018001800180018001800180012B
:102DA0008001800100000000000000000000000021
:102DB0000000E003F80F180C0C180C18001800188D
:102DC000000C000600038001C00060003000180005
:102DD000FC1FFC1F000000000000000000000000BD
:102DE0000000E001F807180E0C0C0C0C000C00069B
:102DF000C003C007000C001800180C180C18180CA1
:102E0000F807E003000000000000000000000000E0
:102E10000000000C000E000F000F800DC00C600CB5
:102E2000600C300C180C0C0CFC3FFC3F000C000C30
:102E3000000C000C0000000000000000000000007A
:102E40000000F80FF80F180018000C00EC03FC0746
:102E50001C0E001C0018001800180C181C0C180E72
:102E6000F807E00300000000000000000000000080
:102E70000000C007F00F381C181818000C00CC0315
:102E8000EC0F3C0E1C1C0C180C180C18181C380EDF
:102E9000F007E00300000000000000000000000058
:102EA0000000FC1FFC1F000C00060006000380034E
:102EB0008001C001C000E0006000600070003000D0
:102EC00030003000000000000000000000000000A2
:102ED0000000E003F007380E180C180C180C380628
:102EE000F007F007180C0C180C180C180C18380CFC
:102EF000F80FE003000000000000000000000000E8
:102F00000000E003F007380E1C0C0C180C180C180D
:102F10001C1C381EF81BE0190018000C000C1C0EBD
:102F2000F807F001000000000000000000000000B1
:102F3000000000000000000000000000800180018F
:102F40000000000000000000000000000000000081
:102F5000800180010000000000000000000000006F
:102F6000000000000000000000000000800180015F
:102F70000000000000000000000000000000000051
:102F800080018001000100018000000000000000BD
:102F90000000000000000000000000000000000031
:102FA0000010001C800FE003F8001800F800E00398
:102FB000800F001C00100000000000000000000056
:102FC0000000000000000000000000000000000001
:102FD000F81F000000000000F81F000000000000C3
:102FE00000000000000000000000000000000000E1
:102FF00000000000000000000000000000000000D1
:1030000008003800F001C007001F0018001FC007AB
:10301000F00138000800000000000000000000007F
:103020000000E003F80F180C0C180C180018000C26
:10303000000600038001C000C000C00000000000C6
:10304000C000C00000000000000000000000000000
:1030500000000000E00718180420C229224A114489
:1030600009440944094409221113E20C02400420D6
:103070001818E00700000000000000000000000039
:10308000000080038003C006C006C006600C600C10
:10309000301830183018F83FF83F1C700C600C6086
:1030A00006C006C000000000000000000000000094
:1030B0000000FC03FC0F0C0C0C180C180C180C0C6A
:1030C000FC07FC0F0C180C300C300C300C300C18BA
:1030D000FC1FFC07000000000000000000000000D2
:1030E0000000C007F01F38381C300C700660060066
:1030F0000600060006000600060006600C701C3084
:10310000F01FE007000000000000000000000000C9
:103110000000FE03FE0F060E0618061806300630E5
:103120000630063006300630063006180618060E41
:10313000FE0FFE0300000000000000000000000081
:103140000000FC3FFC3F0C000C000C000C000C00CD
:10315000FC1FFC1F0C000C000C000C000C000C00F1
:10316000FC3FFC3F000000000000000000000000E9
:103170000000F83FF83F1800180018001800180069
:10318000F81FF81F18001800180018001800180081
:1031900018001800000000000000000000000000FF
:1031A0000000E00FF83F3C780E6006E007C0030027
:1031B000030003FE03FE03C007C006C00EC03CF0C0
:1031C000F83FE00F000000000000000000000000D9
:1031D00000000C300C300C300C300C300C300C304B
:1031E000FC3FFC3F0C300C300C300C300C300C3001
:1031F0000C300C3000000000000000000000000057
:103200000000800180018001800180018001800137
:1032100080018001800180018001800180018001A6
:10322000800180010000000000000000000000009C
:103230000000000600060006000600060006000664
:1032400000060006000600060006180618063807E5
:10325000F003E0010000000000000000000000009A
:10326000000006300618060C060606038601C60096
:1032700066007600DE008E0106030606060C0618C0
:1032800006300660000000000000000000000000A2
:103290000000180018001800180018001800180086
:1032A000180018001800180018001800180018005E
:1032B000F81FF81F000000000000000000000000E0
:1032C00000000EE01EF01EF01EF036D836D836D8BC
:1032D00036D866CC66CC66CCC6C6C6C6C6C6C6C61A
:1032E00086C386C30000000000000000000000004C
:1032F00000000C301C303C303C306C306C30CC303A
:10330000CC308C310C330C330C360C360C3C0C3C72
:103310000C380C300000000000000000000000002D
:103320000000E007F81F1C380E70066003C003C0E1
:1033300003C003C003C003C003C006600E701C3886
:10334000F81FE0070000000000000000000000007F
:103350000000FC0FFC1F0C380C300C300C300C3013
:103360000C18FC1FFC070C000C000C000C000C00DF
:103370000C000C0000000000000000000000000035
:103380000000E007F81F1C380E70066003E003C061
:1033900003C003C003C003C007E006630E3F1C3C2C
:1033A000F83FE0F700C0000000000000000000004F
:1033B0000000FE0FFE1F06380630063006300638C5
:1033C000FE1FFE0706030606060C06180618063042
:1033D0000630066000000000000000000000000051
:1033E0000000E003F80F1C0C0C180C180C001C005B
:1033F000F803E00F001E0038063006300E301C1CAB
:10340000F80FE007000000000000000000000000CE
:103410000000FE7FFE7F800180018001800180012D
:103420008001800180018001800180018001800194
:10343000800180010000000000000000000000008A
:1034400000000C300C300C300C300C300C300C30D8
:103450000C300C300C300C300C300C300C30181898
:10346000F81FE0070000000000000000000000005E
:10347000000003600630063006300C180C180C18DB
:10348000180C180C380E3006300670076003600305
:10349000C001C001000000000000000000000000AA
:1034A00000000360C361C361C36166336633663382
:1034B0006633663366336C1B6C1B6C1B2C1A3C1E0C
:1034C000380E380E00000000000000000000000070
:1034D00000000FE00C7018303018700C600EC00740
:1034E00080038003C003E006700C301C18180C30F9
:1034F0000E6007E000000000000000000000000077
:10350000000003C006600C301C383818300C600610
:10351000E007C003800180018001800180018001FB
:103520008001800100000000000000000000000099
:103530000000FC7FFC7F006000300018000C0006DB
:1035400000038001C0006000300018000C0006007D
:10355000FE7FFE7F00000000000000000000000071
:103560000000E003E00360006000600060006000B5
:10357000600060006000600060006000600060004B
:1035800060006000600060006000E003E003000095
:10359000000030003000600060006000C000C0002B
:1035A000C000C0018001800180010003000300030E
:1035B00000060006000000000000000000000000FF
:1035C0000000E003E0030003000300030003000326
:1035D00000030003000300030003000300030003D3
:1035E00000030003000300030003E003E003000006
:1035F00000000000C001C0016003600360033006EA
:103600003006180C180C000000000000000000003C
:1036100000000000000000000000000000000000AA
:10362000000000000000000000000000000000009A
:10363000000000000000000000000000000000008A
:103640000000FFFFFFFF000000000000000000007E
:1036500000000C000C000C000C000C000C00000022
:10366000000000000000000000000000000000005A
:10367000000000000000000000000000000000004A
:10368000000000000000000000000000F003F80748
:103690001C0C0C0C000FF00FF80C0C0C0C0C1C0F7D
:1036A000F80FF0180000000000000000000000000B
:1036B000000018001800180018001800D803F80FB0
:1036C000380C181818181818181818181818380C52
:1036D000F80FD80300000000000000000000000008
:1036E000000000000000000000000000C003F00720
:1036F000300E180C1800180018001800180C300EA6
:10370000F007C003000000000000000000000000FF
:10371000000000180018001800180018C01BF01F47
:10372000301C181818181818181818181818301CE1
:10373000F01FC01B0000000000000000000000009F
:10374000000000000000000000000000C003F00FB7
:10375000300C1818F81FF81F180018003818301C03
:10376000F00FC00700000000000000000000000093
:103770000000800FC00FC000C000C000F007F007BD
:10378000C000C000C000C000C000C000C000C00039
:10379000C000C000000000000000000000000000A9
:1037A000000000000000000000000000E00DF80F25
:1037B000180E0C0C0C0C0C0C0C0C0C0C0C0C180E2D
:1037C000F80FE00D000C0C0C1C06F807F0010000CF
:1037D000000018001800180018001800D807F80F8B
:1037E000381C181818181818181818181818181835
:1037F0001818181800000000000000000000000069
:103800000000C000C000000000000000C000C000B8
:10381000C000C000C000C000C000C000C000C000A8
:10382000C000C00000000000000000000000000018
:103830000000C000C000000000000000C000C00088
:10384000C000C000C000C000C000C000C000C00078
:10385000C000C000C000C000C000F8007800000038
:1038600000000C000C000C000C000C000C0C0C06F2
:103870000C038C01CC006C00FC009C018C030C033D
:103880000C060C0C0000000000000000000000000E
:103890000000C000C000C000C000C000C000C000E8
:1038A000C000C000C000C000C000C000C000C00018
:1038B000C000C00000000000000000000000000088
:1038C0000000000000000000000000007C3CFF7EC3
:1038D000C7E383C183C183C183C183C183C183C162
:1038E00083C183C100000000000000000000000050
:1038F0000000000000000000000000009807F80F22
:10390000381C181818181818181818181818181813
:103910001818181800000000000000000000000047
:10392000000000000000000000000000C003F00FD5
:10393000300C181818181818181818181818300CEF
:10394000F00FC003000000000000000000000000B5
:10395000000000000000000000000000D803F80F85
:10396000380C181818181818181818181818380CAF
:10397000F80FD803180018001800180018000000ED
:10398000000000000000000000000000C01BF01F4D
:10399000301C181818181818181818181818301C6F
:1039A000F01FC01B001800180018001800180000B5
:1039B000000000000000000000000000B007F0035D
:1039C0007000300030003000300030003000300037
:1039D0003000300000000000000000000000000087
:1039E000000000000000000000000000E003F00301
:1039F000380E180C3800F003C007000C180C380EF5
:103A0000F007E003000000000000000000000000DC
:103A1000000000008000C000C000C000F007F007F8
:103A2000C000C000C000C000C000C000C000C00096
:103A3000C007800700000000000000000000000038
:103A40000000000000000000000000001818181816
:103A50001818181818181818181818181818381CC2
:103A6000F01FE0190000000000000000000000004E
:103A70000000000000000000000000000C18180CFE
:103A8000180C180C30063006300660036003600323
:103A9000C001C001000000000000000000000000A4
:103AA000000000000000000000000000C141C14112
:103AB000C3616363636363633636363636361C1C14
:103AC0001C1C1C1C00000000000000000000000086
:103AD0000000000000000000000000001C38381C3E
:103AE000300C600660036003600360036006300C06
:103AF000381C1C380000000000000000000000001E
:103B00000000000000000000000000001830301825
:103B100030187018600C600CE00CC006C006800302
:103B20008003800380018001C001F000700000006C
:103B3000000000000000000000000000FC1FFC1F4F
:103B4000000C000600038001C00060003000180077
:103B5000FC1FFC1F0000000000000000000000002F
:103B6000000000038001C000C000C000C000C00011
:103B7000C00060006000300060004000C000C00075
:103B8000C000C000C000C0008001000300000000B1
:103B9000000080018001800180018001800180019E
:103BA000800180018001800180018001800180010D
:103BB000800180018001800180018001800100007E
:103BC00000006000C000C001800180018001800110
:103BD0008001000300030006000300018001800152
:103BE0008001800180018001C000600000000000B1
:103BF00000000000000000000000000000000000C5
:103C0000F010F81F080F0000000000000000000086
:103C100000000000000000000000000000000000A4
:103C2000403C00080000002044000000742100080F
:103C3000843C0008440000200404000084210008A3
:103C400000A24A040000000000000000010203047A
:103C50000607080900000000010203040102030432
:103C600006070809020406080000FFFF00003F06DF
:103C70005B4F666D7D077F6F777C394F79780000E9
:043C80000000000040
:04000005080000ED02
:00000001FF
