:020000040800F2
:100000009806002089010008391600083B160008F0
:100010003F160008431600084716000800000000BD
:100020000000000000000000000000004D16000865
:100030004B160008000000004F160008511600087B
:10004000A3010008A3010008A3010008A301000800
:10005000A3010008A3010008A3010008A3010008F0
:10006000A3010008A3010008A3010008A3010008E0
:10007000A3010008A3010008A3010008A3010008D0
:10008000A3010008A3010008A3010008A3010008C0
:10009000A3010008A3010008A3010008A3010008B0
:1000A000A3010008A3010008A3010008A3010008A0
:1000B000A3010008A3010008A3010008A301000890
:1000C000A3010008A3010008A3010008A301000880
:1000D000A3010008A3010008A3010008A301000870
:1000E000A3010008A3010008A301000800F002F822
:1000F00000F03AF80AA090E8000C82448344AAF188
:100100000107DA4501D100F02FF8AFF2090EBAE885
:100110000F0013F0010F18BFFB1A43F0010318473B
:100120004C2800006C280000103A24BF78C878C121
:10013000FAD8520724BF30C830C144BF04680C60ED
:10014000704700000023002400250026103A28BF35
:1001500078C1FBD8520728BF30C148BF0B60704739
:100160001FB51FBD10B510BD01F0DDFA1146FFF738
:10017000F7FF01F007FA01F0FBFA03B4FFF7F2FF13
:1001800003BC01F003FB0000094880470948004711
:10019000FEE7FEE7FEE7FEE7FEE7FEE7FEE7FEE737
:1001A000FEE7FEE704480549054A064B7047000094
:1001B000A7020008ED000008980000209806002023
:1001C00098020020980200200CB5002001900090B9
:1001D0006C48006840F480306A49086000BF694894
:1001E000006800F4003000900198401C01900098D5
:1001F00018B90198B0F5A06FF1D16248006800F419
:10020000003010B10120009001E000200090009823
:10021000012843D15C48006840F010005A4908604A
:100220000846006820F0030008600846006840F0B7
:1002300002000860534840685249486008464068D8
:1002400048600846406840F480604860084640685E
:1002500020F47C1048600846406840F4E81048608C
:100260000846006840F08070086000BF454800689C
:1002700000F000700028F9D04248406820F00300E8
:10028000404948600846406840F00200486000BFAE
:100290003C48406800F00C000828F9D10CBD10B5AE
:1002A000FFF792FF10BD10B53648006840F001001E
:1002B000344908600846406834490840314948607C
:1002C00008460068324908402E4908600846006820
:1002D00020F4802008600846406820F4FE00486052
:1002E0004FF41F008860FFF7DAFF4FF000602949E4
:1002F000086010BD10B5002100200022214B5B6872
:1003000003F00C0121B1042906D0082928D107E007
:10031000214B224C236027E01F4B204C236023E01D
:10032000184B5B6803F47010164B5B6803F4803263
:10033000022303EB904022B9194B4343174C23602F
:100340000DE0104B5B6803F4003323B1144B4343BF
:10035000124C236003E0104B4343104C236003E036
:100360000D4B0E4C236000BF00BF064B5B68C3F310
:1003700003130C4CE15C094B1B68CB40074C23601A
:1003800010BD000000100240002002400000FFF8F5
:10039000FFFFF6FE08ED00E000127A0000000020EA
:1003A00000093D000400002010B50446CC488442FA
:1003B00008D10121042000F02DFB0021042000F0D1
:1003C00029FB46E0C748844208D10121082000F0FB
:1003D00021FB0021082000F01DFB3AE0C2488442C6
:1003E00008D10121102000F015FB0021102000F0A1
:1003F00011FB2EE0BD48844208D10121202000F0ED
:1004000009FB0021202000F005FB22E0B8488442CF
:1004100008D10121402000F0FDFA0021402000F029
:10042000F9FA16E0B348844208D10121802000F097
:10043000F1FA0021802000F0EDFA0AE0AE48844293
:1004400007D10121801500F0E5FA0021A01500F088
:10045000E1FA10BD10B50121084600F0DBFA0021D9
:10046000012000F0D7FA10BD2DE9F0410246002529
:100470000026002000230024002791F803C00CF080
:100480000F0591F803C00CF0100CBCF1000F03D065
:1004900091F802C04CEA050591F800C0BCF1000FCC
:1004A00031D0146800202BE04FF0010C0CFA00F35F
:1004B000B1F800C00CEA03069E4220D183004FF041
:1004C0000F0C0CFA03F7BC4305FA03FC4CEA0404D6
:1004D00091F803C0BCF1280F06D14FF0010C0CFAC3
:1004E00000FCC2F814C00AE091F803C0BCF1480F48
:1004F00005D14FF0010C0CFA00FCC2F810C0401CF2
:100500000828D1D31460B1F800C0BCF1FF0F34DD6E
:10051000546800202EE000F1080C4FF0010808FAA2
:100520000CF3B1F800C00CEA03069E4221D183000F
:100530004FF00F0C0CFA03F7BC4305FA03FC4CEA2E
:10054000040491F803C0BCF1280F05D100F1080C98
:1005500008FA0CF8C2F8148091F803C0BCF1480FF7
:1005600007D100F1080C4FF0010808FA0CF8C2F8A6
:100570001080401C0828CED35460BDE8F0814FF6AF
:10058000FF710180022181700421C1707047024611
:10059000002093680B400BB1012000E00020704761
:1005A0000146886880B2704702460020D3680B403D
:1005B0000BB1012000E0002070470146C86880B2FE
:1005C000704701617047416170470AB1016100E005
:1005D00041617047C16070474FF480320A438261C5
:1005E0008161826182698269704702460020434BC3
:1005F00018684FF68073184040EA021008433F4BDA
:10060000186070473E49C8617047F0B50A4600233C
:1006100000240021002500F00046B6F1004F02D171
:10062000364EF16901E0354E7168C0F3034583B27F
:1006300000F44016B6F5401F08D121F070612F4E2E
:10064000766826F070662D4F7E6012E000F480160A
:10065000B6F5801F06D1032606FA05F4A14341F042
:10066000706106E0460D360103FA06F6B14341F02B
:10067000706122B1460D360103FA06F6314300F0EF
:100680000046B6F1004F02D11C4EF16101E01B4E55
:100690007160F0BD30B500228B071C0F0F2303FAE9
:1006A00004F2164B08338C1053F824309343134C48
:1006B00008348D1044F8253023468C1053F824302C
:1006C0008C07240F00FA04F423430C4C08348D10DB
:1006D00044F8253030BD0A49DC310860704700001D
:1006E00000080140000C01400010014000140140CE
:1006F00000180140001C01400020014000000140A2
:1007000000002042DF48006840F00100DD49086039
:1007100008464068DC490840DA49486008460068F5
:10072000DA490840D74908600846006820F480206C
:1007300008600846406820F4FE0048604FF41F003F
:1007400088607047CF49096821F48031CD4A116033
:100750001146096821F480211160B0F5803F03D073
:10076000B0F5802F0ED106E0C649096841F480310A
:10077000C44A116007E0C349096841F4A021C14A95
:10078000116000E000BF00BF704710B501460022B5
:10079000002300204A11012A02D1BA4C236806E046
:1007A000022A02D1B74C236A01E0B64C636A01F019
:1007B0001F02012494401C400CB1012000E00020E5
:1007C00010BD38B5002000900024002500BF312066
:1007D000FFF7DBFF05460098401C00900098B0F53D
:1007E000A06F01D0002DF2D03120FFF7CEFF08B16D
:1007F000012400E00024204638BD01460020A14A23
:10080000106820F0F80040EAC10010607047A0496D
:1008100008607047024600209A4B586820F47C100C
:1008200042EA01031843974B58607047984908669D
:10083000704701460020934A506820F003000843A7
:10084000506070478F48406800F00C0070470146C8
:1008500000208C4A506820F0F00008435060704738
:1008600001460020874A506820F4E0600843506049
:10087000704701460020834A506820F4605040EAE7
:10088000C1005060704729B17E4A527A02437D4BC5
:100890005A7204E07B4A527A82437A4B5A7270470A
:1008A0007B49D8310860704701460020754A50687E
:1008B00020F440400843506070470021714A2032C4
:1008C0001170704A82F82010012802D004280AD141
:1008D00004E001216B4A2032117005E00521694ACC
:1008E0002032117000E000BF00BF70476949086006
:1008F00070476449096A0143624A11627047654959
:1009000044390860704730B50021002200240023DC
:100910005C4D6D6805F00C0121B1042905D0082952
:1009200023D105E05C4D056022E05B4D05601FE0D2
:10093000544D6D6805F47012524D6D6805F48034A5
:10094000022505EB92421CB9544D554305600BE05E
:100950004C4D6D6805F400351DB1504D5543056093
:1009600002E04D4D5543056002E04B4D056000BF70
:1009700000BF444D6D6805F0F0010909484D6B5CFE
:100980000568DD4045603F4D6D6805F4E061090A8A
:10099000434D6B5C4568DD4085603A4D6D6805F4FC
:1009A0006051C90A3E4D6B5C4568DD40C560354D00
:1009B0006D6805F44041890B3A4D6B5CC568B5FB29
:1009C000F3F5056130BD29B12E4A526902432D4B22
:1009D0005A6104E02B4A526982432A4B5A6170479C
:1009E00029B1284A92690243264B9A6104E0254ABC
:1009F00092698243234B9A61704729B1214AD26997
:100A00000243204BDA6104E01E4AD26982431D4B47
:100A1000DA61704729B11B4AD2680243194BDA6088
:100A200004E0184AD2688243164BDA60704729B155
:100A3000144A12690243134B1A6104E0114A126905
:100A40008243104B1A617047124940390860704761
:100A50000F49C86470470B49C87170470948406A1C
:100A600040F0807007494862704701460020054AFF
:100A700092680A400AB1012000E000207047014955
:100A800088727047001002400000FFF8FFFFF6FE7A
:100A9000000042428004424200127A0000093D00F8
:100AA000140000202400002031490143314A116024
:100AB000704770B5002100230F22C47804B32D4C79
:100AC000246804F4E064C4F5E064210AC1F104037D
:100AD000CA40447804FA03F18478144021430901A0
:100AE000254C0678A155047804F01F050124AC407C
:100AF00005786D11AD0005F1E025C5F8004109E06C
:100B0000047804F01F050124AC401C4D06787611D2
:100B100045F8264070BD1A4A0A400243154B1B1F78
:100B20001A60704739B1134A121D12680243114B03
:100B30001B1D1A6006E00F4A121D126882430D4BFE
:100B40001B1D1A607047042808D14FF0E021096985
:100B500041F004014FF0E022116107E04FF0E02185
:100B6000096921F004014FF0E02211617047000093
:100B70000000FA050CED00E000E400E080E100E098
:100B800080FFFF1F002109E0002201E0531C9AB200
:100B900040F6B8339A42F9DB4B1C99B28142F3DB41
:100BA00070474FF40072FA4B1A6052101A602022FC
:100BB0001B1F1A60F74AD06020221B1D1A601B1FE2
:100BC0001A60D2001A60F34AD16020221B1D1A60FD
:100BD0001B1F1A60D2001A60704700B50121002067
:100BE000FFF7DFFF4FF47A70FFF7CCFF0021012001
:100BF000FFF7D7FF41F290711020FFF7D2FF4FF4BB
:100C00001C516020FFF7CDFF01216120FFF7C9FFD4
:100C100002214620FFF7C5FF48F210011320FFF71D
:100C2000C0FF48F2FE011220FFF7BBFF4FF4A061A6
:100C30000220FFF7B6FF41F230010320FFF7B1FFBA
:100C400040F203313020FFF7ACFF40F20331312096
:100C5000FFF7A7FF40F203313220FFF7A2FF4FF466
:100C600040713320FFF79DFF03213420FFF799FFE8
:100C700040F203313520FFF794FF14213620FFF7AF
:100C800090FF40F203313720FFF78BFF40F2033132
:100C90003820FFF786FF40F203313920FFF781FF4C
:100CA0004FF440713A20FFF77CFF03213B20FFF710
:100CB00078FF40F203313C20FFF773FF4FF4A0515F
:100CC0003D20FFF76EFF4FF400719220FFF769FFA0
:100CD00040F203319320FFF764FF40F60D019020AE
:100CE000FFF75FFF41F218010320FFF75AFF40F2C0
:100CF00073110720FFF755FF00BD00B543F208014F
:100D0000E320FFF74EFF1221E720FFF74AFF41F2F1
:100D10003121EF20FFF745FF00210120FFF741FFC0
:100D20004FF4E0610220FFF73CFF41F23001032065
:100D3000FFF737FF00210420FFF733FF40F20721C0
:100D40000820FFF72EFF00210920FFF72AFF0021CE
:100D50000A20FFF726FF00210C20FFF722FF0021C9
:100D60000D20FFF71EFF00210F20FFF71AFF0021C3
:100D70001020FFF716FF07211120FFF712FF0021B7
:100D80001220FFF70EFF00211320FFF70AFF4FF498
:100D90007A70FFF7F7FE41F290611020FFF701FF34
:100DA00040F227211120FFF7FCFE3220FFF7EAFE78
:100DB0001D211220FFF7F5FE3220FFF7E3FE4FF46E
:100DC00000611320FFF7EDFE14212920FFF7E9FE53
:100DD0000B212B20FFF7E5FE3220FFF7D3FE002189
:100DE0002020FFF7DEFE00212120FFF7DAFE072199
:100DF0003020FFF7D6FE40F207713120FFF7D1FE19
:100E000006213220FFF7CDFE40F204713520FFF7B6
:100E1000C8FE41F604713620FFF7C3FE04213720D7
:100E2000FFF7BFFE00213820FFF7BBFE40F206713E
:100E30003920FFF7B6FE40F201713C20FFF7B1FE0A
:100E40000F213D20FFF7ADFE00215020FFF7A9FE46
:100E5000EF215120FFF7A5FE00215220FFF7A1FE50
:100E600040F23F115320FFF79CFE4FF41C516020CD
:100E7000FFF797FE01216120FFF793FE00216A2012
:100E8000FFF78FFE00218020FFF78BFE00218120DD
:100E9000FFF787FE00218220FFF783FE00218320D9
:100EA000FFF77FFE00218420FFF77BFE00218520D5
:100EB000FFF777FE10219020FFF773FE00219220AC
:100EC000FFF76FFE03219320FFF76BFE4FF488714D
:100ED0009520FFF766FE00219720FFF762FE0021B4
:100EE0009820FFF75EFE41F218010320FFF759FE3C
:100EF00040F273110720FFF754FE00BD08B54FF60E
:100F0000FF70ADF8000003208DF8020010208DF86E
:100F1000030069461F48FFF7A7FA08BD08B54FF65A
:100F2000FF70ADF8000003208DF8020048208DF816
:100F3000030069461748FFF797FA08BD70B50446E5
:100F40004FF4007012490860401008602020091F0B
:100F500008601048C4602020091D0860091F08604F
:100F6000C0000860FFF7DAFF4FF4806008490860AE
:100F70000848806885B20815091F0860FFF7BEFFA2
:100F80004FF400700249091F0860284670BD000038
:100F9000140C01400010014008B501211820FFF792
:100FA0001FFD01212020FFF71BFD4FF4E460ADF889
:100FB000000001208DF8020010208DF80300694622
:100FC000F848FFF751FAFFF799FFF648103000682C
:100FD00040F4C460F3491031086008BD10B5FFF754
:100FE000DBFF0020FFF7AAFFEF49088008460088D2
:100FF00048F23021884202D1FFF7EFFD01E0FFF710
:101000007CFE0020FFF79AFFE749088010BD01B57C
:10101000BDF80000E549088008BD01B5BDF8000035
:10102000E349088008BD30B504460D46214620201E
:10103000FFF7B7FD29462120FFF7B3FD30BD4FF480
:101040000071D84A143211604910121F116020211A
:101050001160D849C8602021121D1160121F116053
:10106000C90011604900116070474FF40070CD490C
:1010700014310860401008602020091F08602220F9
:10108000CC49C8602020C74914310860091F086096
:10109000C00008604000086070472DE9F043064634
:1010A0008946174600240025A046B04649464046DA
:1010B000FFF7B9FF00BF1EE0FFF7D7FF00250FE0E5
:1010C00037F814000121A940084020B9B848008829
:1010D000FFF7B5FF03E0B5480088FFF7B0FF6D1CD0
:1010E000102DEDD308F1010000F0FF0849464046FD
:1010F000FFF799FF641C182CDED3BDE8F08370B5B0
:1011000005460E461446A4F12000C4B204EB440088
:10111000A94901EB001231462846FFF7BEFF70BD1A
:10112000F0B507460C46002540F23F1609E022784C
:1011300031463846FFF7E3FFA6F1100086B2641C83
:101140006D1C207808B1142DF1D3F0BD10B5044604
:101150009AA12046FFF7E4FF10BD30B505460024F4
:1011600000210846FFF75FFFFFF77FFF00BF03E0A6
:101170002846FFF764FF641CB4F5963FF8D330BDF2
:10118000F0B504460D4616461F46B44206DBA01BCA
:10119000401C81B25020FFF704FD03E000215020E5
:1011A000FFF7FFFC21465120FFF7FBFCBD4206DBA9
:1011B000E81B401C81B25220FFF7F3FC03E0002142
:1011C0005220FFF7EEFC29465320FFF7EAFC2946A0
:1011D0002046FFF728FFF0BD00B54FF4A073F022C2
:1011E000591EEF20FFF7CCFF41F218010320FFF753
:1011F000D8FC00BD2DE9F0410646884615461F463D
:10120000002441463046FFF70EFF5FB9FFF72DFF80
:1012100000BF04E065480088FFF711FF641CAC4282
:10122000F8D310E000240CE0FFF71FFF5F480088B0
:10123000FFF705FF701CC6B241463046FFF7F3FECC
:10124000641CAC42F0D3BDE8F081F0B505460E4613
:1012500017461C460023224631462846FFF7CAFFA0
:10126000E919C8B2002322463146FFF7C3FF012324
:101270003A4631462846FFF7BDFF301B401C81B27D
:1012800001233A462846FFF7B5FFF0BD2DE9F043AC
:1012900006460F4690460320A0EB48090024454629
:1012A0006EE07A1991B23219D0B2FFF7BCFEFFF7A7
:1012B000DCFE3E480088FFF7C2FE7A1B91B232196D
:1012C000D0B2FFF7B0FEFFF7D0FE38480088FFF736
:1012D000B6FE7A1991B2321BD0B2FFF7A4FEFFF727
:1012E000C4FE32480088FFF7AAFE7A1B91B2321B77
:1012F000D0B2FFF798FEFFF7B8FE2C480088FFF742
:101300009EFE3A1991B27219D0B2FFF78CFEFFF728
:10131000ACFE26480088FFF792FE3A1B91B2721984
:10132000D0B2FFF780FEFFF7A0FE20480088FFF74D
:1013300086FE3A1991B2721BD0B2FFF774FEFFF726
:1013400094FE1A480088FFF77AFE3A1B91B2721B8E
:10135000D0B2FFF768FEFFF788FE14480088FFF759
:101360006EFEB9F1000F04DA062000EB8400814420
:1013700005E0601B0A2101EB800081446D1E641CA6
:10138000AC428ED9BDE8F08370B506460024002536
:1013900040F23F110020FFF746FEFFF766FE00BF58
:1013A0002DE00000000C01402C000020280000204F
:1013B0002A000020001001409A1700082020202059
:1013C000202020202020202020202020202020201D
:1013D0000000000000250FE056F824000121A9407C
:1013E000084020B95F480088FFF729FE03E05E4807
:1013F0000088FFF724FE6D1C202DEDD3641CB4F58E
:10140000166FE7D370BD70B50446002500266688C8
:10141000A08846EA00466589A08945EA0045701B18
:1014200046082C4441F208010320FFF7BAFBFFF7FE
:101430001CFE002504E02088FFF701FEA41C6D1CA3
:10144000B542F8D341F218010320FFF7AAFB70BDA3
:1014500010B54FF400704549086040100860202026
:10146000091F086022204249C86020203F490860C7
:10147000091F0860C0000860FFF750FD4FF480604E
:101480003A4908603A48806884B20815091F086024
:10149000FFF734FD4FF400703449091F08602046FF
:1014A00010BD00B500211020FFF77BFB00211120AB
:1014B000FFF777FB00211220FFF773FB00211320B9
:1014C000FFF76FFB1420FFF75DFB41F2B0711020B6
:1014D000FFF767FB40F237111120FFF762FB052091
:1014E000FFF750FB40F239111220FFF75AFB05209D
:1014F000FFF748FB4FF4E8511320FFF752FB13218D
:101500002920FFF74EFB0520FFF73CFB40F273114B
:101510000720FFF746FB00BD00B540F2731107201E
:10152000FFF73FFB00BD00B500210720FFF739FBA7
:1015300000BD30B5054600210846FFF774FDFFF7F2
:1015400094FD002409E015F814206100491C695C31
:1015500042EA0120FFF773FD641CB4F5963FF2DB0D
:1015600030BD00002A00002028000020140C01409B
:10157000001001402B49086000BF2A490968002972
:10158000FBD17047284800684FF47A72B0FBF2F143
:10159000B1F1807F00D31DE021F07F40401E4FF06D
:1015A000E022506150170F22002807DA13071D0EA2
:1015B0001E4B00F00F04241F1D5503E013071C0EE3
:1015C0001B4B1C5400BF00204FF0E022906107200D
:1015D000106100BF4FF4A060FFF766FAC820FFF764
:1015E000C9FF00F065F8012000F05AF81148FEF735
:1015F000E4FF40F47F4421460E48FEF7EBFF002055
:1016000000F04EF8FFF7EAFC1F20FFF7A6FD1F20B1
:10161000FFF703FD4FF6FF70FFF7F9FC00F020F82D
:1016200000BFFEE7300000200000002018ED00E0C1
:1016300000E400E000100140704700BFFEE700BF7B
:10164000FEE700BFFEE700BFFEE770477047704748
:1016500002480068401E01490860704730000020C1
:1016600008B501210920FFF7BBF901210A48FEF75F
:10167000CCFF1020ADF8000003208DF802001020F0
:101680008DF8030069460548FEF7EEFE1021034879
:10169000FEF797FF08BD000000013000000C01407C
:1016A00010B50446224604211B48FEF78EFF10BDEC
:1016B00038B501212020FFF793F901211020FFF711
:1016C0008FF94FF47F40ADF8000003208DF8020041
:1016D00010208DF8030069461048FEF7C5FE04206F
:1016E000ADF8000003208DF8020010208DF80300F3
:1016F00069460948FEF7B8FE0120FFF7D1FF074809
:10170000FEF75BFF40F47F4421460448FEF762FF8A
:101710000020FFF7C5FF38BD001401400010014054
:10172000704770477047754600F02CF8AE460500CC
:101730006946534620F00700854618B020B5FEF7ED
:1017400031FDBDE820404FF000064FF000074FF09C
:1017500000084FF0000B21F00701AC46ACE8C009CF
:10176000ACE8C009ACE8C009ACE8C0098D467047D8
:1017700010B50446AFF300802046BDE81040FEF7E8
:10178000FCBC0000004870473400002001491820CC
:10179000ABBEFEE72600020070470000000000001C
:1017A0000000000000000000000000000000000039
:1017B0000000000000000000000000000000000029
:1017C0000000000000000000000000008001800117
:1017D0008001800180018001800180018001800101
:1017E0008001800180010000000080018001000074
:1017F0000000000000000000000000000000CC001D
:10180000CC00CC00CC00CC00CC00000000000000DC
:1018100000000000000000000000000000000000C8
:1018200000000000000000000000000000000000B8
:10183000000000000000600C600C600C30063006F8
:10184000FE1FFE1F300638071803FE1FFE1F180379
:1018500018038C018C018C01000000008000E00363
:10186000F80F9C0E8C1C8C188C009800F801E00777
:10187000800E801C8C188C189C18B80CF00FE0039C
:101880008000800000000000000000000000000058
:101890000E181B0C110C11061106110311039B01EC
:1018A0008E01C038C06C60446044304430441844F9
:1018B000186C0C380000000000000000E001F0038C
:1018C0003807180618063003F001F000F8009C31C4
:1018D0000E33061E061C061C063FFC73F02100009A
:1018E00000000000000000000000000000000C00EC
:1018F0000C000C000C000C000C00000000000000AC
:1019000000000000000000000000000000000000D7
:1019100000000000000000000000000000020003C2
:101920008001C000C0006000600030003000300066
:101930003000300030003000300060006000C00037
:10194000C0008001000300020000000020006000D1
:10195000C0008001800100030003000600060006AD
:1019600000060006000600060006000300038001D2
:101970008001C000600020000000000000000000A6
:10198000000000000000C000C000D806F807E00119
:1019900030033807000000000000000000000000D5
:1019A0000000000000000000000000000000000037
:1019B00000000000000080018001800180018001A2
:1019C000FC3FFC3F8001800180018001800100001C
:1019D0000000000000000000000000000000000007
:1019E00000000000000000000000000000000000F7
:1019F00000000000000000000000000080018001E5
:101A00000001000180000000000000000000000054
:101A100000000000000000000000000000000000C6
:101A20000000E007E00700000000000000000000E8
:101A300000000000000000000000000000000000A6
:101A40000000000000000000000000000000000096
:101A5000000000000000000000000000C000C00006
:101A6000000000000000000000000000000C000C5E
:101A70000006000600060003000300038003800147
:101A800080018001C000C000C00060006000000054
:101A9000000000000000000000000000E003F0076C
:101AA000380E180C0C180C180C180C180C180C18F4
:101AB0000C180C180C18180C380EF007E003000076
:101AC0000000000000000000000000000001800194
:101AD000C001F0019801880180018001800180012E
:101AE000800180018001800180018001800100006F
:101AF000000000000000000000000000E003F80FFC
:101B0000180C0C180C1800180018000C0006000324
:101B10008001C000600030001800FC1FFC1F0000A6
:101B2000000000000000000000000000E001F807D5
:101B3000180E0C0C0C0C000C0006C003C007000CA7
:101B4000001800180C180C18180CF807E003000017
:101B5000000000000000000000000000000C000E6B
:101B6000000F000F800DC00C600C600C300C180CC6
:101B70000C0CFC3FFC3F000C000C000C000C0000A7
:101B8000000000000000000000000000F80FF80F47
:101B9000180018000C00EC03FC071C0E001C0018B9
:101BA000001800180C181C0C180EF807E0030000B1
:101BB000000000000000000000000000C007F00F5F
:101BC000381C181818000C00CC03EC0F3C0E1C1C21
:101BD0000C180C180C18181C380EF007E003000045
:101BE000000000000000000000000000FC1FFC1FBF
:101BF000000C00060006000380038001C001C00045
:101C0000E000600060007000300030003000000034
:101C1000000000000000000000000000E003F007EA
:101C2000380E180C180C180C3806F007F007180CB2
:101C30000C180C180C180C18380CF80FE0030000E6
:101C4000000000000000000000000000E003F007BA
:101C5000380E1C0C0C180C180C181C1C381EF81B09
:101C6000E0190018000C000C1C0EF807F001000031
:101C70000000000000000000000000000000000064
:101C80000000000000008001800100000000000052
:101C90000000000000000000000080018001000042
:101CA0000000000000000000000000000000000034
:101CB0000000000000008001800100000000000022
:101CC0000000000000000000000080018001000111
:101CD0000001800000000000000000000000000083
:101CE000000000000000000000000010001C800F39
:101CF000E003F8001800F800E003800F001C00105B
:101D000000000000000000000000000000000000D3
:101D100000000000000000000000F81F00000000AC
:101D20000000F81F0000000000000000000000009C
:101D300000000000000000000000000000000000A3
:101D40000000000000000000000008003800F00162
:101D5000C007001F0018001FC007F001380008006E
:101D6000000000000000000000000000E003F80F89
:101D7000180C0C180C180018000C00060003800149
:101D8000C000C000C00000000000C000C000000093
:101D90000000000000000000000000000000E0075C
:101DA00018180420C229224A11440944094409444C
:101DB00009221113E20C024004201818E007000069
:101DC000000000000000000000000000800380030D
:101DD000C006C006C006600C600C30183018301801
:101DE000F83FF83F1C700C600C6006C006C0000095
:101DF000000000000000000000000000FC03FC0FD9
:101E00000C0C0C180C180C180C0CFC07FC0F0C1804
:101E10000C300C300C300C300C18FC1FFC07000090
:101E2000000000000000000000000000C007F01FDC
:101E300038381C300C7006600600060006000600EC
:101E40000600060006600C701C30F01FE007000062
:101E5000000000000000000000000000FE03FE0F74
:101E6000060E061806180630063006300630063014
:101E70000630063006180618060EFE0FFE03000098
:101E8000000000000000000000000000FC3FFC3FDC
:101E90000C000C000C000C000C00FC1FFC1F0C00C4
:101EA0000C000C000C000C000C00FC3FFC3F000080
:101EB000000000000000000000000000F83FF83FB4
:101EC00018001800180018001800F81FF81F180054
:101ED000180018001800180018001800180000005A
:101EE000000000000000000000000000E00FF83FCC
:101EF0003C780E6006E007C00300030003FE03FE0B
:101F000003C007C006C00EC03CF0F83FE00F000061
:101F10000000000000000000000000000C300C3049
:101F20000C300C300C300C300C30FC3FFC3F0C30D3
:101F30000C300C300C300C300C300C300C300000FD
:101F4000000000000000000000000000800180018F
:101F50008001800180018001800180018001800179
:101F600080018001800180018001800180010000EA
:101F70000000000000000000000000000006000655
:101F80000006000600060006000600060006000621
:101F900000060006180618063807F003E0010000E6
:101FA00000000000000000000000000006300618DD
:101FB000060C060606038601C60066007600DE00F3
:101FC0008E0106030606060C0618063006600000A1
:101FD00000000000000000000000000018001800D1
:101FE0001800180018001800180018001800180031
:101FF00018001800180018001800F81FF81F00003B
:102000000000000000000000000000000EE01EF0D4
:102010001EF01EF036D836D836D836D866CC66CC08
:1020200066CCC6C6C6C6C6C6C6C686C386C30000BC
:102030000000000000000000000000000C301C3018
:102040003C303C306C306C30CC30CC308C310C338C
:102050000C330C360C360C3C0C3C0C380C300000AD
:10206000000000000000000000000000E007F81F72
:102070001C380E70066003C003C003C003C003C059
:1020800003C003C006600E701C38F81FE007000094
:10209000000000000000000000000000FC0FFC1F1A
:1020A0000C380C300C300C300C300C18FC1FFC07BA
:1020B0000C000C000C000C000C000C000C000000CC
:1020C000000000000000000000000000E007F81F12
:1020D0001C380E70066003E003C003C003C003C0D9
:1020E00003C007E006630E3F1C3CF83FE0F700C06A
:1020F000000000000000000000000000FE0FFE1FB6
:1021000006380630063006300638FE1FFE07060386
:102110000606060C06180618063006300660000093
:10212000000000000000000000000000E003F80FC5
:102130001C0C0C180C180C001C00F803E00F001EFF
:102140000038063006300E301C1CF80FE007000087
:10215000000000000000000000000000FE7FFE7F85
:102160008001800180018001800180018001800167
:1021700080018001800180018001800180010000D8
:102180000000000000000000000000000C300C30D7
:102190000C300C300C300C300C300C300C300C305F
:1021A0000C300C300C300C301818F81FE007000011
:1021B0000000000000000000000000000360063086
:1021C000063006300C180C180C18180C180C380EA9
:1021D00030063006700760036003C001C0010000D4
:1021E0000000000000000000000000000360C36168
:1021F000C361C36166336633663366336633663301
:102200006C1B6C1B6C1B2C1A3C1E380E380E00000D
:102210000000000000000000000000000FE00C7053
:1022200018303018700C600EC00780038003C003A4
:10223000E006700C301C18180C300E6007E000002F
:1022400000000000000000000000000003C0066065
:102250000C301C383818300C6006E007C0038001D1
:1022600080018001800180018001800180010000E7
:10227000000000000000000000000000FC7FFC7F68
:10228000006000300018000C000600038001C00050
:102290006000300018000C000600FE7FFE7F00008A
:1022A000000000000000000000000000E003E00368
:1022B000600060006000600060006000600060001E
:1022C000600060006000600060006000600060000E
:1022D00060006000E003E003000000003000300018
:1022E000600060006000C000C000C000C00180014C
:1022F00080018001000300030003000600060000C7
:10230000000000000000000000000000E003E00307
:1023100000030003000300030003000300030003A5
:102320000003000300030003000300030003000395
:1023300000030003E003E003000000000000C00110
:10234000C00160036003600330063006180C180CEF
:10235000000000000000000000000000000000007D
:10236000000000000000000000000000000000006D
:10237000000000000000000000000000000000005D
:10238000000000000000000000000000FFFFFFFF51
:102390000000000000000000000000000C000C0025
:1023A0000C000C000C000C000000000000000000FD
:1023B000000000000000000000000000000000001D
:1023C000000000000000000000000000000000000D
:1023D000000000000000F003F8071C0C0C0C000FBC
:1023E000F00FF80C0C0C0C0C1C0FF80FF018000080
:1023F00000000000000000000000000018001800AD
:10240000180018001800D803F80F380C18181818FE
:102410001818181818181818380CF80FD8030000D6
:1024200000000000000000000000000000000000AC
:10243000000000000000C003F007300E180C180068
:10244000180018001800180C300EF007C003000028
:10245000000000000000000000000000001800184C
:10246000001800180018C01BF01F301C181818188E
:102470001818181818181818301CF01FC01B000066
:10248000000000000000000000000000000000004C
:10249000000000000000C003F00F300C1818F81FF7
:1024A000F81F180018003818301CF00FC007000083
:1024B000000000000000000000000000800FC00FBE
:1024C000C000C000C000F007F007C000C000C0009E
:1024D000C000C000C000C000C000C000C0000000BC
:1024E00000000000000000000000000000000000EC
:1024F000000000000000E00DF80F180E0C0C0C0C92
:102500000C0C0C0C0C0C0C0C180EF80FE00D000C45
:102510000C0C1C06F807F001000000001800180061
:10252000180018001800D807F80F381C18181818C9
:10253000181818181818181818181818181800004B
:10254000000000000000000000000000C000C0000B
:10255000000000000000C000C000C000C000C000BB
:10256000C000C000C000C000C000C000C00000002B
:10257000000000000000000000000000C000C000DB
:10258000000000000000C000C000C000C000C0008B
:10259000C000C000C000C000C000C000C000C0003B
:1025A000C000C000F8007800000000000C000C0023
:1025B0000C000C000C000C0C0C060C038C01CC0065
:1025C0006C00FC009C018C030C030C060C0C00003E
:1025D000000000000000000000000000C000C0007B
:1025E000C000C000C000C000C000C000C000C000EB
:1025F000C000C000C000C000C000C000C00000009B
:1026000000000000000000000000000000000000CA
:102610000000000000007C3CFF7EC7E383C183C153
:1026200083C183C183C183C183C183C183C10000CE
:10263000000000000000000000000000000000009A
:102640000000000000009807F80F381C1818181830
:10265000181818181818181818181818181800002A
:10266000000000000000000000000000000000006A
:10267000000000000000C003F00F300C18181818FC
:102680001818181818181818300CF00FC00300008C
:10269000000000000000000000000000000000003A
:1026A000000000000000D803F80F380C18181818A4
:1026B0001818181818181818380CF80FD80318001C
:1026C00018001800180018000000000000000000AA
:1026D000000000000000C01BF01F301C1818181864
:1026E0001818181818181818301CF01FC01B0018DC
:1026F000001800180018001800000000000000007A
:10270000000000000000B007F0037000300030004F
:102710003000300030003000300030003000000069
:1027200000000000000000000000000000000000A9
:10273000000000000000E003F003380E180C380021
:10274000F003C007000C180C380EF007E00300007F
:1027500000000000000000000000000000008000F9
:10276000C000C000C000F007F007C000C000C000FB
:10277000C000C000C000C000C000C007800700004B
:102780000000000000000000000000000000000049
:102790000000000000001818181818181818181849
:1027A0001818181818181818381CF01FE01900000D
:1027B0000000000000000000000000000000000019
:1027C0000000000000000C18180C180C180C300643
:1027D00030063006600360036003C001C0010000E2
:1027E00000000000000000000000000000000000E9
:1027F000000000000000C141C141C3616363636325
:1028000063633636363636361C1C1C1C1C1C000016
:1028100000000000000000000000000000000000B8
:102820000000000000001C38381C300C60066003FB
:102830006003600360036006300C381C1C38000025
:102840000000000000000000000000000000000088
:102850000000000000001830301830187018600CAC
:10286000600CE00CC006C00680038003800380017A
:102870008001C001F00070000000000000000000B6
:10288000000000000000FC1FFC1F000C00060003FD
:102890008001C000600030001800FC1FFC1F000019
:1028A00000000000000000000000000000038001A4
:1028B000C000C000C000C000C000C00060006000D8
:1028C000300060004000C000C000C000C000C00078
:1028D000C0008001000300000000000080018001B2
:1028E00080018001800180018001800180018001E0
:1028F00080018001800180018001800180018001D0
:102900008001800180018001000000006000C000A3
:10291000C00180018001800180018001000300036B
:102920000006000300018001800180018001800118
:102930008001C000600000000000000000000000F6
:1029400000000000000000000000F010F81F080F59
:102950000000000000000000000000000000000077
:102960000000000000000000000000008C290008AA
:10297000000000203400000028010008C0290008E1
:1029800034000020640600004401000800A24A044C
:10299000000000000000000001020304060708090F
:1029A00000000000010203040102030406070809F5
:1029B000020406080000FFFF000000000000000005
:04000005080000ED02
:00000001FF
