:020000040800F2
:100000007007002001010008E9210008EB21000829
:10001000EF210008F3210008F7210008000000008C
:10002000000000000000000000000000FD210008AA
:10003000FB21000800000000FF2100080122000849
:100040001B0100081B0100081B010008C12A000851
:100050001B0100081B0100081F270008512700088A
:10006000B52700081B0100081B0100081B01000840
:100070001B0100081B0100081B0100081B010008F0
:100080001B0100081B0100081B0100081B010008E0
:100090001B0100081B0100081B0100087D27000848
:1000A0001B0100081B0100081B0100081B010008C0
:1000B0001B0100081B0100081B0100081B010008B0
:1000C0001B0100081B0100081B0100081B010008A0
:1000D0001B0100081B0100085F2900081B01000824
:1000E0001B0100081B0100081B010008DFF80CD0F1
:1000F00003F084FA004800474D21000870070020F3
:100100000648804706480047FEE7FEE7FEE7FEE7B1
:10011000FEE7FEE7FEE7FEE7FEE7FEE70302000874
:10012000ED0000080CB50020019000906C480068BC
:1001300040F480306A49086000BF6948006800F4F4
:10014000003000900198401C0190009818B9019867
:10015000B0F5A06FF1D16248006800F4003010B132
:100160000120009001E0002000900098012843D178
:100170005C48006840F010005A4908600846006872
:1001800020F0030008600846006840F002000860A4
:1001900053484068524948600846406848600846ED
:1001A000406840F4806048600846406820F47C1055
:1001B00048600846406840F4E81048600846006817
:1001C00040F08070086000BF4548006800F0007093
:1001D0000028F9D04248406820F0030040494860B8
:1001E0000846406840F00200486000BF3C48406854
:1001F00000F00C000828F9D10CBD10B5FFF792FFF4
:1002000010BD10B53648006840F001003449086060
:10021000084640683449084031494860084600684B
:10022000324908402E4908600846006820F48020C2
:1002300008600846406820F4FE0048604FF41F0044
:100240008860FFF7DAFF4FF000602949086010BDB1
:1002500010B5002100200022214B5B6803F00C0147
:1002600021B1042906D0082928D107E0214B224CCE
:10027000236027E01F4B204C236023E0184B5B6872
:1002800003F47010164B5B6803F48032022303EB17
:10029000904022B9194B4343174C23600DE0104B9B
:1002A0005B6803F4003323B1144B4343124C2360C7
:1002B00003E0104B4343104C236003E00D4B0E4C06
:1002C000236000BF00BF064B5B68C3F303130C4CF5
:1002D000E15C094B1B68CB40074C236010BD00005C
:1002E00000100240002002400000FFF8FFFFF6FE71
:1002F00008ED00E000127A000000002000093D0037
:100300000400002010B50446CC48844208D10121E5
:10031000042000F02DFB0021042000F029FB46E022
:10032000C748844208D10121082000F021FB0021A8
:10033000082000F01DFB3AE0C248844208D10121A8
:10034000102000F015FB0021102000F011FB2EE022
:10035000BD48844208D10121202000F009FB002182
:10036000202000F005FB22E0B848844208D101219A
:10037000402000F0FDFA0021402000F0F9FA16E0DC
:10038000B348844208D10121802000F0F1FA002115
:10039000802000F0EDFA0AE0AE48844207D1012146
:1003A000801500F0E5FA0021A01500F0E1FA10BD7B
:1003B00010B50121084600F0DBFA0021012000F011
:1003C000D7FA10BD2DE9F041024600250026002095
:1003D00000230024002791F803C00CF00F0591F8CA
:1003E00003C00CF0100CBCF1000F03D091F802C058
:1003F0004CEA050591F800C0BCF1000F31D014683B
:1004000000202BE04FF0010C0CFA00F3B1F800C013
:100410000CEA03069E4220D183004FF00F0C0CFA29
:1004200003F7BC4305FA03FC4CEA040491F803C04B
:10043000BCF1280F06D14FF0010C0CFA00FCC2F8F9
:1004400014C00AE091F803C0BCF1480F05D14FF089
:10045000010C0CFA00FCC2F810C0401C0828D1D3D3
:100460001460B1F800C0BCF1FF0F34DD5468002007
:100470002EE000F1080C4FF0010808FA0CF3B1F877
:1004800000C00CEA03069E4221D183004FF00F0CFE
:100490000CFA03F7BC4305FA03FC4CEA040491F898
:1004A00003C0BCF1280F05D100F1080C08FA0CF8C4
:1004B000C2F8148091F803C0BCF1480F07D100F1D5
:1004C000080C4FF0010808FA0CF8C2F81080401C24
:1004D0000828CED35460BDE8F0814FF6FF7101804B
:1004E000022181700421C170704702460020936888
:1004F0000B400BB1012000E00020704701468868E6
:1005000080B2704702460020D3680B400BB1012037
:1005100000E0002070470146C86880B27047016162
:100520007047416170470AB1016100E04161704765
:10053000C16070474FF480320A43826181618261F9
:1005400082698269704702460020434B18684FF663
:100550008073184040EA021008433F4B1860704710
:100560003E49C8617047F0B50A46002300240021C7
:10057000002500F00046B6F1004F02D1364EF16979
:1005800001E0354E7168C0F3034583B200F44016B4
:10059000B6F5401F08D121F070612F4E766826F025
:1005A00070662D4F7E6012E000F48016B6F5801F55
:1005B00006D1032606FA05F4A14341F0706106E076
:1005C000460D360103FA06F6B14341F0706122B1DF
:1005D000460D360103FA06F6314300F00046B6F147
:1005E000004F02D11C4EF16101E01B4E7160F0BD65
:1005F00030B500228B071C0F0F2303FA04F2164BB1
:1006000008338C1053F824309343134C08348D1066
:1006100044F8253023468C1053F824308C07240FDF
:1006200000FA04F423430C4C08348D1044F82530B0
:1006300030BD0A49DC310860704700000008014005
:10064000000C01400010014000140140001801405E
:10065000001C014000200140000001400000204239
:10066000DF48006840F00100DD4908600846406846
:10067000DC490840DA49486008460068DA49084021
:10068000D74908600846006820F4802008600846C2
:10069000406820F4FE0048604FF41F0088607047F7
:1006A000CF49096821F48031CD4A116011460968AB
:1006B00021F480211160B0F5803F03D0B0F5802F88
:1006C0000ED106E0C649096841F48031C44A116080
:1006D00007E0C349096841F4A021C14A116000E064
:1006E00000BF00BF704710B5014600220023002064
:1006F0004A11012A02D1BA4C236806E0022A02D12B
:10070000B74C236A01E0B64C636A01F01F02012472
:1007100094401C400CB1012000E0002010BD38B511
:10072000002000900024002500BF3120FFF7DBFFF0
:1007300005460098401C00900098B0F5A06F01D0CD
:10074000002DF2D03120FFF7CEFF08B1012400E0E8
:100750000024204638BD01460020A14A106820F040
:10076000F80040EAC10010607047A0490860704777
:10077000024600209A4B586820F47C1042EA01039C
:100780001843974B58607047984908667047014670
:100790000020934A506820F00300084350607047DF
:1007A0008F48406800F00C007047014600208C4ADA
:1007B000506820F0F0000843506070470146002068
:1007C000874A506820F4E060084350607047014653
:1007D0000020834A506820F4605040EAC100506015
:1007E000704729B17E4A527A02437D4B5A7204E027
:1007F0007B4A527A82437A4B5A7270477B49D8318E
:100800000860704701460020754A506820F4404057
:100810000843506070470021714A20321170704ABD
:1008200082F82010012802D004280AD104E0012116
:100830006B4A2032117005E00521694A203211709F
:1008400000E000BF00BF7047694908607047644915
:10085000096A0143624A1162704765494439086078
:10086000704730B500210022002400235C4D6D68E4
:1008700005F00C0121B1042905D0082923D105E098
:100880005C4D056022E05B4D05601FE0544D6D68D6
:1008900005F47012524D6D6805F48034022505EBA5
:1008A00092421CB9544D554305600BE04C4D6D68A8
:1008B00005F400351DB1504D5543056002E04D4D26
:1008C0005543056002E04B4D056000BF00BF444D3D
:1008D0006D6805F0F0010909484D6B5C0568DD4065
:1008E00045603F4D6D6805F4E061090A434D6B5C5E
:1008F0004568DD4085603A4D6D6805F46051C90A70
:100900003E4D6B5C4568DD40C560354D6D6805F456
:100910004041890B3A4D6B5CC568B5FBF3F5056149
:1009200030BD29B12E4A526902432D4B5A6104E071
:100930002B4A526982432A4B5A61704729B1284A8F
:1009400092690243264B9A6104E0254A92698243E8
:10095000234B9A61704729B1214AD2690243204B47
:10096000DA6104E01E4AD26982431D4BDA617047A6
:1009700029B11B4AD2680243194BDA6004E0184AD5
:10098000D2688243164BDA60704729B1144A126963
:100990000243134B1A6104E0114A12698243104B5F
:1009A0001A61704712494039086070470F49C8649E
:1009B00070470B49C87170470948406A40F0807021
:1009C00007494862704701460020054A92680A407C
:1009D0000AB1012000E00020704701498872704789
:1009E000001002400000FFF8FFFFF6FE0000424248
:1009F0008004424200127A0000093D0014000020E9
:100A00002400002031490143314A1160704770B51C
:100A1000002100230F22C47804B32D4C246804F471
:100A2000E064C4F5E064210AC1F10403CA404478DB
:100A300004FA03F18478144021430901254C067817
:100A4000A155047804F01F050124AC4005786D1110
:100A5000AD0005F1E025C5F8004109E0047804F097
:100A60001F050124AC401C4D0678761145F8264040
:100A700070BD1A4A0A400243154B1B1F1A6070478B
:100A800039B1134A121D12680243114B1B1D1A6023
:100A900006E00F4A121D126882430D4B1B1D1A609F
:100AA0007047042808D14FF0E021096941F00401A2
:100AB0004FF0E022116107E04FF0E021096921F0D9
:100AC00004014FF0E0221161704700000000FA05B8
:100AD0000CED00E000E400E080E100E080FFFF1F9B
:100AE00010B50446FA48844208D101214015FFF7A9
:100AF0003FFF00216015FFF73BFF17E0F5488442F8
:100B000008D101210015FFF733FF00212015FFF761
:100B10002FFF0BE0F048844208D10121C803FFF702
:100B200027FF00214FF40040FFF722FF10BD30B532
:100B30000246002000235068E84C20400D790C68E4
:100B400044EA0524204350609068E54C2040D1E9F8
:100B500002542C434D7944EA450420439060D06A06
:100B600020F470000C7C641EE4B2234340EA03507E
:100B7000D06230BD00210160017141718160C160AE
:100B800001210174704721B1826842F00102826044
:100B900003E0826822F001028260704721B182681E
:100BA00042F48072826003E0826822F48072826084
:100BB000704710B50023CBB21AB144681C4344609F
:100BC00002E044689C43446010BD816841F0080124
:100BD00081607047014600208A6802F008020AB16D
:100BE000012000E000207047816841F0040181602D
:100BF0007047014600208A6802F004020AB1012011
:100C000000E00020704721B1826842F4A0028260B7
:100C100003E0826822F4A00282607047014600204F
:100C20008A6802F480020AB1012000E000207047C7
:100C300010B50A4600210023416821F46041531E8B
:100C400041EA4331416010BD21B1426842F4006283
:100C5000426003E0426822F4006242607047F0B5EF
:100C600004460D4600200021092D11DDE068A5F1A4
:100C70000A0606EB4607072606FA07F18843A5F1A0
:100C80000A0606EB460603FA06F10843E0600CE0AC
:100C9000206905EB4507072606FA07F1884305EBAF
:100CA000450603FA06F108432061072A0FDA606B54
:100CB000561E06EB86071F2606FA07F18843561EC6
:100CC00006EB860605FA06F10843606322E00D2A6A
:100CD0000FDA206BD61F06EB86071F2606FA07F1F0
:100CE0008843D61F06EB860605FA06F10843206303
:100CF00010E0E06AA2F10D0606EB86071F2606FA51
:100D000007F18843A2F10D0606EB860605FA06F107
:100D10000843E062F0BD21B1826842F48012826033
:100D200003E0826822F48012826070470146C86C3A
:100D300080B2704766484C300068704721B1426805
:100D400042F48062426003E0426822F480624260C2
:100D5000704721B1426842F48052426003E0426829
:100D600022F48052426070470A460021816821F4D3
:100D7000E04111438160704721B1826842F4004232
:100D8000826003E0826822F400428260704721B1F1
:100D9000826842F40212826003E0826822F4021246
:100DA00082607047014600208A6802F400120AB18E
:100DB000012000E000207047F0B5044615460020F1
:100DC00000220026092911DDE068A1F10A0707EBDE
:100DD000470C072707FA0CF29043A1F10A0707EB2B
:100DE000470703FA07F21043E0600CE0206901EBCB
:100DF000410C072707FA0CF2904301EB410703FA75
:100E000007F210432061A06BC0F30156EF1C06F1FE
:100E1000010CA7EB0C0707EB870C1F2707FA0CF256
:100E20009043EF1C06F1010CA7EB0C0707EB8707BB
:100E300001FA07F21043A063F0BD10B50A46002185
:100E40000023816B21F44011531E41EA0351816359
:100E500010BD08B5002300930090009B0B44009345
:100E6000009B1A6008BD08B5024600200090009261
:100E700001F12800009B184400900098006880B29F
:100E800008BD0A4600214168164B194011434160D4
:100E900070474162826270470A460021416821F032
:100EA0001F0111434160704740B109490831096889
:100EB00041F40001064A0832116007E00449083194
:100EC000096821F40001024A0832116070470000ED
:100ED0000024014000280140003C0140FFFEF0FFDB
:100EE000FDF7F1FFFFFD3FFF0246002013680B40B6
:100EF0000BB1012000E000207047CA430260704738
:100F000070B502460020002300240B125568CEB2B3
:100F100005EA060415681D4015B10CB1012000E07A
:100F2000002070BD00220A12D34303607047000006
:100F300010B50120FFF736FD0020FFF733FD10BD8F
:100F40002A49086070472949091F086070472749E6
:100F500084310860704701460020254A10884FF60A
:100F60007F4210400843224A10807047014600200B
:100F70001F4A10884FF68072104008431C4A1080A8
:100F8000704708B500220092194A2C3A0092009A44
:100F900002440092009A116008BD08B50146002085
:100FA000009013482C380090009808440090009856
:100FB000008808BD0D489C300068C0B270470C48DE
:100FC0000830008840F00100094908310880704766
:100FD0000648A0300068C0B2704705480830008855
:100FE00040F00200024908310880704704860D4233
:100FF0002C6C0040002044490860091D0860091D50
:101000000860091D086041483F4914310860704775
:1010100000213D498279002A3AD00A4612680368C5
:101020009A430B461A600A1D126803689A430B1D07
:101030001A60027911440A6803681A430A60324A46
:101040000832126803689A432F4B08331A601A1D3E
:10105000126803689A432C4B0C331A604279102AA9
:101060000ED11A1F126803681A43274B08331A60FF
:101070001A1D126803681A43234B0C331A600DE0E3
:101080002149427911440A6803681A430A6005E05D
:10109000027911440A6803689A430A607047002184
:1010A000016001710C214171002181717047164965
:1010B000103109680143144A10321160704701462B
:1010C0000020114A143212680A400AB1012000E0DF
:1010D000002070470C491431086070470146002019
:1010E0000022094B1B6803EA0102074B14331B68FB
:1010F0000B4013B10AB1012000E000207047024903
:10110000143108607047000000040140FFFF0F0029
:1011100010B501210807FFF738FC00214FF080507F
:10112000FFF733FC10BD2A4908627047284908615F
:10113000704701460020274A106820F0E00008436D
:10114000106070472249A0310860704710B5024610
:101150000020204B186820F00300104318601E4B3D
:101160001B6843F004031C4C2360012901D130BFEC
:1011700000E020BF184B1B6823F00403164C2360CB
:1011800010BD1448006840F0040012490860084689
:10119000006840F0020008600F48006840F004005A
:1011A0000D49086000BF00BF30BF704701460020F6
:1011B000084A52680A400AB1012000E00020704746
:1011C0000449096841EA8001024A11607047000041
:1011D00000000E420070004010ED00E029B1504ABE
:1011E000128802434E4B1A8004E04D4A1288824313
:1011F0004B4B1A8070474A48001D008840F0100091
:101200004749091D088070474548001D00884FF672
:10121000EF7108404249091D08807047002140488D
:101220001C300188001F008841EA0040704700B56B
:101230000246FFF7E0FF100C394918310880091DFC
:101240000A80FFF7E1FF00BD00B50246FFF7D3FFBC
:10125000C2F30340324908310880091D0A80FFF7B4
:10126000D3FF00BD00B50246FFF7C5FF100C2C49A7
:1012700020310880091D0A80FFF7C6FF00BD00204D
:101280002749103109880907080B254914310988B5
:101290000843704700BF2248001D008800F020006E
:1012A0000028F8D070471E48001D00884FF6F771DF
:1012B00008401B49091D088000BF1948001D00880F
:1012C00000F008000028F8D0704701460020144ABA
:1012D000121D12880A400AB1012000E00020704768
:1012E0000F49091D098881430D4A121D118070475D
:1012F000014600200A4A121D12880A40D0B2084A4C
:1013000012880A4012B108B1012000E000207047A5
:101310000349091D09888143014A121D1180704744
:101320000028004010B50446FB48844209D1012141
:101330008803FFF71DFB00214FF48040FFF718FBE7
:1013400032E0F648844209D101214804FFF71DFB31
:1013500000214FF40030FFF718FB25E0F0488442ED
:1013600009D101218804FFF710FB00214FF48020F0
:10137000FFF70BFB18E0EB48844209D10121C804B8
:10138000FFF703FB00214FF40020FFF7FEFA0BE00C
:10139000E548844208D101210805FFF7F6FA00214B
:1013A0004FF48010FFF7F1FA10BD2DE9F04786B039
:1013B00005460E460024A24600BFA1460027B0897C
:1013C00000B100BF2F462C8A4CF6FF700440F08815
:1013D00004432C82AC894EF6F3100440B088318966
:1013E0000843718908430443AC81AC8A4FF6FF403F
:1013F0000440B0890443AC8201A8FFF732FAC64822
:10140000874202D1DDF810A001E0DDF80CA0A88928
:1014100000F4004040B10AEBCA0000EB0A1031684A
:101420004900B0FBF1F807E00AEBCA0000EB0A1034
:1014300031688900B0FBF1F86420B8FBF0F00401DA
:101440002009642101FB1089A88900F4004040B103
:10145000322000EBC900B0FBF1F000F007000443BC
:1014600008E0322000EB09106421B0FBF1F000F03D
:101470000F0004432C8106B0BDE8F0874FF41651ED
:10148000016000218180C18001810C214181002106
:101490008181704710B502460020108A4FF2FF0389
:1014A00018400B884C8823438C882343CC882343E3
:1014B0001843108210BD0021018041808180C180CD
:1014C000704721B1828942F40052828104E082890E
:1014D0004DF6FF731A4082817047F0B50346002431
:1014E00000260025002040F66A17B94200D100BF4F
:1014F0001846C1F3421401F01F06012707FA06F54A
:10150000012C01D10C3004E0022C01D1103000E09C
:1015100014301AB107682F43076002E00768AF4331
:101520000760F0BD1AB1838A0B43838202E0838A8D
:101530008B4383827047028A4FF6F0731A4002820F
:10154000028A0A430282704782894FF2FF731A406F
:10155000828182890A438281704721B1828942F067
:101560000202828104E082894FF6FD731A40828173
:101570007047028A4FF6DF731A400282028A0A43DA
:101580000282704721B1028A42F48042028204E062
:10159000028A4BF6FF731A4002827047C1F30802B9
:1015A0008280704701468888C0F3080070478189AF
:1015B00041F0010181817047028BD2B20283028B1C
:1015C00042EA012202837047028B02F47F420283C7
:1015D000028B0A430283704721B1828A42F02002C3
:1015E000828204E0828A4FF6DF731A40828270475B
:1015F00021B1828A42F01002828204E0828A4FF690
:10160000EF731A408282704721B1828A42F0080249
:10161000828204E0828A4FF6F7731A408282704712
:1016200021B1828942F40042828103E08289C2F3BF
:101630000E028281704721B1828A42F40062828266
:1016400004E0828A4FF2FF731A4082827047828AD6
:101650004FF6FB731A408282828A0A438282704765
:1016600021B1828A42F00202828204E0828A4FF62D
:10167000FD731A408282704702460020B1F5007F58
:1016800000D100BF13880B400BB1012000E0002007
:10169000704701F40072B2F5007F00D100BFCA4369
:1016A0000280704770B50246002400230025002008
:1016B00040F66A16B14200D100BFC1F3421501F0F5
:1016C0001F03012606FA03F3012D02D19689334048
:1016D00006E0022D02D1168A334001E0968A33409B
:1016E0000C12012606FA04F41688344013B10CB12A
:1016F000012000E0002070BD10B50022002340F65C
:101700006A14A14200D100BF0A1201249440A3B27E
:10171000DC43048010BD000000380140004400405C
:1017200000480040004C004000500040002109E00B
:10173000002201E0531C9AB240F6B8339A42F9DB1A
:101740004B1C99B28142F3DB70474FF40072FA4BA5
:101750001A6052101A6020221B1F1A60F74AD060CC
:1017600020221B1D1A601B1F1A60D2001A60F34A48
:10177000D16020221B1D1A601B1F1A60D2001A6044
:10178000704700B501210020FFF7DFFF4FF47A70AA
:10179000FFF7CCFF00210120FFF7D7FF41F2907146
:1017A0001020FFF7D2FF4FF41C516020FFF7CDFF50
:1017B00001216120FFF7C9FF02214620FFF7C5FF85
:1017C00048F210011320FFF7C0FF48F2FE0112207B
:1017D000FFF7BBFF4FF4A0610220FFF7B6FF41F215
:1017E00030010320FFF7B1FF40F203313020FFF753
:1017F000ACFF40F203313120FFF7A7FF40F2033185
:101800003220FFF7A2FF4FF440713320FFF79DFF16
:1018100003213420FFF799FF40F203313520FFF711
:1018200094FF14213620FFF790FF40F20331372058
:10183000FFF78BFF40F203313820FFF786FF40F2BD
:1018400003313920FFF781FF4FF440713A20FFF751
:101850007CFF03213B20FFF778FF40F203313C205F
:10186000FFF773FF4FF4A0513D20FFF76EFF4FF4D9
:1018700000719220FFF769FF40F203319320FFF7D8
:1018800064FF40F60D019020FFF75FFF41F2180161
:101890000320FFF75AFF40F273110720FFF755FFAF
:1018A00000BD00B543F20801E320FFF74EFF12210F
:1018B000E720FFF74AFF41F23121EF20FFF745FF14
:1018C00000210120FFF741FF4FF4E0610220FFF704
:1018D0003CFF41F230010320FFF737FF00210420D5
:1018E000FFF733FF40F207210820FFF72EFF00210A
:1018F0000920FFF72AFF00210A20FFF726FF002119
:101900000C20FFF722FF00210D20FFF71EFF002112
:101910000F20FFF71AFF00211020FFF716FF072105
:101920001120FFF712FF00211220FFF70EFF002108
:101930001320FFF70AFF4FF47A70FFF7F7FE41F22A
:1019400090611020FFF701FF40F227211120FFF7DF
:10195000FCFE3220FFF7EAFE1D211220FFF7F5FE04
:101960003220FFF7E3FE4FF400611320FFF7EDFE96
:1019700014212920FFF7E9FE0B212B20FFF7E5FEBC
:101980003220FFF7D3FE00212020FFF7DEFE0021EA
:101990002120FFF7DAFE07213020FFF7D6FE40F2C4
:1019A00007713120FFF7D1FE06213220FFF7CDFE6F
:1019B00040F204713520FFF7C8FE41F6047136206D
:1019C000FFF7C3FE04213720FFF7BFFE00213820B8
:1019D000FFF7BBFE40F206713920FFF7B6FE40F27A
:1019E00001713C20FFF7B1FE0F213D20FFF7ADFE56
:1019F00000215020FFF7A9FEEF215120FFF7A5FE9F
:101A000000215220FFF7A1FE40F23F115320FFF7C3
:101A10009CFE4FF41C516020FFF797FE01216120CE
:101A2000FFF793FE00216A20FFF78FFE0021802040
:101A3000FFF78BFE00218120FFF787FE0021822027
:101A4000FFF783FE00218320FFF77FFE0021842023
:101A5000FFF77BFE00218520FFF777FE1021902005
:101A6000FFF773FE00219220FFF76FFE0321932002
:101A7000FFF76BFE4FF488719520FFF766FE00219B
:101A80009720FFF762FE00219820FFF75EFE41F2EB
:101A900018010320FFF759FE40F273110720FFF7EA
:101AA00054FE00BD08B54FF6FF70ADF800000320EE
:101AB0008DF8020010208DF8030069461F48FEF7DC
:101AC00081FC08BD08B54FF6FF70ADF8000003209B
:101AD0008DF8020048208DF8030069461748FEF78C
:101AE00071FC08BD70B504464FF4007012490860DF
:101AF000401008602020091F08601048C4602020A2
:101B0000091D0860091F0860C0000860FFF7DAFFC0
:101B10004FF48060084908600848806885B208155D
:101B2000091F0860FFF7BEFF4FF400700249091F4C
:101B30000860284670BD0000140C014000100140F0
:101B400008B501211820FEF7F9FE01212020FEF73B
:101B5000F5FE4FF4E460ADF8000001208DF80200BE
:101B600010208DF803006946F848FEF72BFCFFF7BC
:101B700099FFF6481030006840F4C460F349103112
:101B8000086008BD10B5FFF7DBFF0020FFF7AAFFD4
:101B9000EF4908800846008848F23021884202D187
:101BA000FFF7EFFD01E0FFF77CFE0020FFF79AFF53
:101BB000E749088010BD01B5BDF80000E54908807F
:101BC00008BD01B5BDF80000E349088008BD30B587
:101BD00004460D4621462020FFF7B7FD2946212067
:101BE000FFF7B3FD30BD4FF40071D84A14321160D5
:101BF0004910121F116020211160D849C8602021AE
:101C0000121D1160121F1160C9001160490011609E
:101C100070474FF40070CD491431086040100860DF
:101C20002020091F08602220CC49C8602020C74915
:101C300014310860091F0860C00008604000086097
:101C400070472DE9F04306468946174600240025D3
:101C5000A046B04649464046FFF7B9FF00BF1EE028
:101C6000FFF7D7FF00250FE037F814000121A94046
:101C7000084020B9B8480088FFF7B5FF03E0B54831
:101C80000088FFF7B0FF6D1C102DEDD308F10100A7
:101C900000F0FF0849464046FFF799FF641C182CE6
:101CA000DED3BDE8F08370B505460E461446A4F1B8
:101CB0002000C4B204EB4400A94901EB00123146F4
:101CC0002846FFF7BEFF70BDF0B507460C4600255D
:101CD00040F23F1609E0227831463846FFF7E3FF2D
:101CE000A6F1100086B2641C6D1C207808B1142D7A
:101CF000F1D3F0BD10B504469AA12046FFF7E4FFEA
:101D000010BD30B50546002400210846FFF75FFFEF
:101D1000FFF77FFF00BF03E02846FFF764FF641C66
:101D2000B4F5963FF8D330BDF0B504460D461646DF
:101D30001F46B44206DBA01B401C81B25020FFF7B7
:101D400004FD03E000215020FFF7FFFC2146512055
:101D5000FFF7FBFCBD4206DBE81B401C81B25220B2
:101D6000FFF7F3FC03E000215220FFF7EEFC2946C9
:101D70005320FFF7EAFC29462046FFF728FFF0BD75
:101D800000B54FF4A073F022591EEF20FFF7CCFFEF
:101D900041F218010320FFF7D8FC00BD2DE9F04106
:101DA0000646884615461F46002441463046FFF742
:101DB0000EFF5FB9FFF72DFF00BF04E06548008804
:101DC000FFF711FF641CAC42F8D310E000240CE0D4
:101DD000FFF71FFF5F480088FFF705FF701CC6B2C2
:101DE00041463046FFF7F3FE641CAC42F0D3BDE839
:101DF000F081F0B505460E4617461C4600232246E4
:101E000031462846FFF7CAFFE919C8B20023224627
:101E10003146FFF7C3FF01233A4631462846FFF714
:101E2000BDFF301B401C81B201233A462846FFF714
:101E3000B5FFF0BD2DE9F04306460F46904603205E
:101E4000A0EB4809002445466EE07A1991B2321998
:101E5000D0B2FFF7BCFEFFF7DCFE3E480088FFF77C
:101E6000C2FE7A1B91B23219D0B2FFF7B0FEFFF773
:101E7000D0FE38480088FFF7B6FE7A1991B2321BBF
:101E8000D0B2FFF7A4FEFFF7C4FE32480088FFF788
:101E9000AAFE7A1B91B2321BD0B2FFF798FEFFF771
:101EA000B8FE2C480088FFF79EFE3A1991B27219CD
:101EB000D0B2FFF78CFEFFF7ACFE26480088FFF794
:101EC00092FE3A1B91B27219D0B2FFF780FEFFF773
:101ED000A0FE20480088FFF786FE3A1991B2721BD7
:101EE000D0B2FFF774FEFFF794FE1A480088FFF7A0
:101EF0007AFE3A1B91B2721BD0B2FFF768FEFFF771
:101F000088FE14480088FFF76EFEB9F1000F04DA6E
:101F1000062000EB8400814405E0601B0A2101EBF0
:101F2000800081446D1E641CAC428ED9BDE8F083F4
:101F300070B506460024002540F23F110020FFF74F
:101F400046FEFFF766FE00BF2DE00000000C0140DA
:101F50002C000020280000202A0000200010014052
:101F6000DC3F0008202020202020202020202020CE
:101F700020202020202020200000000000250FE04D
:101F800056F824000121A940084020B95F48008884
:101F9000FFF729FE03E05E480088FFF724FE6D1C72
:101FA000202DEDD3641CB4F5166FE7D370BD70B56A
:101FB0000446002500266688A08846EA0046658912
:101FC000A08945EA0045701B46082C4441F20801EF
:101FD0000320FFF7BAFBFFF71CFE002504E0208872
:101FE000FFF701FEA41C6D1CB542F8D341F21801A5
:101FF0000320FFF7AAFB70BD10B54FF400704549F0
:102000000860401008602020091F08602220424913
:10201000C86020203F490860091F0860C0000860B0
:10202000FFF750FD4FF480603A4908603A488068F5
:1020300084B20815091F0860FFF734FD4FF40070E3
:102040003449091F0860204610BD00B5002110204A
:10205000FFF77BFB00211120FFF777FB0021122007
:10206000FFF773FB00211320FFF76FFB1420FFF72E
:102070005DFB41F2B0711020FFF767FB40F23711B2
:102080001120FFF762FB0520FFF750FB40F23911EA
:102090001220FFF75AFB0520FFF748FB4FF4E851E9
:1020A0001320FFF752FB13212920FFF74EFB0520D9
:1020B000FFF73CFB40F273110720FFF746FB00BD22
:1020C00000B540F273110720FFF73FFB00BD00B5DC
:1020D00000210720FFF739FB00BD30B50546002180
:1020E0000846FFF774FDFFF794FD002409E015F89A
:1020F00014206100491C695C42EA0120FFF773FD6E
:10210000641CB4F5963FF2DB30BD00002A000020CD
:1021100028000020140C01400010014010B50028D8
:1021200007DA0A07140E2C4A00F00F031B1FD454C1
:1021300003E00A07130E294A135410BD284908600A
:1021400000BF274909680029FBD17047254800686E
:102150004FF47A71B0FBF1F4B4F1807F00D311E059
:1021600024F07F40401E4FF0E02148610F214FF0E6
:10217000FF30FFF7D3FF00204FF0E02188610720F8
:10218000086100BF4FF4A060FEF73CFC0021481E30
:10219000FFF7C4FFC820FFF7D1FFFFF7F3FC1F20B4
:1021A000FFF7AFFD1F20FFF70CFD4FF6FF70FFF7A5
:1021B00002FD00F02DFB00F00DFA00F07BFB00F0BB
:1021C000F3F900F025F800F02FFCC820FFF7B6FF68
:1021D00001E000F04BFEFCE718ED00E000E400E059
:1021E0003000002000000020704700BFFEE700BF65
:1021F000FEE700BFFEE700BFFEE77047704770478D
:1022000002480068401E0149086070473000002005
:1022100000B587B04FF40040FEF7F4FA01214FF407
:102220000270FEF78BFB0120ADF8180000208DF83E
:102230001B0006A92448FEF7C5F8002001908DF880
:1022400008008DF809004FF46020039000200490EE
:1022500001208DF8140001A91C48FEF768FC072333
:10226000012208211948FEF7FAFC01211748FEF760
:102270008AFC1648FEF7A9FC00BF1448FEF7AAFC2A
:102280000028FAD11148FEF7AFFC00BF0F48FEF757
:10229000B0FC0028FAD107B000BD10B50024012120
:1022A0000A48FEF7B0FC00BF02210848FEF71CFEFA
:1022B0000028F9D00548FEF739FD044600210348FF
:1022C000FEF7A1FC204610BD000C01400024014097
:1022D00070B505460C4600F075F8A02000F00CF92A
:1022E00000F0ACF8284600F007F900F0A7F8204607
:1022F00000F002F900F0A2F800F082F870BD70B5AD
:102300000446002500F05EF8A02000F0F5F800F08B
:1023100095F8204600F0F0F800F090F800F052F840
:10232000A12000F0E9F800F089F800F011F9054665
:1023300000F0CBF800F064F8284670BD08B58020A6
:10234000ADF8000002208DF8020028208DF803006F
:1023500069469F48FEF736F808BD08B58020ADF8FD
:10236000000002208DF8020010208DF8030069465D
:102370009748FEF727F808BD10B5044624B1802120
:102380009348FEF7CCF803E080219148FEF7C9F8A6
:1023900010BD10B5044624B140218D48FEF7BFF8AA
:1023A00003E040218A48FEF7BCF810BD10B580213B
:1023B0008748FEF79AF810BD002100E0491C8142D1
:1023C000FCD3704710B50120FFF7D6FF4FF4FA7029
:1023D000FFF7F2FF0120FFF7DCFF4FF4FA70FFF781
:1023E000EBFF0020FFF7C8FF4FF4FA70FFF7E4FFA0
:1023F0000020FFF7CEFF4FF4FA70FFF7DDFF10BDAE
:1024000010B50020FFF7C5FF4FF4FA70FFF7D4FFB7
:102410000020FFF7B1FF4FF4FA70FFF7CDFF012066
:10242000FFF7B7FF4FF4FA70FFF7C6FF0120FFF781
:10243000A3FF4FF4FA70FFF7BFFF10BD10B50524DE
:10244000FFF77CFF4FF4FA70FFF7B6FF0120FFF7AC
:10245000A0FF4FF4FA70FFF7AFFF0CE0601E84B2EC
:102460004FF4FA70FFF7A8FF2CB9FFF776FFFFF7DC
:10247000C7FF002010BDFFF799FF0028EED1FFF73E
:102480006CFF0020FFF785FF4FF4FA70FFF794FF11
:102490000120EFE710B50020FFF76EFF4FF4FA7050
:1024A000FFF78AFF4FF4FA70FFF786FF0120FFF76E
:1024B00070FF4FF4FA70FFF77FFF0020FFF769FF0E
:1024C0004FF4FA70FFF778FF10BD10B50120FFF749
:1024D00053FF4FF4FA70FFF76FFF0120FFF759FF2A
:1024E0004FF4FA70FFF768FF0020FFF752FF4FF438
:1024F000FA70FFF761FF10BD70B5044608251BE0B8
:102500000020FFF746FF4FF4FA70FFF755FF04F085
:102510008000FFF731FF4FF4FA70FFF74DFF6006C0
:10252000040E4FF4FA70FFF747FF0120FFF731FF69
:102530004FF4FA70FFF740FF281EA5F10101CDB25C
:10254000DED1FFF726FF4FF4FA70FFF735FF70BDBD
:1025500070B508250024FFF7F1FE16E06006040EB2
:102560000020FFF716FF4FF4FA70FFF725FF4FF436
:10257000FA70FFF721FF0120FFF70BFF4FF4FA700D
:10258000FFF71AFFFFF712FF0443281EA5F1010110
:10259000CDB2E3D1FFF7FDFE4FF4FA70FFF70CFF69
:1025A000FFF7DBFE204670BD08B501210820FEF7CD
:1025B000C5F9C020ADF8000002208DF802001020FF
:1025C0008DF8030069460248FDF7FCFE08BD0000D7
:1025D000000C01401FB501210C20FEF7AFF90121CD
:1025E0000846FEF7ABF940F20110ADF804000320F5
:1025F0008DF8060048208DF8070001A97848FDF7FE
:10260000E1FE0220ADF8040048208DF8070001A982
:102610007448FDF7D7FE00210846FDF7E9FF0120C9
:10262000029000208DF80C000C208DF80D00012088
:102630008DF80E0002A8FEF7EBFC06208DF80000D6
:1026400001208DF8010000208DF8020001208DF896
:1026500003006846FEF7DBF908210020FDF7C8FFFC
:102660004FF48070029000208DF80C000C208DF843
:102670000D0001208DF80E0002A8FEF7C9FC1720FE
:102680008DF8000001208DF801008DF802008DF812
:1026900003006846FEF7BBF901210846FDF7A8FFD5
:1026A0000220029000208DF80C000C208DF80D0007
:1026B00001208DF80E0002A8FEF7AAFC07208DF875
:1026C000000001208DF8010002208DF80200012099
:1026D0008DF803006846FEF79AF902210120FDF704
:1026E00087FF0420029000208DF80C000C208DF84C
:1026F0000D0001208DF80E0002A8FEF789FC0820CD
:102700008DF8000001208DF8010003208DF80200F3
:1027100001208DF803006846FEF779F91FBD10B55A
:102720000120FEF7DBFC90B11420FFF707FD01212B
:102730002B48FDF7DAFE38B92B48007808B901209C
:1027400000E00020284908700120FEF7D8FC10BDE9
:1027500010B50220FEF7C2FC78B11420FFF7EEFCA2
:1027600002212248FDF7C1FE20B921480078401C13
:102770001F4908700220FEF7C2FC10BD10B54FF4CF
:102780008070FEF7ABFCA0B11420FFF7D7FC4FF42C
:1027900080711348FDF7A9FE38B916480078401C2F
:1027A000144908700120144908704FF48070FEF736
:1027B000A6FC10BD10B50420FEF790FC78B11420E3
:1027C000FFF7BCFC04210948FDF78FFE20B90B4838
:1027D0000078401C094908700420FEF790FC10BDE9
:1027E000000801400014014034000020000C0140AA
:1027F00045000020440000205C010020460000202D
:1028000010B50446224604212848FDF78CFE10BD71
:1028100038B501213020FEF791F80420ADF8000012
:1028200003208DF8020010208DF8030069461F4830
:10283000FDF7C8FD4FF47F40ADF8000003208DF890
:10284000020010208DF8030069461948FDF7BAFD13
:102850000120FFF7D5FF1648FDF75DFE40F47F44E9
:1028600021461348FDF764FE0020FFF7C9FF38BD7D
:1028700010B504460120FFF7C3FF21460C48FDF7C1
:1028800057FE0020FFF7BCFF10BD10B54FF47E408F
:10289000FFF7EEFFC820FFF751FC4FF47F40FFF732
:1028A000E7FFC820FFF74AFC10BD000000140140FC
:1028B0000010014000B587B001214804FEF74BF835
:1028C00001210420FEF73AF80820ADF81800042092
:1028D0008DF81B0006A94B48FDF774FD0420ADF8E8
:1028E000180003208DF81A0018208DF81B0006A987
:1028F0004448FDF767FD26208DF8140000208DF870
:10290000150002208DF8160001208DF8170005A88B
:10291000FEF77DF84FF4165001900020ADF8080046
:10292000ADF80A00ADF80C00ADF810000C20ADF8C1
:102930000E0001A93448FEF738FD012240F225516E
:102940003148FEF7CAFD002240F227712E48FEF7FB
:10295000C4FD01212C48FEF7B4FD07B000BD10B541
:1029600040F225512848FEF79DFEB0B12648FEF7FB
:1029700019FEC1B225480478601C244A107024480E
:1029800001551046007823490978884205D1002274
:1029900040F225511C48FEF7A0FD40F227711A486D
:1029A000FEF780FEC0B11C480478601C1A4A107003
:1029B0001A48015D1448FEF7F1FD174800781849E0
:1029C0000978884208D1002240F227710E48FEF7AC
:1029D00084FD01201349087010BD10B500BF1148D7
:1029E00000780028FBD0FE200D49087000200A491D
:1029F00008700C490870012240F227710248FEF766
:102A00006CFD10BD0008014000440040470100205B
:102A100070020020490100204601002047000020EC
:102A2000480100204A01002008B503208DF800006D
:102A300000208DF8010001208DF802008DF80300C0
:102A40006846FDF7E4FF01214FF0C050FDF783FF1A
:102A50000120FEF768FBFEF76BFA0120FDF7F4FE9C
:102A600000BF6120FDF73FFE0028FAD04FF4007050
:102A7000FDF7EDFE0120FDF7F0FEFEF714FCFEF77A
:102A800009FC01210846FEF7A9FBFEF703FC49F605
:102A90004040FEF7D9FBFEF7FDFB294909784FF4CA
:102AA00061625143274A1278C2EB021201EB8201A4
:102AB000254A12788818FEF7BAFBFEF7EBFB08BD33
:102AC00010B50120FEF714FCC8B3FEF7A7FB1F49A1
:102AD0000860FEF7DFFB1D4800681D49884204D1ED
:102AE0000020FEF7A4FBFEF7D5FB184800684FF462
:102AF0006161B0FBF1F017490870144800684FF4A9
:102B00006161B0FBF1F201FB12003C21B0FBF1F07E
:102B1000114908700D4800683C21B0FBF1F201FB3F
:102B200012000E490870094800680D49097888426A
:102B300002D101200B4908700120FEF7E9FB10BD0E
:102B400050010020510100205201002058010020B6
:102B50007F51010053010020540100205501002045
:102B6000380000204B0100202DE9F04186B0C84814
:102B7000007820B3FF21C74800F02FFAC64800684C
:102B800000F05AFB07468846C448006800F054FB32
:102B900005460B46C2480078C2490978C24A1278F5
:102BA000CDE90078CDE9022104902A46BFA1B948B9
:102BB00000F092FDFFF711FF0020B5490870C148F1
:102BC00000786B2820D1BF48407830281CD1BD4800
:102BD00080782E2818D10020BB490870B948C078E9
:102BE0003038C4B221460120FFF772FBFF21A9480B
:102BF00000F0F3F9B5A1A74800F06EFDFFF7EDFE78
:102C0000FF21B04800F0E9F9B1480078B1490978EE
:102C1000084008B1FFF739FEAF48007801285DD1C0
:102C2000AE480078012809D11F20FFF76AF801207B
:102C3000AB4908700020A94908704FE0A948007806
:102C4000002810DDA8480078022805DAA648007898
:102C5000401CA549087002E00020A349087000202C
:102C6000A04908703AE0A1480078002836DD9E4867
:102C7000007868B98C480078172805DA8A48007807
:102C8000401C8949087026E000208749087022E02E
:102C90009548007801280DD1824800783B2805DA54
:102CA00080480078401C7F49087014E000207D496E
:102CB000087010E08C48007802280CD17848007821
:102CC0003B2805DA76480078401C7549087002E018
:102CD0000020734908700020844908707E480078FD
:102CE00001281DDD7D480078012805D11F20FFF750
:102CF00008F800207A4908706B4800781021484392
:102D000068490978C1EB011100EB81006449097839
:102D100008447749087000206F49087072490870AC
:102D200006B0BDE8F0812DE9F047FFF7B6FA04469A
:102D300000F07DFA594908600846006800F07CFA06
:102D400006464FF066326B4B00F090F904460022C5
:102D5000694B00F0FDF9804600F09AFA4F4908608F
:102D60000120FFF7CCFA044600F061FA4A490860F6
:102D700062494948006800F03BF947490860084645
:102D8000006800F059FA80464FF06632594B00F067
:102D90006DF904460D464148006800F04DFA0646BC
:102DA00022462B4600F05CFA03D201204849087005
:102DB00002E0002046490870BDE8F08738B5374882
:102DC000006800F039FA044622460B464CA15348ED
:102DD00000F082FC51493020FEF776FF2E48006853
:102DE00000F02AFA044622460B464DA14B4800F05B
:102DF00073FC4A494820FEF767FF3648007820B147
:102E00004EA1464800F068FC03E052A1434800F0A0
:102E100063FC42496020FEF757FF54480078009059
:102E2000534803785348027853A13C4800F054FCBF
:102E30003A497820FEF748FF38BD08B556A1374813
:102E400000F04AFC35494820FEF73EFF1448007860
:102E50000090144803781448027855A12F4800F0D8
:102E60003BFC2E497820FEF72FFF08BD10B5FFF779
:102E70005AFF1B48007810B9FFF7A0FF05E018487B
:102E80000078012801D1FFF7D8FFFFF76DFE10BDD4
:102E90004B01002047000020400000203C000020A3
:102EA000370000203600002035000020252E326635
:102EB0002B252E31662B252E3264252E3264252EAD
:102EC00032640A0070020020470100206F6B0A0084
:102ED0003900002034000020440000205C01002064
:102EE0003A000020450000205D010020460000203F
:102EF0003800002066660A400000B0400000204113
:102F000056313A252E3266562020202020202020BF
:102F100020202020202020202020200060010020D0
:102F20006B3A252E316620202020202020202020D2
:102F30002020202020202020202020004C45443A22
:102F40004F4E202020202020202020202020202024
:102F5000200000004C45443A4F46462020202020C7
:102F600020202020202020202000000055010020CB
:102F70005401002053010020252E32643A252E32C0
:102F8000643A252E3264202020202020202020207A
:102F9000202020202000000020202020202020535E
:102FA000657474696E6720202020202020000000B6
:102FB000202020202020252E32642D252E32642D25
:102FC000252E32642020202020200000D2B201E0F3
:102FD00000F8012B491EFBD270470022F6E710B51E
:102FE00013460A4604461946FFF7F0FF204610BD77
:102FF00030B480EA010202F0004530F0004221F0D6
:10300000004013D090B1C30DD40DC2F31601C0F32C
:103010001600E41A41F4000140F400027D349142AC
:1030200001D3641C00E04900002C02DA30BC00200F
:1030300070474FF400000023914201D3891A0343E3
:1030400040084FEA4101F7D151B1914202D14FF00E
:10305000004105E002D24FF0010101E06FF00101F3
:1030600003EBC450284430BC00F075B92DE9FE4F85
:1030700081EA030404F0004421F0004100944FF081
:10308000000B23F0004350EA01045ED052EA03042F
:103090005BD0C3F30A54C1F30A552C44A4F2F334B1
:1030A0000194A0FB0254C1F3130141F48011C3F356
:1030B000130343F4801301FB024400FB034E840A14
:1030C000970A44EA815447EA8357A4FB07680295AC
:1030D0008D0A05FB07854FEA932C04FB0C5427054A
:1030E000029D4FEA065847EA1637B5EB08056EEB26
:1030F000070C870E920E47EA811742EA8312A7FB5C
:103100000201B6EB0B0164EB00042B0D43EA0C3318
:103110005E1844EB1C50DA465146E7FB0201C5F34A
:1031200013044FEA0B3343EA14534FEA0432019C71
:1031300043EA0603A4F10C040294009CCDE900B418
:1031400000F04FF903B0BDE8F08F00200146F9E729
:103150002DE9F04D81EA030404F0004B21F0004515
:1031600014464FF0000A23F0004150EA050220D037
:1031700054EA01021DD0C5F30A570246C5F31303F2
:10318000C1F31300C1F30A5640F4801543F48013D1
:10319000A7EB0608101BD64608F2FD3873EB0500B6
:1031A00002D308F1010801E092185B41B8F1000F69
:1031B00003DA00200146BDE8F08D00204FF48011B5
:1031C000064684460EE0171B73EB050705D3121B5A
:1031D00063EB050306434CEA010C49084FEA300053
:1031E00092185B4150EA0107EDD152EA030012D078
:1031F00082EA040083EA0501084305D0101BAB41B5
:1032000006D20122002306E000224FF0004302E034
:103210006FF0010253101AEB06004CEB085110EB53
:103220000A0041EB0B01BDE8F04D00F0CBB896234E
:103230000022114600F098B800F0004230F0004043
:103240000AD0C10D01F56071C0F3160042EA0151C8
:10325000C208400711437047002001467047000034
:1032600030B5041E71F1000404DB4FF0004440420D
:1032700064EB0101141E73F1000405DB1C464FF0E2
:103280000043524263EB0403994208BF904230BDB1
:1032900001F0004330B421F0004150EA010206D0B1
:1032A0000A0DA2F56072C1F31301002A02DC30BCE2
:1032B00000207047440F44EAC104C100E01830BC4C
:1032C00000EBC25000F047B830B50B460146002075
:1032D0002022012409E021FA02F59D4205D303FAD8
:1032E00002F5491B04FA02F52844151EA2F1010259
:1032F000F1DC30BD2DE9F05F0546002092469B468B
:1033000088460646814640241BE0284641464746FB
:10331000224600F094F953465A46C01A914110D300
:1033200011461846224600F07BF92D1A67EB01087A
:103330004F4622460120002100F072F917EB0009E8
:103340004E41201EA4F10104DFDC484631462A46E6
:103350004346BDE8F09F0029A8BF7047401C4900C4
:1033600008BF20F00100704710B4B0FA80FC00FAEA
:103370000CF050EA010404BF10BC704749B1CCF115
:10338000200421FA04F411FA0CF118BF01212143A1
:103390000843A3EB0C01CB1D4FEA00614FEA10205C
:1033A00042BF002010BC704700EBC35010440029FE
:1033B000A4BF10BC7047401C490008BF20F00100AA
:1033C00010BC704710B5141E73F1000408DA401CDD
:1033D00041F1000192185B411A4301D120F0010034
:1033E00010BD2DE9F04D92469B4611B1B1FA81F224
:1033F00002E0B0FA80F22032904600F011F9044663
:103400000F4640EA0A0041EA0B0153465A46084378
:1034100013D0114653EA010019D0C8F140025046BA
:1034200000F00DF905460E4650465946424600F05A
:10343000F7F8084305D0012004E020463946BDE8EE
:10344000F08D0020054346EAE0762C4337430A9886
:103450006305E40AA0EB08000022FD0A44EA475491
:103460000A3002D500200146E9E70105101969413B
:10347000DDE9084500196941BDE8F04DA2E72DE9F5
:10348000FE4F804681EA0300C00F0C46009021F0F9
:10349000004123F00045B8EB0200A94105D24046A7
:1034A000214690461C460B46024623F0004010433E
:1034B00047D0270DC7F30A00C3F30A510290401A00
:1034C000019040286BDAC3F3130040F4801B00988E
:1034D000924620B10023D2EB030A63EB0B0B019859
:1034E0005946C0F14002504600F09AF806460D4693
:1034F00050465946019A00F0B2F810EB08006141BD
:10350000002487EA115284EAE7731A4340D0009AF4
:1035100062B3019A012A4FEA075215DC001B61EBE6
:1035200002014FF0004202EA0752CDE90042001CBE
:1035300041F5801132462B46FFF753FF03B0BDE83B
:10354000F08F40462146F9E7001B61EB0201001CA9
:1035500041F5801300185B412018A2F5001747EBD6
:10356000030140EAD570B6196D4111E06D084FEACC
:10357000360645EAC0754FEA0752001B61EB0201AF
:10358000001C41F5801149084FEA300000195141F3
:1035900032462B4603B0BDE8F04FFFF713BF00984B
:1035A000012240000023D0EB020263EBE07300989D
:1035B00021464FEAE074B8EB000061EB0401E9E753
:1035C00083F000435BE781F0004158E7C1F30A5202
:1035D000C1F3130140F2FF3341F480119A4202DA41
:1035E00000200146704740F233439A42A2F2334230
:1035F00002DC524200F023B800F012B8064C074D2E
:1036000006E0E06840F0010394E8070098471034B2
:10361000AC42F6D3FCF76EFDAC510008CC5100086B
:10362000202A04DB203A00FA02F100207047914082
:10363000C2F1200320FA03F3194390407047202A77
:1036400004DB203A21FA02F00021704721FA02F34C
:10365000D040C2F120029140084319467047202A09
:1036600006DBCB17203A41FA02F043EAE07306E0AA
:1036700041FA02F3D040C2F12002914008431946BA
:10368000704770B58C1810F8015B15F0070301D175
:1036900010F8013B2A1106D110F8012B03E010F8B5
:1036A000016B01F8016B5B1EF9D12B0705D40023D8
:1036B000521E0DD401F8013BFAE710F8013BCB1A7A
:1036C000921C03E013F8015B01F8015B521EF9D56F
:1036D000A142D8D3002070BD0FB4084B10B504A987
:1036E00002AA039800F0DEF8044602A9002000F0C8
:1036F00070FC204610BC5DF814FB0000D33F0008AE
:1037000002E008C8121F08C1002AFAD170477047AA
:10371000002001E001C1121F002AFBD17047000008
:103720002DE9FF5F82B00021DDE90430020DDDF8F4
:1037300040B0034318D044F61050A2F2FF32424387
:103740001514119801281FD0A5EB0B00401C5FEA4F
:10375000000A4FF000064E4FDFF83891B046504651
:1037600015D5CAF1000413E0119801244AA30128D9
:1037700001D16FEA0B010298119AC0E90031C0E94A
:10378000024206B0BDE8F09FCBF10000DFE704463F
:103790000021404A491842EB0450CDE9001012E0E4
:1037A000E00707D032463B4640464946FFF75EFCFD
:1037B0008046894632463B4610461946FFF756FC7E
:1037C00006460F466410002CEAD1DDE90401DDE96C
:1037D0000023BAF1000F06DAFFF748FC42464B46D9
:1037E000FFF744FC05E0FFF7B3FC42464B46FFF70A
:1037F000AFFC04460E460022284BFFF731FD03D8EC
:103800004FF0FF30014607E00022254B20463146AD
:10381000FFF735FEFFF7DAFE102409E0002C0ADB83
:103820000A220023FFF766FD039B30321A55641EFF
:1038300050EA0102F2D1641C039AC4F1110314444A
:10384000119A012A03D0012208430DD10AE008434E
:1038500004D000204FF0110B119072E7A3EB0B0581
:103860006D1E0DE05B4504DD4FF0000205F1010522
:1038700004E003DA4FF00002A5F10105002AECD0C4
:1038800002981199C0E90231C0E9004579E70000CA
:10389000000014400000F03F300000000000F04342
:1038A0000000E03F2DE9FF4F95B09B468946064654
:1038B00000250FE2252877D100242746F84A012168
:1038C000059400E0044316F8013F203B01FA03F0A1
:1038D0001042F7D130782A2811D06FF02F033078BA
:1038E000A0F13002092A16D8059A44F0020402EB2E
:1038F000820203EB42021044761C0590EFE759F870
:10390000042B0592002A03DA504244F40054059037
:1039100044F00204761C30782E2816D116F8010FD8
:1039200044F004042A280DD06FF02F023078A0F163
:103930003003092B09D807EB870302EB4303C718B1
:10394000761CF3E759F8047B761C30786C280FD08E
:1039500006DC4C2817D068280DD06A2814D104E062
:10396000742810D07A280FD10DE044F400140AE036
:1039700044F4801401E044F440147278824202D18D
:1039800004F58014761C761C307866280BD013DC86
:10399000582877D009DC002875D04528F6D046286D
:1039A000F4D047281AD19DE118E0632835D0642867
:1039B00079D0652812D195E1702873D008DC67288A
:1039C000F1D069286FD06E280DD06F2806D1B5E0F0
:1039D00073282CD0752875D0782874D05A4617993A
:1039E00090476D1C75E1C4F30250022809D00328EA
:1039F0000DD0D9F8001004280DD00D6009F104098C
:103A000067E1D9F80010EA17C1E90052F6E7D9F8E2
:103A100000100D80F2E70D70F0E719F8041B8DF827
:103A2000001000208DF80100EA46012003E059F85B
:103A300004AB4FF0FF3061074FF0000102D40DE0FE
:103A400008F101018846B9420FDA8045F8DB1AF81F
:103A500008100029F4D108E008F1010188468142EC
:103A6000FADB1AF808100029F6D105985B46A0EB9E
:103A7000080721463846179A00F094FA284400EBCC
:103A8000080507E04DE029E10DE01AF8010B5A4660
:103A900017999047B8F10108F7D25B46214638469E
:103AA000179A13E142E00A220092C4F302524FF047
:103AB000000A022A08D059F804CB032A4FEAEC7115
:103AC0000AD00DE029E02AE009F1070121F0070200
:103AD000F2E802C1914609E00FFA8CFC4FEAEC7162
:103AE000042A03D14FFA8CFC4FEAEC71002907DA63
:103AF0000A460021DCF1000C61EB02012D2202E0FC
:103B0000220504D52B228DF80420012203E0E207D0
:103B100001D02022F7E7904659E00A2102E0102266
:103B20000DE010214FF0000A00910BE010224FF041
:103B3000000A44F004040827009203E008224FF032
:103B4000000A0092C4F30252022A05D059F804CBAD
:103B50000021032A08D009E009F1070121F007023A
:103B6000F2E802C1914605E01FFA8CFC042A01D15B
:103B70000CF0FF0C4FF00008220728D5702806D063
:103B8000009B83F0100353EA0A0305D00EE04022A5
:103B90008DF80420012208E05CEA010206D0302200
:103BA0008DF804208DF8050002229046009B83F0DA
:103BB000080353EA0A030AD15CEA010201D1620751
:103BC00005D530228DF804204FF001087F1E5828BB
:103BD00004D034A003900EA802900DE036A0F9E7BF
:103BE00053466046009AFFF785FB84460398825C43
:103BF0000298401E029002705CEA0100F0D1029827
:103C000006A9081A00F1200A600702D524F48034BE
:103C100000E00127574502DDA7EB0A0000E0002085
:103C200000EB0A01009005984144401A0590E0031A
:103C300006D45B462146179A059800F0B3F905446F
:103C4000002706E001A85A46C05D179990476D1CF1
:103C50007F1C4745F6DBE0030CD55B462146179AEF
:103C6000059800F09FF9054404E030205A46179962
:103C700090476D1C0099481E00900029F5DC08E073
:103C8000029802995A460078491C02911799904768
:103C90006D1CBAF10001AAF1010AF1DC65E1000036
:103CA0000928010030313233343536373839616212
:103CB00063646566000000003031323334353637D6
:103CC00038394142434445460000000000F058F9AD
:103CD0000544761C307800287FF4ECAD19B02846F6
:103CE000BDE8F08F620700D4062709F1070222F031
:103CF000070CFCE80223E14603F000485FEA080CE9
:103D000002D00FF2702C0DE05FEA045C02D50FF2D6
:103D1000682C07E05FEAC47C02D00FF2602C01E05F
:103D2000AFF2700C4FF0FF3823F00043CDF850C0D5
:103D300065280CD006DC452809D046281DD0472828
:103D40003DD13DE0662818D067287ED138E00021BB
:103D5000112F01DB112000E0781CCDE9000106A93C
:103D60000EA8FFF7DDFCDDE90F010E9A039100219B
:103D7000009207F1010A04914DE04FF000400097D6
:103D8000CDE9011006A90EA8FFF7CAFCDDE90F0274
:103D900003920E9B11990022DDF80CA0009304926F
:103DA00011B9791C00EB010AB7EB0A0004D4C0F189
:103DB000FF3007F1010A0490AAEB0700019044E0EC
:103DC000012F00DA01270021112F01DD112000E071
:103DD0003846CDE9000106A90EA8FFF7A1FCDDE9F0
:103DE0000F010E9A0391002104910092BA46210717
:103DF0000CD40399514500DA8A46BAF1010F05DD6A
:103E0000009AAAF10101515C302908D0B84202DAC7
:103E100010F1040F06DA0121CDE9011015E0AAF135
:103E20000101E9E7002805DC049901440491AAEBAB
:103E3000000102E0411C514500DD8A460499401A08
:103E4000401C01904FF000400290200704D40198DC
:103E5000504501DBCDF8048000208DF84F0002981A
:103E60000DF14F07B0F1004F25D02B200E90029896
:103E70004FF0020800280CDA404202902D200E90EC
:103E800007E00A210298FFF71FFA3031029007F885
:103E9000011DB8F10001A8F10108F2DC0298002828
:103EA000EFD1791E0E980870307800F0200040F0B5
:103EB000450007F8020D12A8C01B00F1070814986E
:103EC000007800B1012000EB0A01019801EBE071DC
:103ED00005984144401A401E0590E00306D45B4615
:103EE0002146179A059800F05DF80544149800786B
:103EF00018B15A46179990476D1CE00324D55B46CC
:103F00002146179A059800F04DF805441CE00498E6
:103F1000002807DBDDE90301884203DD0098405CEF
:103F2000179901E0179930205A469047049805F1F7
:103F30000105401C04900198401E019004D12E20E0
:103F40005A46179990476D1CBAF10001AAF1010A6F
:103F5000DDDC05E017F8010B5A46179990476D1CF8
:103F6000B8F10001A8F10108F4DC5B462146179A7C
:103F70000598ABE62D0000002B000000200000009B
:103F80002DE9F041044600251E461746880404D456
:103F900005E039462020B0476D1C641EF9D528463F
:103FA000BDE8F0812DE9F041044600251E4690460B
:103FB000C80301D5302700E02027880404D505E098
:103FC00041463846B0476D1C641EF9D52846BDE809
:103FD000F0810A68531C0B601070704700000000ED
:103FE00000000000000000000000000000000000D1
:103FF00000000000000000000000000000000000C1
:10400000000000000000000000000000000080012F
:104010008001800180018001800180018001800198
:10402000800180018001800100000000800180018A
:104030000000000000000000000000000000000080
:10404000CC00CC00CC00CC00CC00CC0000000000A8
:104050000000000000000000000000000000000060
:104060000000000000000000000000000000000050
:104070000000000000000000600C600C600C3006C6
:104080003006FE1FFE1F300638071803FE1FFE1FF6
:10409000180318038C018C018C01000000008000C3
:1040A000E003F80F9C0E8C1C8C188C009800F80113
:1040B000E007800E801C8C188C189C18B80CF00F30
:1040C000E00380008000000000000000000000000D
:1040D00000000E181B0C110C110611061103110320
:1040E0009B018E01C038C06C604460443044304451
:1040F0001844186C0C380000000000000000E001BB
:10410000F0033807180618063003F001F000F80035
:104110009C310E33061E061C061C063FFC73F02164
:10412000000000000000000000000000000000008F
:104130000C000C000C000C000C000C000000000037
:10414000000000000000000000000000000000006F
:10415000000000000000000000000000000000025D
:1041600000038001C000C00060006000300030002B
:10417000300030003000300030003000600060005F
:10418000C000C00080010003000200000000200009
:104190006000C000800180010003000300060006EB
:1041A00000060006000600060006000600030003E5
:1041B00080018001C00060002000000000000000BD
:1041C0000000000000000000C000C000D806F80792
:1041D000E00130033807000000000000000000008C
:1041E00000000000000000000000000000000000CF
:1041F00000000000000000008001800180018001BB
:104200008001FC3FFC3F8001800180018001800132
:10421000000000000000000000000000000000009E
:10422000000000000000000000000000000000008E
:1042300000000000000000000000000000008001FD
:10424000800100010001800000000000000000006B
:10425000000000000000000000000000000000005E
:1042600000000000E007E007000000000000000080
:10427000000000000000000000000000000000003E
:10428000000000000000000000000000000000002E
:104290000000000000000000000000000000C0005E
:1042A000C000000000000000000000000000000C42
:1042B000000C000600060006000300030003800354
:1042C000800180018001C000C000C000600060006B
:1042D0000000000000000000000000000000E003FB
:1042E000F007380E180C0C180C180C180C180C18B9
:1042F0000C180C180C180C18180C380EF007E003EA
:1043000000000000000000000000000000000001AC
:104310008001C001F00198018801800180018001C5
:104320008001800180018001800180018001800185
:104330000000000000000000000000000000E0039A
:10434000F80F180C0C180C1800180018000C0006B8
:1043500000038001C000600030001800FC1FFC1F3B
:104360000000000000000000000000000000E0016C
:10437000F807180E0C0C0C0C000C0006C003C0074C
:10438000000C001800180C180C18180CF807E003A3
:104390000000000000000000000000000000000C11
:1043A000000E000F000F800DC00C600C600C300C74
:1043B000180C0C0CFC3FFC3F000C000C000C000C1B
:1043C0000000000000000000000000000000F80FE6
:1043D000F80F180018000C00EC03FC071C0E001C62
:1043E0000018001800180C181C0C180EF807E00331
:1043F0000000000000000000000000000000C007F6
:10440000F00F381C181818000C00CC03EC0F3C0EF1
:104410001C1C0C180C180C18181C380EF007E003A4
:104420000000000000000000000000000000FC1F71
:10443000FC1F000C00060006000380038001C00181
:10444000C000E0006000600070003000300030000C
:104450000000000000000000000000000000E00379
:10446000F007380E180C180C180C3806F007F00777
:10447000180C0C180C180C180C18380CF80FE0035A
:104480000000000000000000000000000000E00349
:10449000F007380E1C0C0C180C180C181C1C381EBD
:1044A000F81BE0190018000C000C1C0EF807F001B6
:1044B00000000000000000000000000000000000FC
:1044C00000000000000000008001800100000000EA
:1044D00000000000000000000000000080018001DA
:1044E00000000000000000000000000000000000CC
:1044F00000000000000000008001800100000000BA
:1045000000000000000000000000000080018001A9
:104510000001000180000000000000000000000019
:104520000000000000000000000000000010001C5F
:10453000800FE003F8001800F800E003800F001C73
:10454000001000000000000000000000000000005B
:10455000000000000000000000000000F81F000044
:1045600000000000F81F0000000000000000000034
:10457000000000000000000000000000000000003B
:1045800000000000000000000000000008003800EB
:10459000F001C007001F0018001FC007F00138001D
:1045A0000800000000000000000000000000E00320
:1045B000F80F180C0C180C180018000C000600035B
:1045C0008001C000C000C00000000000C000C000AA
:1045D00000000000000000000000000000000000DB
:1045E000E00718180420C229224A1144094409444A
:1045F000094409221113E20C024004201818E007B4
:104600000000000000000000000000000000800327
:104610008003C006C006C006600C600C301830185D
:104620003018F83FF83F1C700C600C6006C006C0E4
:104630000000000000000000000000000000FC037B
:10464000FC0F0C0C0C180C180C180C0CFC07FC0FB5
:104650000C180C300C300C300C300C18FC1FFC0704
:104660000000000000000000000000000000C00783
:10467000F01F38381C300C7006600600060006007B
:1046800006000600060006600C701C30F01FE007F4
:104690000000000000000000000000000000FE0319
:1046A000FE0F060E061806180630063006300630D5
:1046B00006300630063006180618060EFE0FFE03FA
:1046C0000000000000000000000000000000FC3FAF
:1046D000FC3F0C000C000C000C000C00FC1FFC1F2D
:1046E0000C000C000C000C000C000C00FC3FFC3F0C
:1046F0000000000000000000000000000000F83F83
:10470000F83F18001800180018001800F81FF81FCC
:1047100018001800180018001800180018001800D9
:104720000000000000000000000000000000E00F9A
:10473000F83F3C780E6006E007C00300030003FE6C
:1047400003FE03C007C006C00EC03CF0F83FE00FF8
:1047500000000000000000000000000000000C301D
:104760000C300C300C300C300C300C30FC3FFC3F6B
:104770000C300C300C300C300C300C300C300C3059
:1047800000000000000000000000000000008001A8
:104790008001800180018001800180018001800111
:1047A0008001800180018001800180018001800101
:1047B00000000000000000000000000000000006F3
:1047C00000060006000600060006000600060006B9
:1047D000000600060006180618063807F003E00178
:1047E0000000000000000000000000000000063093
:1047F0000618060C060606038601C600660076004B
:10480000DE008E0106030606060C0618063006605A
:104810000000000000000000000000000000180080
:1048200018001800180018001800180018001800C8
:10483000180018001800180018001800F81FF81FBA
:1048400000000000000000000000000000000EE07A
:104850001EF01EF01EF036D836D836D836D866CCC4
:1048600066CC66CCC6C6C6C6C6C6C6C686C386C322
:1048700000000000000000000000000000000C30FC
:104880001C303C303C306C306C30CC30CC308C3117
:104890000C330C330C360C360C3C0C3C0C380C3006
:1048A0000000000000000000000000000000E00721
:1048B000F81F1C380E70066003C003C003C003C09D
:1048C00003C003C003C006600E701C38F81FE00769
:1048D0000000000000000000000000000000FC0FCD
:1048E000FC1F0C380C300C300C300C300C18FC1F3A
:1048F000FC070C000C000C000C000C000C000C0061
:104900000000000000000000000000000000E007C0
:10491000F81F1C380E70066003E003C003C003C01C
:1049200003C003C007E006630E3F1C3CF83FE0F7FE
:1049300000C0000000000000000000000000FE0FAA
:10494000FE1F06380630063006300638FE1FFE070A
:1049500006030606060C0618061806300630066022
:104960000000000000000000000000000000E00364
:10497000F80F1C0C0C180C180C001C00F803E00FAE
:10498000001E0038063006300E301C1CF80FE00701
:104990000000000000000000000000000000FE7F9A
:1049A000FE7F800180018001800180018001800103
:1049B00080018001800180018001800180018001EF
:1049C00000000000000000000000000000000C30AB
:1049D0000C300C300C300C300C300C300C300C30F7
:1049E0000C300C300C300C300C301818F81FE0076D
:1049F0000000000000000000000000000000036054
:104A00000630063006300C180C180C18180C180C50
:104A1000380E30063006700760036003C001C00125
:104A20000000000000000000000000000000036023
:104A3000C361C361C361663366336633663366330D
:104A400066336C1B6C1B6C1B2C1A3C1E380E380E0C
:104A500000000000000000000000000000000FE067
:104A60000C7018303018700C600EC0078003800383
:104A7000C003E006700C301C18180C300E6007E004
:104A8000000000000000000000000000000003C063
:104A900006600C301C383818300C6006E007C00384
:104AA00080018001800180018001800180018001FE
:104AB0000000000000000000000000000000FC7F7B
:104AC000FC7F006000300018000C0006000380012D
:104AD000C0006000300018000C000600FE7FFE7F62
:104AE0000000000000000000000000000000E003E3
:104AF000E003600060006000600060006000600033
:104B000060006000600060006000600060006000A5
:104B1000600060006000E003E0030000000030007F
:104B20003000600060006000C000C000C000C00134
:104B300080018001800100030003000300060006DD
:104B40000000000000000000000000000000E00382
:104B5000E00300030003000300030003000300035D
:104B6000000300030003000300030003000300032D
:104B7000000300030003E003E00300000000000066
:104B8000C001C00160036003600330063006180CEA
:104B9000180C0000000000000000000000000000F1
:104BA0000000000000000000000000000000000005
:104BB00000000000000000000000000000000000F5
:104BC0000000000000000000000000000000FFFFE7
:104BD000FFFF0000000000000000000000000C00CB
:104BE0000C000C000C000C000C0000000000000089
:104BF00000000000000000000000000000000000B5
:104C000000000000000000000000000000000000A4
:104C10000000000000000000F003F8071C0C0C0C62
:104C2000000FF00FF80C0C0C0C0C1C0FF80FF01808
:104C3000000000000000000000000000000018005C
:104C40001800180018001800D803F80F380C1818AE
:104C500018181818181818181818380CF80FD8033E
:104C60000000000000000000000000000000000044
:104C70000000000000000000C003F007300E180C18
:104C80001800180018001800180C300EF007C003A8
:104C900000000000000000000000000000000018FC
:104CA0000018001800180018C01BF01F301C18183E
:104CB00018181818181818181818301CF01FC01BCE
:104CC00000000000000000000000000000000000E4
:104CD0000000000000000000C003F00F300C1818A6
:104CE000F81FF81F180018003818301CF00FC00704
:104CF0000000000000000000000000000000800F25
:104D0000C00FC000C000C000F007F007C000C00026
:104D1000C000C000C000C000C000C000C000C00093
:104D20000000000000000000000000000000000083
:104D30000000000000000000E00DF80F180E0C0C41
:104D40000C0C0C0C0C0C0C0C0C0C180EF80FE00DD1
:104D5000000C0C0C1C06F807F00100000000180005
:104D60001800180018001800D807F80F381C181879
:104D700018181818181818181818181818181818B3
:104D80000000000000000000000000000000C00063
:104D9000C000000000000000C000C000C000C00053
:104DA000C000C000C000C000C000C000C000C00003
:104DB0000000000000000000000000000000C00033
:104DC000C000000000000000C000C000C000C00023
:104DD000C000C000C000C000C000C000C000C000D3
:104DE000C000C000C000F8007800000000000C0007
:104DF0000C000C000C000C000C0C0C060C038C01BD
:104E0000CC006C00FC009C018C030C030C060C0C09
:104E10000000000000000000000000000000C000D2
:104E2000C000C000C000C000C000C000C000C00082
:104E3000C000C000C000C000C000C000C000C00072
:104E40000000000000000000000000000000000062
:104E500000000000000000007C3CFF7EC7E383C12F
:104E600083C183C183C183C183C183C183C183C122
:104E70000000000000000000000000000000000032
:104E800000000000000000009807F80F381C1818F8
:104E90001818181818181818181818181818181892
:104EA0000000000000000000000000000000000002
:104EB0000000000000000000C003F00F300C1818C4
:104EC00018181818181818181818300CF00FC003F4
:104ED00000000000000000000000000000000000D2
:104EE0000000000000000000D803F80F380C18186C
:104EF00018181818181818181818380CF80FD8039C
:104F00001800180018001800180000000000000029
:104F10000000000000000000C01BF01F301C18182B
:104F200018181818181818181818301CF01FC01B5B
:104F300000180018001800180018000000000000F9
:104F40000000000000000000B007F0037000300017
:104F500030003000300030003000300030003000D1
:104F60000000000000000000000000000000000041
:104F70000000000000000000E003F003380E180CF1
:104F80003800F003C007000C180C380EF007E003DF
:104F90000000000000000000000000000000000011
:104FA0008000C000C000C000F007F007C000C000D3
:104FB000C000C000C000C000C000C000C007800723
:104FC00000000000000000000000000000000000E1
:104FD0000000000000000000181818181818181811
:104FE00018181818181818181818381CF01FE01975
:104FF00000000000000000000000000000000000B1
:1050000000000000000000000C18180C180C180C10
:10501000300630063006600360036003C001C00143
:105020000000000000000000000000000000000080
:105030000000000000000000C141C141C361636382
:10504000636363633636363636361C1C1C1C1C1CE8
:105050000000000000000000000000000000000050
:1050600000000000000000001C38381C300C6006F6
:1050700060036003600360036006300C381C1C385A
:105080000000000000000000000000000000000020
:1050900000000000000000001830301830187018B0
:1050A000600C600CE00CC006C00680038003800327
:1050B00080018001C001F0007000000000000000CD
:1050C0000000000000000000FC1FFC1F000C000698
:1050D00000038001C000600030001800FC1FFC1FAE
:1050E00000000000000000000000000000000003BD
:1050F0008001C000C000C000C000C000C00060004F
:105100006000300060004000C000C000C000C0006F
:10511000C000C0008001000300000000000080010A
:105120008001800180018001800180018001800177
:105130008001800180018001800180018001800167
:10514000800180018001800180010000000060007A
:10515000C000C00180018001800180018001000346
:10516000000300060003000180018001800180012E
:1051700080018001C000600000000000000000000D
:10518000000000000000000000000000F010F81F08
:10519000080F0000000000000000000000000000F8
:1051A000000000000000000000000000CC510008DA
:1051B000000000206001000082360008F451000861
:1051C0006001002010060000103700081184A24A78
:1051D00004680901020304060708090C6910250286
:1051E000040608031BFFFF04FE6F6B0A54FEFF0159
:0451F000D4173B375E
:04000005080000ED02
:00000001FF
