:020000040800F2
:1000000098060020A1010008390C00083B0C0008EC
:100010003F0C0008430C0008470C000800000000DB
:100020000000000000000000000000004B0C000871
:100030004D0C0008000000004F0C0008510C000897
:10004000BB010008BB010008BB010008BB010008A0
:10005000BB010008BB010008BB010008BB01000890
:10006000BB010008BB010008BB010008BB01000880
:10007000BB010008BB010008BB010008BB01000870
:10008000BB010008BB010008BB010008BB01000860
:10009000BB010008BB010008BB010008BB01000850
:1000A000BB010008BB010008BB010008BB01000840
:1000B000BB010008BB010008BB010008BB01000830
:1000C000BB010008BB010008BB010008BB01000820
:1000D000BB010008BB010008BB010008BB01000810
:1000E000BB010008BB010008BB01000800F002F8DA
:1000F00000F047F80AA090E8000C82448344AAF17B
:100100000107DA4501D100F03CF8AFF2090EBAE878
:100110000F0013F0010F18BFFB1A43F0010318473B
:10012000E03F000000400000103A24BF78C878C1CA
:10013000FAD8520724BF30C830C144BF04680C60ED
:10014000704700000023002400250026103A28BF35
:1001500078C1FBD8520728BF30C148BF0B60704739
:10016000662902F08F86002070471FB501F0B4FEAB
:1001700004000020002102F007FCE0601FBD10B564
:1001800010BD01F0A9FF1146FFF7EFFF00F0A0FC42
:1001900001F0C7FF03B4FFF7F2FF03BC02F00AF857
:1001A0000948804709480047FEE7FEE7FEE7FEE70B
:1001B000FEE7FEE7FEE7FEE7FEE7FEE70448054947
:1001C000054A064B70470000BF090008ED00000813
:1001D0009800002098060020980200209802002035
:1001E00010B50446CC48844208D10121042000F017
:1001F0002DFB0021042000F029FB46E0C748844283
:1002000008D10121082000F021FB0021082000F086
:100210001DFB3AE0C248844208D10121102000F0C1
:1002200015FB0021102000F011FB2EE0BD48844298
:1002300008D10121202000F009FB0021202000F03E
:1002400005FB22E0B848844208D10121402000F09B
:10025000FDFA0021402000F0F9FA16E0B34884428C
:1002600008D10121802000F0F1FA0021802000F067
:10027000EDFA0AE0AE48844207D10121801500F072
:10028000E5FA0021A01500F0E1FA10BD10B501213A
:10029000084600F0DBFA0021012000F0D7FA10BD7B
:1002A0002DE9F0410246002500260020002300240D
:1002B000002791F803C00CF00F0591F803C00CF073
:1002C000100CBCF1000F03D091F802C04CEA0505F8
:1002D00091F800C0BCF1000F31D0146800202BE071
:1002E0004FF0010C0CFA00F3B1F800C00CEA030661
:1002F0009E4220D183004FF00F0C0CFA03F7BC4351
:1003000005FA03FC4CEA040491F803C0BCF1280F81
:1003100006D14FF0010C0CFA00FCC2F814C00AE040
:1003200091F803C0BCF1480F05D14FF0010C0CFA55
:1003300000FCC2F810C0401C0828D1D31460B1F8EA
:1003400000C0BCF1FF0F34DD546800202EE000F146
:10035000080C4FF0010808FA0CF3B1F800C00CEAE1
:1003600003069E4221D183004FF00F0C0CFA03F7D5
:10037000BC4305FA03FC4CEA040491F803C0BCF149
:10038000280F05D100F1080C08FA0CF8C2F8148007
:1003900091F803C0BCF1480F07D100F1080C4FF0F1
:1003A000010808FA0CF8C2F81080401C0828CED3C7
:1003B0005460BDE8F0814FF6FF7101800221817029
:1003C0000421C17070470246002093680B400BB1B6
:1003D000012000E0002070470146886880B2704725
:1003E00002460020D3680B400BB1012000E0002042
:1003F00070470146C86880B270470161704741612B
:1004000070470AB1016100E041617047C160704707
:100410004FF480320A43826181618261826982691C
:10042000704702460020434B18684FF6807318400F
:1004300040EA021008433F4B186070473E49C861CC
:100440007047F0B50A46002300240021002500F083
:100450000046B6F1004F02D1364EF16901E0354E4B
:100460007168C0F3034583B200F44016B6F5401F2F
:1004700008D121F070612F4E766826F070662D4FFE
:100480007E6012E000F48016B6F5801F06D10326C8
:1004900006FA05F4A14341F0706106E0460D36010D
:1004A00003FA06F6B14341F0706122B1460D360100
:1004B00003FA06F6314300F00046B6F1004F02D1D0
:1004C0001C4EF16101E01B4E7160F0BD30B50022A1
:1004D0008B071C0F0F2303FA04F2164B08338C1002
:1004E00053F824309343134C08348D1044F82530CE
:1004F00023468C1053F824308C07240F00FA04F4A0
:1005000023430C4C08348D1044F8253030BD0A4983
:10051000DC3108607047000000080140000C014019
:10052000001001400014014000180140001C01406F
:10053000002001400000014000002042DF48006828
:1005400040F00100DD49086008464068DC49084089
:10055000DA49486008460068DA490840D749086027
:100560000846006820F4802008600846406820F4AF
:10057000FE0048604FF41F0088607047CF4909684B
:1005800021F48031CD4A11601146096821F480219F
:100590001160B0F5803F03D0B0F5802F0ED106E09A
:1005A000C649096841F48031C44A116007E0C34973
:1005B000096841F4A021C14A116000E000BF00BFFA
:1005C000704710B501460022002300204A11012A7D
:1005D00002D1BA4C236806E0022A02D1B74C236A42
:1005E00001E0B64C636A01F01F02012494401C40F4
:1005F0000CB1012000E0002010BD38B500200090B3
:100600000024002500BF3120FFF7DBFF05460098DE
:10061000401C00900098B0F5A06F01D0002DF2D0E2
:100620003120FFF7CEFF08B1012400E0002420466E
:1006300038BD01460020A14A106820F0F80040EAC9
:10064000C10010607047A049086070470246002052
:100650009A4B586820F47C1042EA01031843974BE8
:100660005860704798490866704701460020934AD1
:10067000506820F003000843506070478F4840687E
:1006800000F00C007047014600208C4A506820F0B2
:10069000F00008435060704701460020874A5068C8
:1006A00020F4E06008435060704701460020834A10
:1006B000506820F4605040EAC1005060704729B192
:1006C0007E4A527A02437D4B5A7204E07B4A527A48
:1006D00082437A4B5A7270477B49D8310860704721
:1006E00001460020754A506820F44040084350609D
:1006F00070470021714A20321170704A82F8201030
:10070000012802D004280AD104E001216B4A2032DA
:10071000117005E00521694A2032117000E000BF28
:1007200000BF70476949086070476449096A01431E
:10073000624A11627047654944390860704730B5B4
:1007400000210022002400235C4D6D6805F00C019F
:1007500021B1042905D0082923D105E05C4D0560AD
:1007600022E05B4D05601FE0544D6D6805F470128A
:10077000524D6D6805F48034022505EB92421CB998
:10078000544D554305600BE04C4D6D6805F4003544
:100790001DB1504D5543056002E04D4D5543056078
:1007A00002E04B4D056000BF00BF444D6D6805F091
:1007B000F0010909484D6B5C0568DD4045603F4D1F
:1007C0006D6805F4E061090A434D6B5C4568DD40E6
:1007D00085603A4D6D6805F46051C90A3E4D6B5C09
:1007E0004568DD40C560354D6D6805F44041890BB5
:1007F0003A4D6B5CC568B5FBF3F5056130BD29B1B9
:100800002E4A526902432D4B5A6104E02B4A526929
:1008100082432A4B5A61704729B1284A92690243A0
:10082000264B9A6104E0254A92698243234B9A61E0
:10083000704729B1214AD2690243204BDA6104E0B2
:100840001E4AD26982431D4BDA61704729B11B4AA7
:10085000D2680243194BDA6004E0184AD268824336
:10086000164BDA60704729B1144A12690243134BE0
:100870001A6104E0114A12698243104B1A617047F1
:1008800012494039086070470F49C86470470B49E6
:10089000C87170470948406A40F080700749486253
:1008A000704701460020054A92680A400AB10120BB
:1008B00000E0002070470149887270470010024034
:1008C0000000FFF8FFFFF6FE0000424280044242B3
:1008D00000127A0000093D000000002010000020F6
:1008E0000CB50020019000906C48006840F4803006
:1008F0006A49086000BF6948006800F40030009051
:100900000198401C0190009818B90198B0F5A06FAB
:10091000F1D16248006800F4003010B1012000906D
:1009200001E0002000900098012843D15C48006855
:1009300040F010005A4908600846006820F00300A3
:1009400008600846006840F00200086053484068AC
:10095000524948600846406848600846406840F48C
:10096000806048600846406820F47C104860084673
:10097000406840F4E81048600846006840F0807025
:10098000086000BF4548006800F000700028F9D0FA
:100990004248406820F003004049486008464068EB
:1009A00040F00200486000BF3C48406800F00C0086
:1009B0000828F9D10CBD10B5FFF792FF10BD10B596
:1009C0003648006840F00100344908600846406835
:1009D00034490840314948600846006832490840B7
:1009E0002E4908600846006820F480200860084608
:1009F000406820F4FE0048604FF41F008860FFF755
:100A0000DAFF4FF000602949086010BD10B50021E1
:100A100000200022214B5B6803F00C0121B1042966
:100A200006D0082928D107E0214B224C236027E07B
:100A30001F4B204C236023E0184B5B6803F47010BD
:100A4000164B5B6803F48032022303EB904022B91B
:100A5000194B4343174C23600DE0104B5B6803F4C4
:100A6000003323B1144B4343124C236003E0104B7B
:100A70004343104C236003E00D4B0E4C236000BF3A
:100A800000BF064B5B68C3F303130C4CE15C094BDE
:100A90001B68CB40074C236010BD000000100240D3
:100AA000002002400000FFF8FFFFF6FE08ED00E026
:100AB00000127A001400002000093D0018000020F8
:100AC0004D49086000BF4C4909680029FBD17047B7
:100AD00088B04FF0000AD1460024484800684FF41F
:100AE0007A72B0FBF2F1B1F1807F00D31DE021F00A
:100AF0007F40401E4FF0E022506150170F22002827
:100B000007DA13071E0E3E4B00F00F052D1F5E5532
:100B100003E013071D0E3B4B1D5400BF00204FF098
:100B2000E02290610720106100BF00F0C7FA4FF685
:100B3000FF7000F082FB00F08DFD10221146104680
:100B400000F09BFD4FF6FF7000F0D1FA1F2000F07F
:100B5000D4FA002000F06AFB182000F067FB302078
:100B600000F064FB482000F061FB602000F05EFBB9
:100B700025A1182000F044FB1F2000F0B8FA4FF622
:100B8000FF7000F0BAFA35E000F078FEC0F30A0416
:100B9000204602F099F807460022214B01F03CFF65
:100BA000054601F007FF82462046E11704EB11716C
:100BB0004FEA2119504602F0EFF81AA2CDE90001E0
:100BC000142103A800F088FE03A9902000F018FB70
:100BD0000A2099FBF0F100FB1190C5B20A2099FBA5
:100BE000F0F0C6B20C222946304600F046FDC8207F
:100BF000FFF766FFC8E7000028000020140000206F
:100C000018ED00E000E400E02020202044533138BB
:100C10004232302044454D4F20202020000000006B
:100C2000000030402054656D7065726174727565A6
:100C30003A25322E32660000704700BFFEE700BF43
:100C4000FEE700BFFEE700BFFEE770477047704752
:100C50000448006820B103480068401E014908604C
:100C60007047000028000020002109E0002201E078
:100C7000531C9AB240F6B8339A42F9DB4B1C99B236
:100C80008142F3DB70474FF40072F94B1A60521047
:100C90001A6020221B1F1A60F64AD06020221B1DFA
:100CA0001A601B1F1A60D2001A60F24AD16020221B
:100CB0001B1D1A601B1F1A60D2001A60704700B516
:100CC00001210020FFF7DFFF4FF47A70FFF7CCFF20
:100CD00000210120FFF7D7FF41F290711020FFF7AC
:100CE000D2FF4FF41C516020FFF7CDFF012161209E
:100CF000FFF7C9FF02214620FFF7C5FF48F21001A8
:100D00001320FFF7C0FF48F2FE011220FFF7BBFFE0
:100D10004FF4A0610220FFF7B6FF41F2300103203B
:100D2000FFF7B1FF40F203313020FFF7ACFF40F294
:100D300003313120FFF7A7FF40F203313220FFF7E4
:100D4000A2FF4FF440713320FFF79DFF03213420B1
:100D5000FFF799FF40F203313520FFF794FF14218C
:100D60003620FFF790FF40F203313720FFF78BFF6B
:100D700040F203313820FFF786FF40F2033139207B
:100D8000FFF781FF4FF440713A20FFF77CFF03210A
:100D90003B20FFF778FF40F203313C20FFF773FF61
:100DA0004FF4A0513D20FFF76EFF4FF400719220E9
:100DB000FFF769FF40F203319320FFF764FF40F62D
:100DC0000D019020FFF75FFF41F218010320FFF7AC
:100DD0005AFF40F273110720FFF755FF00BD10B511
:100DE00043F20801E320FFF74EFF1221E720FFF74F
:100DF0004AFF41F23121EF20FFF745FF002101209A
:100E0000FFF741FF4FF4E0610220FFF73CFF41F2A2
:100E100030010320FFF737FF00210420FFF733FFE5
:100E200040F207210820FFF72EFF00210920FFF7DD
:100E30002AFF00210A20FFF726FF00210C20FFF7E0
:100E400022FF00210D20FFF71EFF00210F20FFF7DA
:100E50001AFF00211020FFF716FF07211120FFF7CE
:100E600012FF00211220FFF70EFF00211320FFF7D1
:100E70000AFFC820FFF724FE41F290611020FFF71F
:100E800002FF40F227211120FFF7FDFE3220FFF77D
:100E900017FE1D211220FFF7F6FE3220FFF710FE8D
:100EA0004FF400611320FFF7EEFE14212920FFF715
:100EB000EAFE0B212B20FFF7E6FE3220FFF700FEB3
:100EC00000212020FFF7DFFE00212120FFF7DBFEBD
:100ED00007213020FFF7D7FE40F207713120FFF7DE
:100EE000D2FE06213220FFF7CEFE40F204713520FB
:100EF000FFF7C9FE41F604713620FFF7C4FE042156
:100F00003720FFF7C0FE00213820FFF7BCFE40F27B
:100F100006713920FFF7B7FE40F201713C20FFF760
:100F2000B2FE0F213D20FFF7AEFE00215020FFF75B
:100F3000AAFEEF215120FFF7A6FE00215220FFF765
:100F4000A2FE40F23F115320FFF79DFE4FF41C51CB
:100F50006020FFF798FE01216120FFF794FE002139
:100F60006A20FFF790FE00218020FFF78CFE002111
:100F70008120FFF788FE00218220FFF784FE0021F8
:100F80008320FFF780FE00218420FFF77CFE0021F4
:100F90008520FFF778FE10219020FFF774FE0021D6
:100FA0009220FFF770FE03219320FFF76CFE4FF4B1
:100FB00088719520FFF767FE00219720FFF763FEF9
:100FC00000219820FFF75FFE41F218010320FFF790
:100FD0005AFE40F273110720FFF755FE10BD08B509
:100FE0004FF6FF70ADF8000003208DF802001020CE
:100FF0008DF8030069461F48FFF752F908BD08B590
:101000004FF6FF70ADF8000003208DF80200482075
:101010008DF8030069461748FFF742F908BD70B51F
:1010200004464FF400701249086040100860202008
:10103000091F08600F48C4602020091D0860091FAF
:101040000860C0000860FFF7DAFF4FF480600849CD
:1010500008600848806885B20815091F0860FFF716
:10106000BEFF4FF400700249091F0860284670BD9A
:10107000140C01400010014008B501211820FFF7B1
:10108000CBFB01212020FFF7C7FB4FF4E460ADF854
:10109000000001208DF8020010208DF80300694641
:1010A000F848FFF7FDF8FFF79AFFF64810300068A0
:1010B00040F4C460F3491031086008BD10B5FFF773
:1010C000DBFF0020FFF7ABFFEF49088008460088F0
:1010D00048F23021884202D1FFF7F1FD01E0FFF72D
:1010E0007EFE0020FFF79BFFE749088010BD01B599
:1010F000BDF80000E549088008BD01B5BDF8000055
:10110000E349088008BD30B504460D46214620203D
:10111000FFF7B9FD29462120FFF7B5FD30BD4FF49B
:101120000071D84A143211604910121F1160202139
:101130001160D849C8602021121D1160121F116072
:10114000C90011604900116070474FF40070CD492B
:1011500014310860401008602020091F0860222018
:10116000CC49C8602020C74914310860091F0860B5
:10117000C00008604000086070472DE9F043064653
:101180008946174600240025A046B04649464046F9
:10119000FFF7B9FF00BF1EE0FFF7D7FF00250FE004
:1011A00037F814000121A940084020B9B848008848
:1011B000FFF7B5FF03E0B5480088FFF7B0FF6D1CEF
:1011C000102DEDD308F1010000F0FF08494640461C
:1011D000FFF799FF641C182CDED3BDE8F08370B5CF
:1011E00005460E461446A4F12000C4B204EB4400A8
:1011F000A94901EB001231462846FFF7BEFF70BD3A
:10120000F0B507460C46002540F23F1609E022786B
:1012100031463846FFF7E3FFA6F1100086B2641CA2
:101220006D1C207808B1142DF1D3F0BD10B5044623
:101230009AA12046FFF7E4FF10BD30B50546002413
:1012400000210846FFF75FFFFFF77FFF00BF03E0C5
:101250002846FFF764FF641CB4F5963FF8D330BD11
:10126000F0B504460D4616461F46B44206DBA01BE9
:10127000401C81B25020FFF706FD03E00021502002
:10128000FFF701FD21465120FFF7FDFCBD4206DBC3
:10129000E81B401C81B25220FFF7F5FC03E000215F
:1012A0005220FFF7F0FC29465320FFF7ECFC2946BB
:1012B0002046FFF728FFF0BD00B54FF4A073F022E1
:1012C000591EEF20FFF7CCFF41F218010320FFF772
:1012D000DAFC00BD2DE9F0410646884615461F465A
:1012E000002441463046FFF70EFF5FB9FFF72DFFA0
:1012F00000BF04E065480088FFF711FF641CAC42A2
:10130000F8D310E000240CE0FFF71FFF5F480088CF
:10131000FFF705FF701CC6B241463046FFF7F3FEEB
:10132000641CAC42F0D3BDE8F081F0B505460E4632
:1013300017461C460023224631462846FFF7CAFFBF
:10134000E919C8B2002322463146FFF7C3FF012343
:101350003A4631462846FFF7BDFF301B401C81B29C
:1013600001233A462846FFF7B5FFF0BD2DE9F043CB
:1013700006460F4690460320A0EB48090024454648
:101380006EE07A1991B23219D0B2FFF7BCFEFFF7C6
:10139000DCFE3E480088FFF7C2FE7A1B91B232198C
:1013A000D0B2FFF7B0FEFFF7D0FE38480088FFF755
:1013B000B6FE7A1991B2321BD0B2FFF7A4FEFFF746
:1013C000C4FE32480088FFF7AAFE7A1B91B2321B96
:1013D000D0B2FFF798FEFFF7B8FE2C480088FFF761
:1013E0009EFE3A1991B27219D0B2FFF78CFEFFF748
:1013F000ACFE26480088FFF792FE3A1B91B27219A4
:10140000D0B2FFF780FEFFF7A0FE20480088FFF76C
:1014100086FE3A1991B2721BD0B2FFF774FEFFF745
:1014200094FE1A480088FFF77AFE3A1B91B2721BAD
:10143000D0B2FFF768FEFFF788FE14480088FFF778
:101440006EFEB9F1000F04DA062000EB840081443F
:1014500005E0601B0A2101EB800081446D1E641CC5
:10146000AC428ED9BDE8F08370B506460024002555
:1014700040F23F110020FFF746FEFFF766FE00BF77
:101480002DE00000000C0140300000202C00002066
:101490002E00002000100140882E0008202020206F
:1014A000202020202020202020202020202020203C
:1014B0000000000000250FE056F824000121A9409B
:1014C000084020B95F480088FFF729FE03E05E4826
:1014D0000088FFF724FE6D1C202DEDD3641CB4F5AD
:1014E000166FE7D370BD70B50446002500266688E8
:1014F000A08846EA00466589A08945EA0045701B38
:1015000046082C4441F208010320FFF7BCFBFFF71B
:101510001CFE002504E02088FFF701FEA41C6D1CC2
:10152000B542F8D341F218010320FFF7ACFB70BDC0
:1015300010B54FF400704549086040100860202045
:10154000091F086022204249C86020203F490860E6
:10155000091F0860C0000860FFF751FD4FF480606C
:101560003A4908603A48806884B20815091F086043
:10157000FFF735FD4FF400703449091F086020461D
:1015800010BD00B500211020FFF77DFB00211120C8
:10159000FFF779FB00211220FFF775FB00211320D4
:1015A000FFF771FB1420FFF75FFB41F2B0711020D1
:1015B000FFF769FB40F237111120FFF764FB0520AC
:1015C000FFF752FB40F239111220FFF75CFB0520B8
:1015D000FFF74AFB4FF4E8511320FFF754FB1321A8
:1015E0002920FFF750FB0520FFF73EFB40F2731167
:1015F0000720FFF748FB00BD00B540F2731107203C
:10160000FFF741FB00BD00B500210720FFF73BFBC2
:1016100000BD30B5054600210846FFF774FDFFF711
:1016200094FD002409E015F814206100491C695C50
:1016300042EA0120FFF773FD641CB4F5963FF2DB2C
:1016400030BD00002E0000202C000020140C0140B2
:101650000010014008B501210420FFF7DDF80E203D
:10166000ADF8000002208DF8020010208DF8030074
:1016700069463848FEF714FE08BD2DE9F0410646DC
:101680000F46904600240025334810F8085000BF4C
:1016900017E005F0800020B102212E48FEF7ADFED4
:1016A00003E002212B48FEF7AAFE08212948FEF795
:1016B000A4FE6806050E08212648FEF7A0FE601C61
:1016C000C4B2082CE5DB2448C55D002417E005F012
:1016D000800020B102211F48FEF78FFE03E00221A7
:1016E0001C48FEF78CFE08211A48FEF786FE6806A5
:1016F000050E08211748FEF782FE601CC4B2082CB4
:10170000E5DB1548855D002417E005F0800020B179
:1017100002211048FEF771FE03E002210D48FEF79A
:101720006EFE08210B48FEF768FE6806050E0821CC
:101730000848FEF764FE601CC4B2082CE5DB0421F7
:101740000448FEF75AFE04210248FEF758FEBDE8A1
:10175000F0810000000801405840000800BF011E51
:10176000A0F10100FBD1704708B501210420FFF76B
:1017700053F84020ADF8000048208DF80300022007
:101780008DF8020069465248FEF78AFD08BD08B58B
:101790004020ADF8000048208DF8030002208DF8AD
:1017A000020069464A48FEF77BFD08BD08B54020A7
:1017B000ADF8000010208DF8030002208DF8020023
:1017C00069464348FEF76CFD08BD10B5FFF7EEFF14
:1017D00040213F48FEF713FE4FF4B450FFF7BEFF21
:1017E000FFF7D5FF40F2B630FFF7B8FF4021384889
:1017F000FEF7E9FD044641F24970FFF7AFFF4021D3
:101800003348FEF7E0FD00B90124204610BD10B5B5
:101810000446FFF7CBFF40212D48FEF7F0FD0E20D8
:10182000FFF79CFF0CB1FFF7B2FF8120FFF796FF97
:1018300040212748FEF7C7FD00B900244FF422706D
:10184000FFF78CFFFFF7A3FF204610BD70B50446DD
:10185000082600BF04F00100FFF7D9FF0546641019
:101860000DB144F08004701EC0B2061EF2D12046B5
:1018700070BD10B5FF20FFF7E9FF10BD38B500259A
:101880000024FFF7A2FFCC20FFF7E0FF4420FFF782
:10189000DDFF1048FFF762FFFFF797FFCC20FFF74F
:1018A000D5FFBE20FFF7D2FF00BF05E0FFF7E1FF45
:1018B0000DF80500681CC5B2022DF7DB9DF801404C
:1018C000200204B29DF800000443204638BD000009
:1018D0000008014080CBA4000FB41CB50C0007AA7F
:1018E000009001D02044401E074B7B446946019084
:1018F000069800F0D0FA002C03D06946002000F0D2
:10190000DDFA1CBC5DF814FBD905000070B5044677
:1019100085690068C10601D5302600E02026C00791
:1019200007D070BDD4E9012130469047206A401CA1
:1019300020626D1EF6D570BD70B5044685690078CD
:10194000C00707D170BDD4E9012120209047206A4B
:10195000401C20626D1EF6D570BD2DE9F0474FF09A
:10196000000A89460446C0F820A02046E16888475E
:10197000002876D0252806D0D4E901219047206A96
:10198000401C2062F1E7E168204600258847C4F842
:101990001CA006460027C4F818A02A2E09D03046FD
:1019A00000F0EBFF38B304EB8708303EC8F818604E
:1019B00019E059F8041B204604EB87029161E168A5
:1019C0008847012F064618D1E069002820DA25F063
:1019D00020051DE0D8F8180000EB800006EB400061
:1019E0003038C8F818002046E1688847064600F0FD
:1019F000C4FF0028EED1012F0AD02E2E08D1204698
:101A0000E16888477F1C0646022F45F02005C4DBAD
:101A1000A069002803DA404245F00105A061E8070B
:101A200001D025F01005B6B1A6F14100192802D861
:101A3000203645F400654A463146204625604D462D
:101A4000FEF78EFB58B1012806D0ED1D25F00700EA
:101A500000F1080989E704E005F1040985E730464B
:101A60008AE7206ABDE8F087704770477047704783
:101A70002DE9FF4F0C461E464FF0FF378BB0D2E9E1
:101A80000001DDF860800A908A46C1F30A5505B965
:101A90003D46002108464FF00000BAF1000F00F467
:101AA000400005DA00EB80004FF4400101EA5000ED
:101AB0004FEA9059B9F1010F00DDB9460A9850EA92
:101AC0004A000ED044F61050A5F2FF3545432F14BE
:101AD000B8F1000F1ED07542291E1EDDC9F10002AB
:101AE0001CE0B8F1010F4FF0000001D0302103E0FD
:101AF000F24305E02154401CB042FBDB304600229B
:101B0000002121540B99C1F80880C1E900200FB0D1
:101B1000BDE8F08FBD1B6D1CDEE74A4600DA694266
:101B200006A800F063FA06AB93E8070003AB83E86E
:101B3000070050460A9900F044FB8DE80700A0F525
:101B400000501F3800900398002D0ADD42F21F015B
:101B50004A460844002303A90390684600F0ADFDFF
:101B600009E0A0F500504A461F38002303A903905E
:101B7000684600F0B7FD8DE807000004000C03D0B4
:101B80004FF0FF30410800E01046B8F1000F03D0DD
:101B90000022009215461EE0751E05D400F0A0F943
:101BA000303262556D1EF9D5B3460122084302D08A
:101BB00000227F1C04E02078302801D100227F1E03
:101BC000002A099784D01DE0112D07DA00F088F96A
:101BD000303262556D1C50EA0102F5D1084302D043
:101BE0000098C8B10EE00021681E05E0235C625C2D
:101BF00063542254401E491C8142F7DBAB46A81BAC
:101C0000401E0990002004F80B000B98099AC0F8B8
:101C10000880C0E9002B7AE711264FF0000857E74B
:101C20002DE9F04F88460446D21D22F0070191B0FD
:101C3000D1E90001CDE90A0100F08BFE02460B98C4
:101C4000C00F01D02D2007E02068810701D52B208F
:101C500002E0202101EAC000032A099001D0072AEE
:101C600005DB03464146204600F080F90BE1207871
:101C7000800601D5E06900E00620B8F1650F8146D5
:101C800006D0B8F1660F18D0B8F1670F70D131E007
:101C90000020B9F1110F009001DB112301E009F1DF
:101CA00001030AAA01A90CA8FFF7E2FEDDE90C7006
:101CB000002609F10105834647E001204B460090CC
:101CC0004FF000470AAA01A90CA8FFF7D1FEDDE9F1
:101CD0000DB00C995D46002610B909F101000D18F0
:101CE000B9EB050003D4C0F1FF3609F10105A5EBFE
:101CF00009002BE0B9F1010F01DA4FF001090020D2
:101D0000B9F1110F0090484601DD112300E00346B0
:101D10000AAA01A90CA8FFF7ABFEDDE90C704D463D
:101D200000268346207800070AD4AB4500DA5D46DA
:101D300001A8012D04DD411911F8011C302907D03B
:101D40004F4502DA17F1040F04DA012082460FE052
:101D50006D1EEEE7002F02DCED1B3E4403E0781C15
:101D6000A84200DD7D1CB81B00F1010A4FF00047BE
:101D70002078000703D4AA4501DB4FF0FF3A002189
:101D8000B7F1004F0DF143088DF8431024D0022025
:101D90002B23002F01DA7F422D230A21021EA0F1FE
:101DA000010000DC5FB197FBF1FC97FBF1F201FB56
:101DB0001C7C17460CF1300C08F801CDEEE7A8F1B9
:101DC000010003702188090501D5452100E0652146
:101DD000A0F1010800F8011C09980FA9A1EB080760
:101DE000FF1D00B10120411901EBEA70A1693844DF
:101DF000081A401EA0612078C00602D42046FFF7D2
:101E000085FD099828B1D4E901219047206A401C3A
:101E100020622078C00622D52046FFF777FD1EE01D
:101E2000002E04DBB34502DD01A8805D00E0302018
:101E3000D4E901219047206A401C2062761CAAF157
:101E400001005FEA000A0AD100F046F8C0680168A4
:101E5000405CD4E901219047206A401C2062281E82
:101E6000A5F10105DCDC07E0D4E9012118F8010B3C
:101E70009047206A401C2062381EA7F10107F3DC5E
:101E80002046FFF759FD032011B041E601694A1CC5
:101E900002610878704700B58FB0CDE901310021AB
:101EA000059105497944CDE9031011466846FFF7CD
:101EB00054FD0FB000BD0000E5FFFFFF0A6802F807
:101EC000010B0A607047D1E900239A4202D2531CE9
:101ED0000B601070704700000048704754000020ED
:101EE00030B5B0F10A024FEA900E71F100034EEAEC
:101EF000817EB0EB0E0061EB91014FEA101E4EEABD
:101F0000017E10EB0E0041EB11114FEA102E4EEA4C
:101F1000016E10EB0E0041EB11214FEA104E4EEA1C
:101F2000014E10EB0E0041EB1141401841F1000150
:101F30004FEAD00040EA41704FEAD10110EB800532
:101F40004FEA810444EA907444EB01046D1944EBB8
:101F50000404521BA3414FF0000348BF0A3200D5CE
:101F600030BD401C41F1000130BD00002DE9F041C1
:101F70001F46044603260168072A01F4006004DBBB
:101F800008B116A505E016A503E008B115A500E007
:101F900015A521F010002060A069C01EA0610FB13E
:101FA000401EA0612046FFF7B1FC4FB1D4E90121EA
:101FB00038469047206A401C2062C01C206206E020
:101FC000206AFAE7D4E9012115F8010B9047761E43
:101FD000F8D22046FFF7B0FCBDE8F0814E414E003C
:101FE0006E616E00494E4600696E66002DE9F0474D
:101FF000814616468AB0354878440DC88DE80D00F4
:1020000032487844801C03AC0DC884E80D0041F6CA
:102010009B300844372190FBF1F290FBF1F5A5F1DC
:10202000800501FB12041B3C02D56442012000E044
:102030000020DFF898A080460027FA44AAF1BE0AE3
:102040000EE0E0070AD03246684607EB470101235D
:102050000AEB810100F046FB8DE8070064107F1C4D
:10206000002CEED1194F7F44AE3F19E0E80715D0A0
:1020700007EB04100DF1180A90E80E008AE80E0034
:10208000C068F04201D1981908903246012306A990
:1020900003A800F027FB03AB83E807006D10641C66
:1020A000002DE3D14FF0010332466946B8F1000F2D
:1020B00003A802D000F001FB01E000F013FBC9E926
:1020C0000001C9F808200AB0BDE8F087EC20000044
:1020D00000487047340000207546FFF7F9FFAE4610
:1020E00005006946534620F00700854618B020B524
:1020F000FEF764F8BDE820404FF000064FF00007FF
:102100004FF000084FF0000B21F00701AC46ACE89F
:10211000C009ACE8C009ACE8C009ACE8C0098D460C
:10212000704710B50446AFF300802046BDE810406C
:10213000FEF730B84FF0013C50F8042B51F8043B47
:102140009A4221D1A2EB0C03934313EACC1317D18B
:1021500050F8042B51F8043B9A4215D1A2EB0C0322
:10216000934313EACC130BD150F8042B51F8043BE2
:102170009A4209D1A2EB0C03934313EACC13DBD0B0
:102180004FF00000704700BFD01A01BAB1FA81F1D8
:1021900001F0180122FA01F0CB40C1F12001DBB2BD
:1021A000C0B2C01A2CFA01F3D11A914311EAC3113B
:1021B000E6D1704701491820ABBEFEE726000200B9
:1021C00070475FEA400C08BF91F0000F4FEA8C2384
:1021D0004FEAC12243EA51514FEA1C5018BF00F5A3
:1021E000F0404FEA300018BF41F000415FEA6C5CFC
:1021F00000F02980BCF1FF3F08BF40F080407047ED
:10220000130C06BF12044FF0100C4FF0000C130E0D
:1022100004BF12020CF1080C130F04BF12010CF1E1
:10222000040C930F04BF92000CF1020CD30F04BFF7
:1022300052000CF1010C11464FF00002A0F11F00FA
:10224000A0EB0C00704711F0004F08BF704731F051
:1022500000413FF4D5AF0B0C06BF09044FF0100C42
:102260004FF0000C0B0E04BF09020CF1080C0B0F11
:1022700004BF09010CF1040C8B0F04BF89000CF1A1
:10228000020CCB0F04BF49000CF1010CCCF1200370
:10229000A0EB0C0022FA03F302FA0CF241EA03016C
:1022A00000F10100704720F07F4C80EA030023F02A
:1022B0007F47ACEB070303F57C5300F0004003F1CC
:1022C000FF032DE980494FEA154B09B44FEA144347
:1022D00025EA0B4E24EA03480FF2042606EB1327E7
:1022E00049083E785FEA320203FB0667C7F500073C
:1022F00007FB06F64FEA54374FEAD64606F10206C8
:1023000007FB066CCCF1005C4FEA1C472CEA074C3B
:1023100007FB06F40CFB06F504EB15464FEA961690
:1023200034BF00204FF000404FEAD13706FB07FCD6
:102330004FEA1C4C0CFB0BF7D21B03FB0CF761EBB9
:1023400007010CFB0EF7B0EB074072EB17420CFBDA
:1023500008F734BFA2EB0742B2EB074261EB17412B
:102360004FEA0C444FEA910706FB07FC4FEA1C4C6E
:102370000CFB0BF7B0EBC74072EB573203FB0CF7CB
:1023800034BFA2EBC742B2EBC74261EB57310CFB43
:102390000EF7B0EBC70072EB57720CFB08F734BFB7
:1023A000A2EBC702B2EBC70261EB5771039F4FEA82
:1023B000816141EA921104EBCC044FEAD1374FEA34
:1023C000826206FB07FC42EA90124FEA80604FEA05
:1023D0001C4C0CFB0BF7D21B03FB0CF761EB07014A
:1023E0000CFB0EF7B0EB074072EB17420CFB08F743
:1023F00034BFA2EB0742B2EB074261EB17414FEA51
:102400008C554FEA910704EB9C2406FB07FC4FEA2E
:102410001C4C0CFB0BF7B0EBC74072EB573203FBC5
:102420000CF734BFA2EBC742B2EBC74261EB5731A6
:102430000CFB0EF7B0EBC70072EB57720CFB08F702
:1024400034BFA2EBC702B2EBC70261EB577115EBC9
:102450004C254FEA816141EA92114FEA82624FEACC
:10246000D13742EA901206FB07FC44F100044FEA20
:1024700080604FEA1C4C0CFB0BF7D21B03FB0CF7E4
:1024800061EB07010CFB0EF7B0EB074072EB174254
:102490000CFB08F734BFA2EB0742B2EB074261EB3B
:1024A000174115EB1C154FEA813141EA92414FEA81
:1024B000823242EA90424FEA80304FEA0C7644F191
:1024C000000448EA03434EEA0B484FF0000EB2EB1B
:1024D000080C71EB030724BF624639464EEB0E0E23
:1024E0004FF0000B0018524149414BEB0B0BB2EB84
:1024F000080C71EB03077BF1000B24BF62463946E1
:102500004EEB0E0E4FF0000B0018524149414BEBC1
:102510000B0BB2EB080C71EB03077BF1000B24BF34
:10252000624639464EEB0E0E51EA020718BF46F0DE
:10253000010616EB0E7655F1000254F1000103D5A9
:10254000BDE88901BDE80088BDE88901BDE8004813
:10255000B619524141EB0101A3F10103704780809C
:102560007F7E7D7C7B7A79787776767574737271ED
:1025700071706F6E6E6D6C6C6B6A6A6968686766A5
:1025800066656464636362616160605F5F5E5E5D37
:102590005D5C5C5B5B5A5A595958585757565655AB
:1025A00055555454535352525251515050504F4F0D
:1025B0004F4E4E4D4D4D4C4C4C4B4B4B4A4A4A495D
:1025C00049494848484747474746464645454544A0
:1025D0004444444343434342424242414141002B2D
:1025E0009C4630D477002BD01CB54FEA370703B494
:1025F0004FF010004FF01001BAF1000F06D0BCF1FF
:10260000000FDCBF40F0080040F008014FF0000070
:102610000FBCBDE810400BF1010BBBF1010F08BF6F
:102620005FEA170722BF12F1010211F101014FF019
:10263000004143F1000300F0004043EA000070470E
:10264000F9D35708D0E746EA064613F1400F4FEAA0
:1026500016461FDD13F1200FDFBF16430A46002187
:1026600020335B42BED0C3F1200746EA064602FA99
:1026700007F74FEA164646EA0706C3F1200722FA93
:1026800003F201FA07F721FA03F14FF0000342EADF
:102690000702A7E746EA020646EA06464FEA16465A
:1026A00046EA0106BCBF46EA0646360C4FF0000378
:1026B0004FF000024FF0000194E72DE9804C9A465C
:1026C000934670B491E8380007C831EA400C48BF1F
:1026D00034EA430C03D5FFF7E6FDFFF780FFF0BCBB
:1026E000BDE8008C2DE9804C9A46934670B491E881
:1026F000380007C810F0804F08BF13F0804F03D197
:1027000000F005F8FFF76BFFF0BCBDE8008C20F08F
:102710007F4780EA030023F07F4C07EB0C03A3F50F
:102720007C5300F00040A3F1FE0392F0000F00F094
:10273000B38095F0000F00F077802DE901494FEA52
:1027400011404FEA144621EA004800FB06FC24EA47
:10275000064708FB06F607FB08F800FB07F718EB2F
:1027600006484CEB164C4FEA124B18EB07484FEA61
:1027700015464CEB174022EA0B4E0BFB06FC25EAF4
:1027800006470EFB06F607FB0EFE0BFB07F71EEBDC
:10279000064E4CEB164C4FF000061EEB074E4CEB72
:1027A000174B18EB0B0840F1000018EB0E0B58EB21
:1027B000000840F100008F1A4FF000013CBFC943F0
:1027C000661B14BFB5EB040C00213CBFC943F61BCC
:1027D0004FEA17444EEA8E0E27EA04454FEA1C479B
:1027E00004FB07622CEA074C05FB07F70CFB05F618
:1027F00004FB0CFC16EB074642EB174216EB0C46AB
:1028000042EB1C421BEB060658EB0202414146EA32
:102810009E0601D5BDE80189B619524141EB01017F
:10282000A3F10103BDE801894FEA14454FEA1147BE
:1028300024EA054621EA074C05FB07F406FB07F7E7
:102840000CFB06F105FB0CFC11EB074144EB1744B4
:102850004FEA124711EB0C4144EB1C4422EA074CAF
:1028600005FB07F206FB07F70CFB06F605FB0CFC65
:1028700016EB074642EB174216EB0C4642EB1C45A3
:102880006A1854F1000148BF7047B619524141EB34
:102890000101A3F10103704795F0000F37D04FEA13
:1028A00011424FEA144721EA024624EA074C02FB90
:1028B00007F106FB07F70CFB06F402FB0CFC14EB1C
:1028C000074441EB17414FEA154714EB0C4441EB29
:1028D0001C4125EA074C02FB07F506FB07F70CFB3A
:1028E00006F602FB0CFC16EB074645EB174516EB0C
:1028F0000C4645EB1C42121951F1000148BF7047CC
:10290000B619524141EB0101A3F1010370474FEAAF
:1029100014454FEA114724EA054621EA074C05FB16
:1029200007F106FB07F70CFB06F24FF0000605FB6C
:102930000CFC12EB074241EB174112EB0C4251EB3E
:102940001C4148BF7047921841EB0101A3F10103FC
:102950007047490050EAC12018BF04204A0D18BF33
:1029600040F0010040F2FF72B2EB515F08BF40F04F
:102970000200012808BF0520704730380A2801D21C
:10298000012070470020704710B500290AD0087850
:10299000002807D005487844FFF7CCFB002801D079
:1029A000002010BD0248784410BD00008A170000C6
:1029B0008217000021F00042A2F16052B2F5801FA0
:1029C00001F0004328BFD2F17F6C0BD95FEA001CF5
:1029D00043EAC20242EB507018BF704728BF20F094
:1029E00001007047B2F5801FBCBF184670474FEA20
:1029F000410C1CF5001F02D2084600F03EBA70B52B
:102A000000F075F900000089FFF7F6BF4FF00040B5
:102A1000A0F58000704700002DE9C04130B4DFF818
:102A2000A0C23CEA111418BF3CEA131400F0EC8079
:102A300081EA03051CEA111444EAD57418BF1CEAA4
:102A4000131500F0C780A4EB05044FF0004545EADC
:102A5000C12145EAC32341EA505143EA525304F1EC
:102A60007F74994204F500344FEAC0204FEAC22235
:102A700008BF904200F09C804FEA13650FF24016A9
:102A8000765D4FEA134506FB05F7C7F1807706FB35
:102A900007F74FEAD737A7FB03687642C8F58038B7
:102AA000A7FB06CE38BFA8F1010807FB08E64FF0E8
:102AB000000EA6FB028CE6FB03CEDCF1000CCEF18F
:102AC000004E38BFAEF1010EA6FB0C584FF00007C8
:102AD0004FF00005E6FB0E87A1FB08C6A0FB07CE62
:102AE00016EB0E0645F10005E1FB076515F1E04E1A
:102AF0007EBFA4F580345FEA46066D4116F180077B
:102B000045F100054FEA17274FEA066647EA0567D1
:102B1000A6F1DE46B6F1805F4FEA15251FD938468B
:102B200024F0010C05EBC471BCF1FE6F01EB0C113C
:102B300002D8F0BCBDE8008124425CBF01F5801ED4
:102B40009EEAC47F02D4F0BCBDE80081244238D4A0
:102B5000F0BCA1F1C041BDE8004100F016B94FEA58
:102B6000D22242EA43524FEAD323A7FB02864FEA1E
:102B7000D02040EA415007FB03661EEA0E0F4FEAE1
:102B8000D12105FB026658BFA6EB0056B6EB0056F6
:102B90004FEA520E4EEAC37E18EB0E0E56EB530E62
:102BA000BDD518EB02085E417F1C55F10005B6E764
:102BB0004FF480154FF000074FF000064FF000086B
:102BC000ADE7F0BC4FF0000001F1C04101F0004161
:102BD000BDE8008111EA0C1F0CEA131500D00CE0CF
:102BE00013EA0C1F00F025804FF00000F0BC81EAD2
:102BF000030101F00041BDE80081F0BCBDE80041E7
:102C000081EA030100F0C1B8F0BCBDE8004170B535
:102C100000F06DF8097EFC3E00F007B881EA030180
:102C20004FF0000001F00041704781EA030100F01D
:102C3000ACB8F0BCBDE800414FF00000214970473E
:102C4000FFFDFBF9F7F5F4F2F0EEEDEBE9E8E6E471
:102C5000E3E1E0DEDDDBDAD8D7D5D4D3D1D0CFCDF8
:102C6000CCCBCAC8C7C6C5C4C2C1C0BFBEBDBCBB31
:102C7000BAB9B8B7B6B5B4B3B2B1B0AFAEADACAB2C
:102C8000AAA9A8A8A7A6A5A4A3A3A2A1A09F9F9E06
:102C90009D9C9C9B9A9999989797969595949393B8
:102CA000929191908F8F8E8E8D8C8C8B8B8A89894F
:102CB00088888787868585848483838282818180D2
:102CC0000000FF070000F87FB0FA80F310FA03F16C
:102CD0000AD0C3F11D0303F580634FEA41504FEA68
:102CE000035202EBD12170474FF0000070470EF104
:102CF000020E2EF0030E5EF8046B364205D4012A54
:102D000043EB030515F5001F12D8012841EB010C18
:102D10001CF5001F0CD80ED14FEAD17C15F5001F11
:102D20000CEB4C0C0CF1020C08BF4CEBD37C04E018
:102D30004FF0080C01E04FEAD37C0CEB4C0526FA6F
:102D400005F606F00706B6F1040C06D20EEB860C6B
:102D5000BDE870404CF0010C6047DFE80CF0090B57
:102D600002024FF000414FF00000A1F5002170BDBC
:102D700019461046012851EB010418BFD4F5001480
:102D800084BF002001F0004170BD0808A0F50011CB
:102D90004FEA31017047000043004FEAD30C4FEA7D
:102DA0003C0C43401FBF40070CF1605113F0FE4F35
:102DB00070471CF0006F03D100200CF000417047F9
:102DC0000CF0004343EA507010B540EACC0000F02C
:102DD0000EF800BF000000924FEA0001FFF7D5BFD8
:102DE0004FF000414FF00000A1F5002170470EF1B7
:102DF000020E2EF0030E5EF8044B244204D44FEA78
:102E00004102B2F17F4F11D84FEA4003B3F17F4F37
:102E10000CD80ED14FEAD07CB2F17F4F0CEB4C0CAA
:102E20000CF1020C08BF4CEBD17C04E04FF0080C15
:102E300001E04FEAD17C0CEB4C0324FA03F404F0DC
:102E40000704B4F1040C06D20EEB840CBDE810406C
:102E50004CF0010C6047DFE80CF0070802024FF06D
:102E60000040A0F5800010BD0846420018BFD2F116
:102E7000807288BF00F0004010BDFF2141EAD050B1
:102E8000C0057047FEF7CCBE000000000000000047
:102E90000000000000000000000000000000000032
:102EA0000000000000000000000000000000000022
:102EB000000000000000000000008001800180018F
:102EC00080018001800180018001800180018001FA
:102ED00080018001000000008001800100000000EE
:102EE000000000000000000000000000CC00CC004A
:102EF000CC00CC00CC00CC000000000000000000A2
:102F000000000000000000000000000000000000C1
:102F100000000000000000000000000000000000B1
:102F200000000000600C600C600C30063006FE1FD4
:102F3000FE1F300638071803FE1FFE1F1803180374
:102F40008C018C018C01000000008000E003F80F70
:102F50009C0E8C1C8C188C009800F801E007800EE9
:102F6000801C8C188C189C18B80CF00FE0038000A3
:102F700080000000000000000000000000000E18AB
:102F80001B0C110C11061106110311039B018E017C
:102F9000C038C06C60446044304430441844186CFD
:102FA0000C380000000000000000E001F0033807CA
:102FB000180618063003F001F000F8009C310E33BB
:102FC000061E061C061C063FFC73F02100000000D4
:102FD0000000000000000000000000000C000C00D9
:102FE0000C000C000C000C000000000000000000B1
:102FF00000000000000000000000000000000000D1
:10300000000000000000000000000002000380013A
:10301000C000C000600060003000300030003000B0
:10302000300030003000300060006000C000C000A0
:103030008001000300020000000020006000C000CA
:103040008001800100030003000600060006000660
:103050000006000600060006000300038001800150
:10306000C000600020000000000000000000000020
:1030700000000000C000C000D806F807E0013003DF
:103080003807000000000000000000000000000001
:103090000000000000000000000000000000000030
:1030A0000000000080018001800180018001FC3F60
:1030B000FC3F800180018001800180010000000050
:1030C0000000000000000000000000000000000000
:1030D00000000000000000000000000000000000F0
:1030E00000000000000000000000800180010001DD
:1030F000000180000000000000000000000000004F
:1031000000000000000000000000000000000000BF
:10311000E007E007000000000000000000000000E1
:10312000000000000000000000000000000000009F
:10313000000000000000000000000000000000008F
:1031400000000000000000000000C000C0000000FF
:1031500000000000000000000000000C000C000651
:1031600000060006000300030003800380018001C5
:103170008001C000C000C0006000600000000000CE
:1031800000000000000000000000E003F007380E1F
:10319000180C0C180C180C180C180C180C180C180F
:1031A0000C180C18180C380EF007E0030000000093
:1031B0000000000000000000000000018001C001CC
:1031C000F001980188018001800180018001800167
:1031D00080018001800180018001800100000000E9
:1031E00000000000000000000000E003F80F180CD1
:1031F0000C180C1800180018000C000600038001C1
:10320000C000600030001800FC1FFC1F0000000020
:1032100000000000000000000000E001F807180EA8
:103220000C0C0C0C000C0006C003C007000C0018AE
:1032300000180C180C18180CF807E0030000000028
:1032400000000000000000000000000C000E000F55
:10325000000F800DC00C600C600C300C180C0C0CB6
:10326000FC3FFC3F000C000C000C000C00000000B8
:1032700000000000000000000000F80FF80F180028
:1032800018000C00EC03FC071C0E001C00180018B2
:1032900000180C181C0C180EF807E00300000000C2
:1032A00000000000000000000000C007F00F381C04
:1032B000181818000C00CC03EC0F3C0E1C1C0C184A
:1032C0000C180C18181C380EF007E0030000000062
:1032D00000000000000000000000FC1FFC1F000CAC
:1032E00000060006000380038001C001C000E0006A
:1032F000600060007000300030003000000000000E
:1033000000000000000000000000E003F007380E9D
:10331000180C180C180C3806F007F007180C0C18CD
:103320000C180C180C18380CF80FE0030000000003
:1033300000000000000000000000E003F007380E6D
:103340001C0C0C180C180C181C1C381EF81BE0194F
:103350000018000C000C1C0EF807F0010000000023
:10336000000000000000000000000000000000005D
:10337000000000008001800100000000000000004B
:10338000000000000000000080018001000000003B
:10339000000000000000000000000000000000002D
:1033A000000000008001800100000000000000001B
:1033B0000000000000000000800180010001000109
:1033C000800000000000000000000000000000007D
:1033D00000000000000000000010001C800FE0034F
:1033E000F8001800F800E003800F001C0010000037
:1033F00000000000000000000000000000000000CD
:103400000000000000000000F81F000000000000A5
:10341000F81F000000000000000000000000000095
:10342000000000000000000000000000000000009C
:10343000000000000000000008003800F001C00794
:10344000001F0018001FC007F0013800080000002E
:1034500000000000000000000000E003F80F180C5E
:103460000C180C180018000C000600038001C000A6
:10347000C000C00000000000C000C000000000004C
:10348000000000000000000000000000E007181825
:103490000420C229224A114409440944094409224A
:1034A0001113E20C024004201818E007000000008D
:1034B0000000000000000000000080038003C00640
:1034C000C006C006600C600C301830183018F83F89
:1034D000F83F1C700C600C6006C006C000000000C5
:1034E00000000000000000000000FC03FC0F0C0CBA
:1034F0000C180C180C180C0CFC07FC0F0C180C30DA
:103500000C300C300C300C18FC1FFC0700000000C5
:1035100000000000000000000000C007F01F383865
:103520001C300C700660060006000600060006004F
:10353000060006600C701C30F01FE0070000000061
:1035400000000000000000000000FE03FE0F060E59
:1035500006180618063006300630063006300630EB
:10356000063006180618060EFE0FFE0300000000C7
:1035700000000000000000000000FC3FFC3F0C00C9
:103580000C000C000C000C00FC1FFC1F0C000C00BD
:103590000C000C000C000C00FC3FFC3F0000000085
:1035A00000000000000000000000F83FF83F180095
:1035B0001800180018001800F81FF81F180018004D
:1035C000180018001800180018001800000000006B
:1035D00000000000000000000000E00FF83F3C7811
:1035E0000E6006E007C00300030003FE03FE03C0F5
:1035F00007C006C00EC03CF0F83FE00F000000001E
:10360000000000000000000000000C300C300C3006
:103610000C300C300C300C30FC3FFC3F0C300C30CC
:103620000C300C300C300C300C300C300000000032
:103630000000000000000000000080018001800107
:103640008001800180018001800180018001800172
:103650008001800180018001800180010000000064
:103660000000000000000000000000060006000648
:10367000000600060006000600060006000600061A
:103680000006180618063807F003E00100000000E5
:103690000000000000000000000006300618060CC4
:1036A000060606038601C60066007600DE008E016F
:1036B00006030606060C0618063006600000000029
:1036C00000000000000000000000180018001800B2
:1036D000180018001800180018001800180018002A
:1036E0001800180018001800F81FF81F000000004C
:1036F000000000000000000000000EE01EF01EF0C0
:103700001EF036D836D836D836D866CC66CC66CCDD
:10371000C6C6C6C6C6C6C6C686C386C300000000E7
:10372000000000000000000000000C301C303C30A5
:103730003C306C306C30CC30CC308C310C330C33B2
:103740000C360C360C3C0C3C0C380C3000000000E5
:1037500000000000000000000000E007F81F1C3817
:103760000E70066003C003C003C003C003C003C0E3
:1037700003C006600E701C38F81FE0070000000050
:1037800000000000000000000000FC0FFC1F0C38CF
:103790000C300C300C300C300C18FC1FFC070C00EB
:1037A0000C000C000C000C000C000C0000000000D1
:1037B00000000000000000000000E007F81F1C38B7
:1037C0000E70066003E003C003C003C003C003C063
:1037D00007E006630E3F1C3CF83FE0F700C0000026
:1037E00000000000000000000000FE0FFE1F063871
:1037F0000630063006300638FE1FFE0706030606B2
:10380000060C061806180630063006600000000098
:1038100000000000000000000000E003F80F1C0C96
:103820000C180C180C001C00F803E00F001E0038E8
:10383000063006300E301C1CF80FE00700000000B8
:1038400000000000000000000000FE7FFE7F8001FD
:103850008001800180018001800180018001800160
:103860008001800180018001800180010000000052
:10387000000000000000000000000C300C300C3094
:103880000C300C300C300C300C300C300C300C3058
:103890000C300C300C301818F81FE0070000000046
:1038A0000000000000000000000003600630063049
:1038B00006300C180C180C18180C180C380E3006A2
:1038C0003006700760036003C001C0010000000003
:1038D000000000000000000000000360C361C3613D
:1038E000C3616633663366336633663366336C1B97
:1038F0006C1B6C1B2C1A3C1E380E380E000000008E
:10390000000000000000000000000FE00C70183004
:103910003018700C600EC00780038003C003E006FF
:10392000700C301C18180C300E6007E0000000000E
:103930000000000000000000000003C006600C3022
:103940001C383818300C6006E007C0038001800185
:103950008001800180018001800180010000000061
:1039600000000000000000000000FC7FFC7F006001
:1039700000300018000C000600038001C000600049
:10398000300018000C000600FE7FFE7F00000000E3
:1039900000000000000000000000E003E003600001
:1039A0006000600060006000600060006000600017
:1039B0006000600060006000600060006000600007
:1039C0006000E003E0030000000030003000600011
:1039D00060006000C000C000C000C0018001800124
:1039E0008001000300030003000600060000000041
:1039F00000000000000000000000E003E0030003FE
:103A0000000300030003000300030003000300039E
:103A1000000300030003000300030003000300038E
:103A20000003E003E003000000000000C001C0014B
:103A300060036003600330063006180C180C0000A9
:103A40000000000000000000000000000000000076
:103A50000000000000000000000000000000000066
:103A60000000000000000000000000000000000056
:103A700000000000000000000000FFFFFFFF00004A
:103A8000000000000000000000000C000C000C0012
:103A90000C000C000C000000000000000000000002
:103AA0000000000000000000000000000000000016
:103AB0000000000000000000000000000000000006
:103AC00000000000F003F8071C0C0C0C000FF00FB6
:103AD000F80C0C0C0C0C1C0FF80FF0180000000078
:103AE000000000000000000000001800180018008E
:103AF00018001800D803F80F380C181818181818E0
:103B0000181818181818380CF80FD80300000000FF
:103B100000000000000000000000000000000000A5
:103B200000000000C003F007300E180C1800180049
:103B300018001800180C300EF007C0030000000039
:103B4000000000000000000000000018001800182D
:103B500000180018C01BF01F301C1818181818186F
:103B6000181818181818301CF01FC01B000000008F
:103B70000000000000000000000000000000000045
:103B800000000000C003F00F300C1818F81FF81FD9
:103B9000180018003818301CF00FC0070000000093
:103BA00000000000000000000000800FC00FC000F7
:103BB000C000C000F007F007C000C000C000C00097
:103BC000C000C000C000C000C000C0000000000075
:103BD00000000000000000000000000000000000E5
:103BE00000000000E00DF80F180E0C0C0C0C0C0C73
:103BF0000C0C0C0C0C0C180EF80FE00D000C0C0C3F
:103C00001C06F807F001000000001800180018005A
:103C100018001800D807F80F381C181818181818AA
:103C20001818181818181818181818180000000074
:103C300000000000000000000000C000C000000004
:103C400000000000C000C000C000C000C000C000F4
:103C5000C000C000C000C000C000C00000000000E4
:103C600000000000000000000000C000C0000000D4
:103C700000000000C000C000C000C000C000C000C4
:103C8000C000C000C000C000C000C000C000C00034
:103C9000C000F8007800000000000C000C000C00D0
:103CA0000C000C000C0C0C060C038C01CC006C00FE
:103CB000FC009C018C030C030C060C0C00000000A3
:103CC00000000000000000000000C000C000C000B4
:103CD000C000C000C000C000C000C000C000C000E4
:103CE000C000C000C000C000C000C0000000000054
:103CF00000000000000000000000000000000000C4
:103D0000000000007C3CFF7EC7E383C183C183C108
:103D100083C183C183C183C183C183C1000000000B
:103D20000000000000000000000000000000000093
:103D3000000000009807F80F381C181818181818F9
:103D40001818181818181818181818180000000053
:103D50000000000000000000000000000000000063
:103D600000000000C003F00F300C181818181818C5
:103D7000181818181818300CF00FC00300000000B5
:103D80000000000000000000000000000000000033
:103D900000000000D803F80F380C1818181818186D
:103DA000181818181818380CF80FD803180018002D
:103DB00018001800180000000000000000000000BB
:103DC00000000000C01BF01F301C1818181818182D
:103DD000181818181818301CF01FC01B00180018ED
:103DE000001800180018000000000000000000008B
:103DF00000000000B007F003700030003000300019
:103E00003000300030003000300030000000000092
:103E100000000000000000000000000000000000A2
:103E200000000000E003F003380E180C3800F00327
:103E3000C007000C180C380EF007E003000000006B
:103E40000000000000000000000000008000C00032
:103E5000C000C000F007F007C000C000C000C000F4
:103E6000C000C000C000C000C00780070000000004
:103E70000000000000000000000000000000000042
:103E80000000000018181818181818181818181812
:103E9000181818181818381CF01FE0190000000036
:103EA0000000000000000000000000000000000012
:103EB000000000000C18180C180C180C3006300606
:103EC0003006600360036003C001C0010000000011
:103ED00000000000000000000000000000000000E2
:103EE00000000000C141C141C36163636363636358
:103EF0003636363636361C1C1C1C1C1C00000000D6
:103F000000000000000000000000000000000000B1
:103F1000000000001C38381C300C60066003600391
:103F2000600360036006300C381C1C380000000081
:103F30000000000000000000000000000000000081
:103F4000000000001830301830187018600C600C39
:103F5000E00CC006C006800380038003800180015E
:103F6000C001F00070000000000000000000000030
:103F700000000000FC1FFC1F000C00060003800175
:103F8000C000600030001800FC1FFC1F0000000093
:103F90000000000000000000000000038001C000DD
:103FA000C000C000C000C000C00060006000300061
:103FB00060004000C000C000C000C000C000C000E1
:103FC00080010003000000000000800180018001EA
:103FD00080018001800180018001800180018001D9
:103FE00080018001800180018001800180018001C9
:103FF000800180018001000000006000C000C0015D
:10400000800180018001800180010003000300061F
:104010000003000180018001800180018001800196
:10402000C000600000000000000000000000000070
:104030000000000000000000F010F81F080F000052
:104040000000000000000000000000000000000070
:1040500000000000000000003F065B4F666D7D071A
:104060007F6F777C394F79780000000002400000B4
:10407000000000A00000000005400000000000C893
:10408000000000000C4000000000409C0000000008
:10409000194000000020BCBE0000000034400000B9
:1040A000BFC91B8E00000004B5400000504BCFD0AC
:1040B0006607E2CF010000006C4100003E8251AA79
:1040C000DFEEA73401000000D9420000DCB5A0E219
:1040D0003A301F97FFFFFFFFB4450000FD25A0C841
:1040E000E9A3C14FFFFFFFFFFF3F0000000000807A
:1040F00000000000FF3F0000000000800000000002
:104100003C410008000000203400000028010008A5
:1041100070410008340000206406000044010008DB
:104120001C00000043000000F8FFFFFF0C0000002F
:104130000E0000000F0000002E0000000000000034
:104140000102030401020304060708090204060829
:1041500000A24A0400000000000000000102030465
:1041600006070809000000000000FFFF0000000033
:04000005080000ED02
:00000001FF
